{
	"contracts/AnimalHelper_prc4.sol": {
		"AnimalHelper": {
			"abi": [
				{
					"constant": false,
					"inputs": [],
					"name": "withdraw",
					"outputs": [],
					"payable": false,
					"stateMutability": "nonpayable",
					"type": "function"
				},
				{
					"constant": false,
					"inputs": [
						{
							"name": "_AnimalId",
							"type": "uint256"
						},
						{
							"name": "_FoodId",
							"type": "uint256"
						}
					],
					"name": "feedOnFood",
					"outputs": [],
					"payable": false,
					"stateMutability": "nonpayable",
					"type": "function"
				},
				{
					"constant": false,
					"inputs": [
						{
							"name": "_AnimalId",
							"type": "uint256"
						},
						{
							"name": "_newDna",
							"type": "uint256"
						}
					],
					"name": "changeDna",
					"outputs": [],
					"payable": false,
					"stateMutability": "nonpayable",
					"type": "function"
				},
				{
					"constant": true,
					"inputs": [
						{
							"name": "_owner",
							"type": "address"
						}
					],
					"name": "getAnimalsByOwner",
					"outputs": [
						{
							"name": "",
							"type": "uint256[]"
						}
					],
					"payable": false,
					"stateMutability": "view",
					"type": "function"
				},
				{
					"constant": true,
					"inputs": [],
					"name": "owner",
					"outputs": [
						{
							"name": "",
							"type": "address"
						}
					],
					"payable": false,
					"stateMutability": "view",
					"type": "function"
				},
				{
					"constant": false,
					"inputs": [
						{
							"name": "_fee",
							"type": "uint256"
						}
					],
					"name": "setPowerUpFee",
					"outputs": [],
					"payable": false,
					"stateMutability": "nonpayable",
					"type": "function"
				},
				{
					"constant": true,
					"inputs": [
						{
							"name": "",
							"type": "uint256"
						}
					],
					"name": "animals",
					"outputs": [
						{
							"name": "name",
							"type": "string"
						},
						{
							"name": "dna",
							"type": "uint256"
						},
						{
							"name": "level",
							"type": "uint32"
						},
						{
							"name": "readyTime",
							"type": "uint32"
						}
					],
					"payable": false,
					"stateMutability": "view",
					"type": "function"
				},
				{
					"constant": false,
					"inputs": [
						{
							"name": "_animalId",
							"type": "uint256"
						}
					],
					"name": "powerUp",
					"outputs": [],
					"payable": true,
					"stateMutability": "payable",
					"type": "function"
				},
				{
					"constant": false,
					"inputs": [
						{
							"name": "_name",
							"type": "string"
						}
					],
					"name": "createRandomAnimal",
					"outputs": [],
					"payable": false,
					"stateMutability": "nonpayable",
					"type": "function"
				},
				{
					"constant": true,
					"inputs": [
						{
							"name": "",
							"type": "address"
						}
					],
					"name": "ownerAnimalCount",
					"outputs": [
						{
							"name": "",
							"type": "uint256"
						}
					],
					"payable": false,
					"stateMutability": "view",
					"type": "function"
				},
				{
					"constant": false,
					"inputs": [
						{
							"name": "_AnimalId",
							"type": "uint256"
						},
						{
							"name": "_newName",
							"type": "string"
						}
					],
					"name": "changeName",
					"outputs": [],
					"payable": false,
					"stateMutability": "nonpayable",
					"type": "function"
				},
				{
					"constant": true,
					"inputs": [
						{
							"name": "",
							"type": "uint256"
						}
					],
					"name": "animalToOwner",
					"outputs": [
						{
							"name": "",
							"type": "address"
						}
					],
					"payable": false,
					"stateMutability": "view",
					"type": "function"
				},
				{
					"constant": false,
					"inputs": [
						{
							"name": "newOwner",
							"type": "address"
						}
					],
					"name": "transferOwnership",
					"outputs": [],
					"payable": false,
					"stateMutability": "nonpayable",
					"type": "function"
				},
				{
					"constant": true,
					"inputs": [],
					"name": "powerUpFee",
					"outputs": [
						{
							"name": "",
							"type": "uint256"
						}
					],
					"payable": false,
					"stateMutability": "view",
					"type": "function"
				},
				{
					"anonymous": false,
					"inputs": [
						{
							"indexed": false,
							"name": "AnimalId",
							"type": "uint256"
						},
						{
							"indexed": false,
							"name": "name",
							"type": "string"
						},
						{
							"indexed": false,
							"name": "dna",
							"type": "uint256"
						}
					],
					"name": "NewAnimal",
					"type": "event"
				},
				{
					"anonymous": false,
					"inputs": [
						{
							"indexed": true,
							"name": "previousOwner",
							"type": "address"
						},
						{
							"indexed": true,
							"name": "newOwner",
							"type": "address"
						}
					],
					"name": "OwnershipTransferred",
					"type": "event"
				}
			],
			"devdoc": {
				"methods": {}
			},
			"evm": {
				"assembly": "    /* \"contracts/AnimalHelper_prc4.sol\":317:2938  contract AnimalHelper is AnimalFeeding {\r... */\n  mstore(0x40, 0x60)\n    /* \"contracts/AnimalIncubators_prc3.sol\":340:342  16 */\n  0x10\n    /* \"contracts/AnimalIncubators_prc3.sol\":323:342  uint dnaDigits = 16 */\n  0x1\n  sstore\n    /* \"contracts/AnimalIncubators_prc3.sol\":372:381  dnaDigits */\n  sload(0x1)\n    /* \"contracts/AnimalIncubators_prc3.sol\":366:368  10 */\n  0xa\n    /* \"contracts/AnimalIncubators_prc3.sol\":366:381  10 ** dnaDigits */\n  exp\n    /* \"contracts/AnimalIncubators_prc3.sol\":349:381  uint dnaLength = 10 ** dnaDigits */\n  0x2\n  sstore\n    /* \"contracts/AnimalIncubators_prc3.sol\":463:473  60 seconds */\n  0x3c\n    /* \"contracts/AnimalIncubators_prc3.sol\":443:473  uint cooldownTime = 60 seconds */\n  0x3\n  sstore\n    /* \"contracts/AnimalHelper_prc4.sol\":1753:1764  0.001 ether */\n  0x38d7ea4c68000\n    /* \"contracts/AnimalHelper_prc4.sol\":1728:1764  uint public powerUpFee = 0.001 ether */\n  0x7\n  sstore\n    /* \"contracts/ownable.sol\":308:318  msg.sender */\n  caller\n    /* \"contracts/ownable.sol\":300:305  owner */\n  0x0\n  dup1\n    /* \"contracts/ownable.sol\":300:318  owner = msg.sender */\n  0x100\n  exp\n  dup2\n  sload\n  dup2\n  0xffffffffffffffffffffffffffffffffffffffff\n  mul\n  not\n  and\n  swap1\n  dup4\n  0xffffffffffffffffffffffffffffffffffffffff\n  and\n  mul\n  or\n  swap1\n  sstore\n  pop\n    /* \"contracts/AnimalHelper_prc4.sol\":317:2938  contract AnimalHelper is AnimalFeeding {\r... */\n  dataSize(sub_0)\n  dup1\n  dataOffset(sub_0)\n  0x0\n  codecopy\n  0x0\n  return\nstop\n\nsub_0: assembly {\n        /* \"contracts/AnimalHelper_prc4.sol\":317:2938  contract AnimalHelper is AnimalFeeding {\r... */\n      mstore(0x40, 0x60)\n      jumpi(tag_1, lt(calldatasize, 0x4))\n      calldataload(0x0)\n      0x100000000000000000000000000000000000000000000000000000000\n      swap1\n      div\n      0xffffffff\n      and\n      dup1\n      0x3ccfd60b\n      eq\n      tag_2\n      jumpi\n      dup1\n      0x5c8f191d\n      eq\n      tag_3\n      jumpi\n      dup1\n      0x5faf2880\n      eq\n      tag_4\n      jumpi\n      dup1\n      0x6485be27\n      eq\n      tag_5\n      jumpi\n      dup1\n      0x8da5cb5b\n      eq\n      tag_6\n      jumpi\n      dup1\n      0x90b0722e\n      eq\n      tag_7\n      jumpi\n      dup1\n      0x998dd3ca\n      eq\n      tag_8\n      jumpi\n      dup1\n      0x9a6bd379\n      eq\n      tag_9\n      jumpi\n      dup1\n      0x9abfb23e\n      eq\n      tag_10\n      jumpi\n      dup1\n      0xa936b8c9\n      eq\n      tag_11\n      jumpi\n      dup1\n      0xc39cbef1\n      eq\n      tag_12\n      jumpi\n      dup1\n      0xd81c513a\n      eq\n      tag_13\n      jumpi\n      dup1\n      0xf2fde38b\n      eq\n      tag_14\n      jumpi\n      dup1\n      0xf715ea68\n      eq\n      tag_15\n      jumpi\n    tag_1:\n      0x0\n      dup1\n      revert\n        /* \"contracts/AnimalHelper_prc4.sol\":2469:2623  function withdraw() external onlyOwner {\r... */\n    tag_2:\n      jumpi(tag_16, iszero(callvalue))\n      0x0\n      dup1\n      revert\n    tag_16:\n      tag_17\n      jump(tag_18)\n    tag_17:\n      stop\n        /* \"contracts/AnimalFeeding_prc3.sol\":1284:1446  function feedOnFood(uint _AnimalId, uint _FoodId) public {\r... */\n    tag_3:\n      jumpi(tag_19, iszero(callvalue))\n      0x0\n      dup1\n      revert\n    tag_19:\n      tag_20\n      0x4\n      dup1\n      dup1\n      calldataload\n      swap1\n      0x20\n      add\n      swap1\n      swap2\n      swap1\n      dup1\n      calldataload\n      swap1\n      0x20\n      add\n      swap1\n      swap2\n      swap1\n      pop\n      pop\n      jump(tag_21)\n    tag_20:\n      stop\n        /* \"contracts/AnimalHelper_prc4.sol\":821:1039  function changeDna(uint _AnimalId, uint _newDna) \r... */\n    tag_4:\n      jumpi(tag_22, iszero(callvalue))\n      0x0\n      dup1\n      revert\n    tag_22:\n      tag_23\n      0x4\n      dup1\n      dup1\n      calldataload\n      swap1\n      0x20\n      add\n      swap1\n      swap2\n      swap1\n      dup1\n      calldataload\n      swap1\n      0x20\n      add\n      swap1\n      swap2\n      swap1\n      pop\n      pop\n      jump(tag_24)\n    tag_23:\n      stop\n        /* \"contracts/AnimalHelper_prc4.sol\":1047:1478  function getAnimalsByOwner(address _owner) \r... */\n    tag_5:\n      jumpi(tag_25, iszero(callvalue))\n      0x0\n      dup1\n      revert\n    tag_25:\n      tag_26\n      0x4\n      dup1\n      dup1\n      calldataload\n      0xffffffffffffffffffffffffffffffffffffffff\n      and\n      swap1\n      0x20\n      add\n      swap1\n      swap2\n      swap1\n      pop\n      pop\n      jump(tag_27)\n    tag_26:\n      mload(0x40)\n      dup1\n      dup1\n      0x20\n      add\n      dup3\n      dup2\n      sub\n      dup3\n      mstore\n      dup4\n      dup2\n      dup2\n      mload\n      dup2\n      mstore\n      0x20\n      add\n      swap2\n      pop\n      dup1\n      mload\n      swap1\n      0x20\n      add\n      swap1\n      0x20\n      mul\n      dup1\n      dup4\n      dup4\n        /* \"--CODEGEN--\":23:24   */\n      0x0\n        /* \"--CODEGEN--\":8:108   */\n    tag_28:\n        /* \"--CODEGEN--\":33:36   */\n      dup4\n        /* \"--CODEGEN--\":30:31   */\n      dup2\n        /* \"--CODEGEN--\":27:29   */\n      lt\n        /* \"--CODEGEN--\":8:108   */\n      iszero\n      tag_29\n      jumpi\n        /* \"--CODEGEN--\":99:100   */\n      dup1\n        /* \"--CODEGEN--\":94:97   */\n      dup3\n        /* \"--CODEGEN--\":90:93   */\n      add\n        /* \"--CODEGEN--\":84:89   */\n      mload\n        /* \"--CODEGEN--\":80:81   */\n      dup2\n        /* \"--CODEGEN--\":75:78   */\n      dup5\n        /* \"--CODEGEN--\":71:74   */\n      add\n        /* \"--CODEGEN--\":64:70   */\n      mstore\n        /* \"--CODEGEN--\":52:54   */\n      0x20\n        /* \"--CODEGEN--\":49:50   */\n      dup2\n        /* \"--CODEGEN--\":45:48   */\n      add\n        /* \"--CODEGEN--\":40:55   */\n      swap1\n      pop\n        /* \"--CODEGEN--\":8:108   */\n      jump(tag_28)\n    tag_29:\n        /* \"--CODEGEN--\":12:26   */\n      pop\n        /* \"--CODEGEN--\":3:112   */\n      pop\n      pop\n      pop\n      swap1\n      pop\n      add\n      swap3\n      pop\n      pop\n      pop\n      mload(0x40)\n      dup1\n      swap2\n      sub\n      swap1\n      return\n        /* \"contracts/ownable.sol\":121:141  address public owner */\n    tag_6:\n      jumpi(tag_31, iszero(callvalue))\n      0x0\n      dup1\n      revert\n    tag_31:\n      tag_32\n      jump(tag_33)\n    tag_32:\n      mload(0x40)\n      dup1\n      dup3\n      0xffffffffffffffffffffffffffffffffffffffff\n      and\n      0xffffffffffffffffffffffffffffffffffffffff\n      and\n      dup2\n      mstore\n      0x20\n      add\n      swap2\n      pop\n      pop\n      mload(0x40)\n      dup1\n      swap2\n      sub\n      swap1\n      return\n        /* \"contracts/AnimalHelper_prc4.sol\":2689:2893  function setPowerUpFee(uint _fee) external onlyOwner {\r... */\n    tag_7:\n      jumpi(tag_34, iszero(callvalue))\n      0x0\n      dup1\n      revert\n    tag_34:\n      tag_35\n      0x4\n      dup1\n      dup1\n      calldataload\n      swap1\n      0x20\n      add\n      swap1\n      swap2\n      swap1\n      pop\n      pop\n      jump(tag_36)\n    tag_35:\n      stop\n        /* \"contracts/AnimalIncubators_prc3.sol\":703:726  Animal[] public animals */\n    tag_8:\n      jumpi(tag_37, iszero(callvalue))\n      0x0\n      dup1\n      revert\n    tag_37:\n      tag_38\n      0x4\n      dup1\n      dup1\n      calldataload\n      swap1\n      0x20\n      add\n      swap1\n      swap2\n      swap1\n      pop\n      pop\n      jump(tag_39)\n    tag_38:\n      mload(0x40)\n      dup1\n      dup1\n      0x20\n      add\n      dup6\n      dup2\n      mstore\n      0x20\n      add\n      dup5\n      0xffffffff\n      and\n      0xffffffff\n      and\n      dup2\n      mstore\n      0x20\n      add\n      dup4\n      0xffffffff\n      and\n      0xffffffff\n      and\n      dup2\n      mstore\n      0x20\n      add\n      dup3\n      dup2\n      sub\n      dup3\n      mstore\n      dup7\n      dup2\n      dup2\n      sload\n      0x1\n      dup2\n      0x1\n      and\n      iszero\n      0x100\n      mul\n      sub\n      and\n      0x2\n      swap1\n      div\n      dup2\n      mstore\n      0x20\n      add\n      swap2\n      pop\n      dup1\n      sload\n      0x1\n      dup2\n      0x1\n      and\n      iszero\n      0x100\n      mul\n      sub\n      and\n      0x2\n      swap1\n      div\n      dup1\n      iszero\n      tag_40\n      jumpi\n      dup1\n      0x1f\n      lt\n      tag_41\n      jumpi\n      0x100\n      dup1\n      dup4\n      sload\n      div\n      mul\n      dup4\n      mstore\n      swap2\n      0x20\n      add\n      swap2\n      jump(tag_40)\n    tag_41:\n      dup3\n      add\n      swap2\n      swap1\n      0x0\n      mstore\n      keccak256(0x0, 0x20)\n      swap1\n    tag_42:\n      dup2\n      sload\n      dup2\n      mstore\n      swap1\n      0x1\n      add\n      swap1\n      0x20\n      add\n      dup1\n      dup4\n      gt\n      tag_42\n      jumpi\n      dup3\n      swap1\n      sub\n      0x1f\n      and\n      dup3\n      add\n      swap2\n    tag_40:\n      pop\n      pop\n      swap6\n      pop\n      pop\n      pop\n      pop\n      pop\n      pop\n      mload(0x40)\n      dup1\n      swap2\n      sub\n      swap1\n      return\n        /* \"contracts/AnimalHelper_prc4.sol\":1878:2275  function powerUp(uint _animalId) external payable {\r... */\n    tag_9:\n      tag_43\n      0x4\n      dup1\n      dup1\n      calldataload\n      swap1\n      0x20\n      add\n      swap1\n      swap2\n      swap1\n      pop\n      pop\n      jump(tag_44)\n    tag_43:\n      stop\n        /* \"contracts/AnimalIncubators_prc3.sol\":1588:1885  function createRandomAnimal(string _name) public {\r... */\n    tag_10:\n      jumpi(tag_45, iszero(callvalue))\n      0x0\n      dup1\n      revert\n    tag_45:\n      tag_46\n      0x4\n      dup1\n      dup1\n      calldataload\n      swap1\n      0x20\n      add\n      swap1\n      dup3\n      add\n      dup1\n      calldataload\n      swap1\n      0x20\n      add\n      swap1\n      dup1\n      dup1\n      0x1f\n      add\n      0x20\n      dup1\n      swap2\n      div\n      mul\n      0x20\n      add\n      mload(0x40)\n      swap1\n      dup2\n      add\n      0x40\n      mstore\n      dup1\n      swap4\n      swap3\n      swap2\n      swap1\n      dup2\n      dup2\n      mstore\n      0x20\n      add\n      dup4\n      dup4\n      dup1\n      dup3\n      dup5\n      calldatacopy\n      dup3\n      add\n      swap2\n      pop\n      pop\n      pop\n      pop\n      pop\n      pop\n      swap2\n      swap1\n      pop\n      pop\n      jump(tag_47)\n    tag_46:\n      stop\n        /* \"contracts/AnimalIncubators_prc3.sol\":788:837  mapping (address => uint) public ownerAnimalCount */\n    tag_11:\n      jumpi(tag_48, iszero(callvalue))\n      0x0\n      dup1\n      revert\n    tag_48:\n      tag_49\n      0x4\n      dup1\n      dup1\n      calldataload\n      0xffffffffffffffffffffffffffffffffffffffff\n      and\n      swap1\n      0x20\n      add\n      swap1\n      swap2\n      swap1\n      pop\n      pop\n      jump(tag_50)\n    tag_49:\n      mload(0x40)\n      dup1\n      dup3\n      dup2\n      mstore\n      0x20\n      add\n      swap2\n      pop\n      pop\n      mload(0x40)\n      dup1\n      swap2\n      sub\n      swap1\n      return\n        /* \"contracts/AnimalHelper_prc4.sol\":590:813  function changeName(uint _AnimalId, string _newName) \r... */\n    tag_12:\n      jumpi(tag_51, iszero(callvalue))\n      0x0\n      dup1\n      revert\n    tag_51:\n      tag_52\n      0x4\n      dup1\n      dup1\n      calldataload\n      swap1\n      0x20\n      add\n      swap1\n      swap2\n      swap1\n      dup1\n      calldataload\n      swap1\n      0x20\n      add\n      swap1\n      dup3\n      add\n      dup1\n      calldataload\n      swap1\n      0x20\n      add\n      swap2\n      swap1\n      swap2\n      swap3\n      swap1\n      pop\n      pop\n      jump(tag_53)\n    tag_52:\n      stop\n        /* \"contracts/AnimalIncubators_prc3.sol\":735:781  mapping (uint => address) public animalToOwner */\n    tag_13:\n      jumpi(tag_54, iszero(callvalue))\n      0x0\n      dup1\n      revert\n    tag_54:\n      tag_55\n      0x4\n      dup1\n      dup1\n      calldataload\n      swap1\n      0x20\n      add\n      swap1\n      swap2\n      swap1\n      pop\n      pop\n      jump(tag_56)\n    tag_55:\n      mload(0x40)\n      dup1\n      dup3\n      0xffffffffffffffffffffffffffffffffffffffff\n      and\n      0xffffffffffffffffffffffffffffffffffffffff\n      and\n      dup2\n      mstore\n      0x20\n      add\n      swap2\n      pop\n      pop\n      mload(0x40)\n      dup1\n      swap2\n      sub\n      swap1\n      return\n        /* \"contracts/ownable.sol\":470:725  function transferOwnership(address newOwner) public onlyOwner {\r... */\n    tag_14:\n      jumpi(tag_57, iszero(callvalue))\n      0x0\n      dup1\n      revert\n    tag_57:\n      tag_58\n      0x4\n      dup1\n      dup1\n      calldataload\n      0xffffffffffffffffffffffffffffffffffffffff\n      and\n      swap1\n      0x20\n      add\n      swap1\n      swap2\n      swap1\n      pop\n      pop\n      jump(tag_59)\n    tag_58:\n      stop\n        /* \"contracts/AnimalHelper_prc4.sol\":1728:1764  uint public powerUpFee = 0.001 ether */\n    tag_15:\n      jumpi(tag_60, iszero(callvalue))\n      0x0\n      dup1\n      revert\n    tag_60:\n      tag_61\n      jump(tag_62)\n    tag_61:\n      mload(0x40)\n      dup1\n      dup3\n      dup2\n      mstore\n      0x20\n      add\n      swap2\n      pop\n      pop\n      mload(0x40)\n      dup1\n      swap2\n      sub\n      swap1\n      return\n        /* \"contracts/AnimalHelper_prc4.sol\":2469:2623  function withdraw() external onlyOwner {\r... */\n    tag_18:\n        /* \"contracts/ownable.sol\":406:411  owner */\n      0x0\n      dup1\n      swap1\n      sload\n      swap1\n      0x100\n      exp\n      swap1\n      div\n      0xffffffffffffffffffffffffffffffffffffffff\n      and\n        /* \"contracts/ownable.sol\":392:411  msg.sender == owner */\n      0xffffffffffffffffffffffffffffffffffffffff\n      and\n        /* \"contracts/ownable.sol\":392:402  msg.sender */\n      caller\n        /* \"contracts/ownable.sol\":392:411  msg.sender == owner */\n      0xffffffffffffffffffffffffffffffffffffffff\n      and\n      eq\n        /* \"contracts/ownable.sol\":384:412  require(msg.sender == owner) */\n      iszero\n      iszero\n      tag_64\n      jumpi\n      0x0\n      dup1\n      revert\n    tag_64:\n        /* \"contracts/AnimalHelper_prc4.sol\":2578:2583  owner */\n      0x0\n      dup1\n      swap1\n      sload\n      swap1\n      0x100\n      exp\n      swap1\n      div\n      0xffffffffffffffffffffffffffffffffffffffff\n      and\n        /* \"contracts/AnimalHelper_prc4.sol\":2578:2592  owner.transfer */\n      0xffffffffffffffffffffffffffffffffffffffff\n      and\n        /* \"contracts/AnimalHelper_prc4.sol\":2578:2615  owner.transfer(address(this).balance) */\n      0x8fc\n        /* \"contracts/AnimalHelper_prc4.sol\":2601:2605  this */\n      address\n        /* \"contracts/AnimalHelper_prc4.sol\":2593:2614  address(this).balance */\n      0xffffffffffffffffffffffffffffffffffffffff\n      and\n      balance\n        /* \"contracts/AnimalHelper_prc4.sol\":2578:2615  owner.transfer(address(this).balance) */\n      swap1\n      dup2\n      iszero\n      mul\n      swap1\n      mload(0x40)\n      0x0\n      mload(0x40)\n      dup1\n      dup4\n      sub\n      dup2\n      dup6\n      dup9\n      dup9\n      call\n      swap4\n      pop\n      pop\n      pop\n      pop\n      iszero\n      iszero\n      tag_66\n      jumpi\n      0x0\n      dup1\n      revert\n    tag_66:\n        /* \"contracts/AnimalHelper_prc4.sol\":2469:2623  function withdraw() external onlyOwner {\r... */\n      jump\t// out\n        /* \"contracts/AnimalFeeding_prc3.sol\":1284:1446  function feedOnFood(uint _AnimalId, uint _FoodId) public {\r... */\n    tag_21:\n        /* \"contracts/AnimalFeeding_prc3.sol\":1362:1374  uint foodDna */\n      0x0\n        /* \"contracts/AnimalFeeding_prc3.sol\":1377:1396  _catchFood(_FoodId) */\n      tag_68\n        /* \"contracts/AnimalFeeding_prc3.sol\":1388:1395  _FoodId */\n      dup3\n        /* \"contracts/AnimalFeeding_prc3.sol\":1377:1387  _catchFood */\n      tag_69\n        /* \"contracts/AnimalFeeding_prc3.sol\":1377:1396  _catchFood(_FoodId) */\n      jump\t// in\n    tag_68:\n        /* \"contracts/AnimalFeeding_prc3.sol\":1362:1396  uint foodDna = _catchFood(_FoodId) */\n      swap1\n      pop\n        /* \"contracts/AnimalFeeding_prc3.sol\":1407:1438  feedAndGrow(_AnimalId, foodDna) */\n      tag_70\n        /* \"contracts/AnimalFeeding_prc3.sol\":1419:1428  _AnimalId */\n      dup4\n        /* \"contracts/AnimalFeeding_prc3.sol\":1430:1437  foodDna */\n      dup3\n        /* \"contracts/AnimalFeeding_prc3.sol\":1407:1418  feedAndGrow */\n      tag_71\n        /* \"contracts/AnimalFeeding_prc3.sol\":1407:1438  feedAndGrow(_AnimalId, foodDna) */\n      jump\t// in\n    tag_70:\n        /* \"contracts/AnimalFeeding_prc3.sol\":1284:1446  function feedOnFood(uint _AnimalId, uint _FoodId) public {\r... */\n      pop\n      pop\n      pop\n      jump\t// out\n        /* \"contracts/AnimalHelper_prc4.sol\":821:1039  function changeDna(uint _AnimalId, uint _newDna) \r... */\n    tag_24:\n        /* \"contracts/AnimalHelper_prc4.sol\":910:912  20 */\n      0x14\n        /* \"contracts/AnimalHelper_prc4.sol\":914:923  _AnimalId */\n      dup3\n        /* \"contracts/AnimalHelper_prc4.sol\":555:561  _level */\n      dup2\n        /* \"contracts/AnimalHelper_prc4.sol\":527:534  animals */\n      0x4\n        /* \"contracts/AnimalHelper_prc4.sol\":535:544  _animalId */\n      dup3\n        /* \"contracts/AnimalHelper_prc4.sol\":527:545  animals[_animalId] */\n      dup2\n      sload\n      dup2\n      lt\n      iszero\n      iszero\n      tag_73\n      jumpi\n      invalid\n    tag_73:\n      swap1\n      0x0\n      mstore\n      keccak256(0x0, 0x20)\n      swap1\n      0x3\n      mul\n      add\n        /* \"contracts/AnimalHelper_prc4.sol\":527:551  animals[_animalId].level */\n      0x2\n      add\n      0x0\n      swap1\n      sload\n      swap1\n      0x100\n      exp\n      swap1\n      div\n      0xffffffff\n      and\n        /* \"contracts/AnimalHelper_prc4.sol\":527:561  animals[_animalId].level >= _level */\n      0xffffffff\n      and\n      lt\n      iszero\n        /* \"contracts/AnimalHelper_prc4.sol\":519:562  require(animals[_animalId].level >= _level) */\n      iszero\n      iszero\n      tag_75\n      jumpi\n      0x0\n      dup1\n      revert\n    tag_75:\n        /* \"contracts/AnimalHelper_prc4.sol\":963:976  animalToOwner */\n      0x5\n        /* \"contracts/AnimalHelper_prc4.sol\":963:987  animalToOwner[_AnimalId] */\n      0x0\n        /* \"contracts/AnimalHelper_prc4.sol\":977:986  _AnimalId */\n      dup6\n        /* \"contracts/AnimalHelper_prc4.sol\":963:987  animalToOwner[_AnimalId] */\n      dup2\n      mstore\n      0x20\n      add\n      swap1\n      dup2\n      mstore\n      0x20\n      add\n      0x0\n      keccak256\n      0x0\n      swap1\n      sload\n      swap1\n      0x100\n      exp\n      swap1\n      div\n      0xffffffffffffffffffffffffffffffffffffffff\n      and\n        /* \"contracts/AnimalHelper_prc4.sol\":949:987  msg.sender == animalToOwner[_AnimalId] */\n      0xffffffffffffffffffffffffffffffffffffffff\n      and\n        /* \"contracts/AnimalHelper_prc4.sol\":949:959  msg.sender */\n      caller\n        /* \"contracts/AnimalHelper_prc4.sol\":949:987  msg.sender == animalToOwner[_AnimalId] */\n      0xffffffffffffffffffffffffffffffffffffffff\n      and\n      eq\n        /* \"contracts/AnimalHelper_prc4.sol\":941:988  require(msg.sender == animalToOwner[_AnimalId]) */\n      iszero\n      iszero\n      tag_77\n      jumpi\n      0x0\n      dup1\n      revert\n    tag_77:\n        /* \"contracts/AnimalHelper_prc4.sol\":1024:1031  _newDna */\n      dup3\n        /* \"contracts/AnimalHelper_prc4.sol\":999:1006  animals */\n      0x4\n        /* \"contracts/AnimalHelper_prc4.sol\":1007:1016  _AnimalId */\n      dup6\n        /* \"contracts/AnimalHelper_prc4.sol\":999:1017  animals[_AnimalId] */\n      dup2\n      sload\n      dup2\n      lt\n      iszero\n      iszero\n      tag_78\n      jumpi\n      invalid\n    tag_78:\n      swap1\n      0x0\n      mstore\n      keccak256(0x0, 0x20)\n      swap1\n      0x3\n      mul\n      add\n        /* \"contracts/AnimalHelper_prc4.sol\":999:1021  animals[_AnimalId].dna */\n      0x1\n      add\n        /* \"contracts/AnimalHelper_prc4.sol\":999:1031  animals[_AnimalId].dna = _newDna */\n      dup2\n      swap1\n      sstore\n      pop\n        /* \"contracts/AnimalHelper_prc4.sol\":821:1039  function changeDna(uint _AnimalId, uint _newDna) \r... */\n      pop\n      pop\n      pop\n      pop\n      jump\t// out\n        /* \"contracts/AnimalHelper_prc4.sol\":1047:1478  function getAnimalsByOwner(address _owner) \r... */\n    tag_27:\n        /* \"contracts/AnimalHelper_prc4.sol\":1143:1149  uint[] */\n      tag_80\n      jump\t// in(tag_81)\n    tag_80:\n        /* \"contracts/AnimalHelper_prc4.sol\":1168:1188  uint[] memory result */\n      tag_82\n      jump\t// in(tag_81)\n    tag_82:\n        /* \"contracts/AnimalHelper_prc4.sol\":1238:1250  uint counter */\n      0x0\n        /* \"contracts/AnimalHelper_prc4.sol\":1270:1276  uint i */\n      dup1\n        /* \"contracts/AnimalHelper_prc4.sol\":1202:1218  ownerAnimalCount */\n      0x6\n        /* \"contracts/AnimalHelper_prc4.sol\":1202:1226  ownerAnimalCount[_owner] */\n      0x0\n        /* \"contracts/AnimalHelper_prc4.sol\":1219:1225  _owner */\n      dup7\n        /* \"contracts/AnimalHelper_prc4.sol\":1202:1226  ownerAnimalCount[_owner] */\n      0xffffffffffffffffffffffffffffffffffffffff\n      and\n      0xffffffffffffffffffffffffffffffffffffffff\n      and\n      dup2\n      mstore\n      0x20\n      add\n      swap1\n      dup2\n      mstore\n      0x20\n      add\n      0x0\n      keccak256\n      sload\n        /* \"contracts/AnimalHelper_prc4.sol\":1191:1227  new uint[](ownerAnimalCount[_owner]) */\n      mload(0x40)\n      dup1\n      msize\n      lt\n      tag_84\n      jumpi\n      pop\n      msize\n    tag_84:\n      swap1\n      dup1\n      dup3\n      mstore\n      dup1\n      0x20\n      mul\n      0x20\n      add\n      dup3\n      add\n      0x40\n      mstore\n      pop\n        /* \"contracts/AnimalHelper_prc4.sol\":1168:1227  uint[] memory result = new uint[](ownerAnimalCount[_owner]) */\n      swap3\n      pop\n        /* \"contracts/AnimalHelper_prc4.sol\":1253:1254  0 */\n      0x0\n        /* \"contracts/AnimalHelper_prc4.sol\":1238:1254  uint counter = 0 */\n      swap2\n      pop\n        /* \"contracts/AnimalHelper_prc4.sol\":1279:1280  0 */\n      0x0\n        /* \"contracts/AnimalHelper_prc4.sol\":1270:1280  uint i = 0 */\n      swap1\n      pop\n        /* \"contracts/AnimalHelper_prc4.sol\":1265:1447  for (uint i = 0; i < animals.length; i++) {\r... */\n    tag_86:\n        /* \"contracts/AnimalHelper_prc4.sol\":1286:1293  animals */\n      0x4\n        /* \"contracts/AnimalHelper_prc4.sol\":1286:1300  animals.length */\n      dup1\n      sload\n      swap1\n      pop\n        /* \"contracts/AnimalHelper_prc4.sol\":1282:1283  i */\n      dup2\n        /* \"contracts/AnimalHelper_prc4.sol\":1282:1300  i < animals.length */\n      lt\n        /* \"contracts/AnimalHelper_prc4.sol\":1265:1447  for (uint i = 0; i < animals.length; i++) {\r... */\n      iszero\n      tag_87\n      jumpi\n        /* \"contracts/AnimalHelper_prc4.sol\":1346:1352  _owner */\n      dup5\n        /* \"contracts/AnimalHelper_prc4.sol\":1326:1352  animalToOwner[i] == _owner */\n      0xffffffffffffffffffffffffffffffffffffffff\n      and\n        /* \"contracts/AnimalHelper_prc4.sol\":1326:1339  animalToOwner */\n      0x5\n        /* \"contracts/AnimalHelper_prc4.sol\":1326:1342  animalToOwner[i] */\n      0x0\n        /* \"contracts/AnimalHelper_prc4.sol\":1340:1341  i */\n      dup4\n        /* \"contracts/AnimalHelper_prc4.sol\":1326:1342  animalToOwner[i] */\n      dup2\n      mstore\n      0x20\n      add\n      swap1\n      dup2\n      mstore\n      0x20\n      add\n      0x0\n      keccak256\n      0x0\n      swap1\n      sload\n      swap1\n      0x100\n      exp\n      swap1\n      div\n      0xffffffffffffffffffffffffffffffffffffffff\n      and\n        /* \"contracts/AnimalHelper_prc4.sol\":1326:1352  animalToOwner[i] == _owner */\n      0xffffffffffffffffffffffffffffffffffffffff\n      and\n      eq\n        /* \"contracts/AnimalHelper_prc4.sol\":1322:1436  if (animalToOwner[i] == _owner) {\r... */\n      iszero\n      tag_89\n      jumpi\n        /* \"contracts/AnimalHelper_prc4.sol\":1391:1392  i */\n      dup1\n        /* \"contracts/AnimalHelper_prc4.sol\":1373:1379  result */\n      dup4\n        /* \"contracts/AnimalHelper_prc4.sol\":1380:1387  counter */\n      dup4\n        /* \"contracts/AnimalHelper_prc4.sol\":1373:1388  result[counter] */\n      dup2\n      mload\n      dup2\n      lt\n      iszero\n      iszero\n      tag_90\n      jumpi\n      invalid\n    tag_90:\n      swap1\n      0x20\n      add\n      swap1\n      0x20\n      mul\n      add\n        /* \"contracts/AnimalHelper_prc4.sol\":1373:1392  result[counter] = i */\n      dup2\n      dup2\n      mstore\n      pop\n      pop\n        /* \"contracts/AnimalHelper_prc4.sol\":1411:1420  counter++ */\n      dup2\n      dup1\n      0x1\n      add\n      swap3\n      pop\n      pop\n        /* \"contracts/AnimalHelper_prc4.sol\":1322:1436  if (animalToOwner[i] == _owner) {\r... */\n    tag_89:\n        /* \"contracts/AnimalHelper_prc4.sol\":1302:1305  i++ */\n      dup1\n      dup1\n      0x1\n      add\n      swap2\n      pop\n      pop\n        /* \"contracts/AnimalHelper_prc4.sol\":1265:1447  for (uint i = 0; i < animals.length; i++) {\r... */\n      jump(tag_86)\n    tag_87:\n        /* \"contracts/AnimalHelper_prc4.sol\":1464:1470  result */\n      dup3\n        /* \"contracts/AnimalHelper_prc4.sol\":1457:1470  return result */\n      swap4\n      pop\n        /* \"contracts/AnimalHelper_prc4.sol\":1047:1478  function getAnimalsByOwner(address _owner) \r... */\n      pop\n      pop\n      pop\n      swap2\n      swap1\n      pop\n      jump\t// out\n        /* \"contracts/ownable.sol\":121:141  address public owner */\n    tag_33:\n      0x0\n      dup1\n      swap1\n      sload\n      swap1\n      0x100\n      exp\n      swap1\n      div\n      0xffffffffffffffffffffffffffffffffffffffff\n      and\n      dup2\n      jump\t// out\n        /* \"contracts/AnimalHelper_prc4.sol\":2689:2893  function setPowerUpFee(uint _fee) external onlyOwner {\r... */\n    tag_36:\n        /* \"contracts/ownable.sol\":406:411  owner */\n      0x0\n      dup1\n      swap1\n      sload\n      swap1\n      0x100\n      exp\n      swap1\n      div\n      0xffffffffffffffffffffffffffffffffffffffff\n      and\n        /* \"contracts/ownable.sol\":392:411  msg.sender == owner */\n      0xffffffffffffffffffffffffffffffffffffffff\n      and\n        /* \"contracts/ownable.sol\":392:402  msg.sender */\n      caller\n        /* \"contracts/ownable.sol\":392:411  msg.sender == owner */\n      0xffffffffffffffffffffffffffffffffffffffff\n      and\n      eq\n        /* \"contracts/ownable.sol\":384:412  require(msg.sender == owner) */\n      iszero\n      iszero\n      tag_92\n      jumpi\n      0x0\n      dup1\n      revert\n    tag_92:\n        /* \"contracts/AnimalHelper_prc4.sol\":2881:2885  _fee */\n      dup1\n        /* \"contracts/AnimalHelper_prc4.sol\":2868:2878  powerUpFee */\n      0x7\n        /* \"contracts/AnimalHelper_prc4.sol\":2868:2885  powerUpFee = _fee */\n      dup2\n      swap1\n      sstore\n      pop\n        /* \"contracts/AnimalHelper_prc4.sol\":2689:2893  function setPowerUpFee(uint _fee) external onlyOwner {\r... */\n      pop\n      jump\t// out\n        /* \"contracts/AnimalIncubators_prc3.sol\":703:726  Animal[] public animals */\n    tag_39:\n      0x4\n      dup2\n      dup2\n      sload\n      dup2\n      lt\n      iszero\n      iszero\n      tag_94\n      jumpi\n      invalid\n    tag_94:\n      swap1\n      0x0\n      mstore\n      keccak256(0x0, 0x20)\n      swap1\n      0x3\n      mul\n      add\n      0x0\n      swap2\n      pop\n      swap1\n      pop\n      dup1\n      0x0\n      add\n      swap1\n      dup1\n      0x1\n      add\n      sload\n      swap1\n      dup1\n      0x2\n      add\n      0x0\n      swap1\n      sload\n      swap1\n      0x100\n      exp\n      swap1\n      div\n      0xffffffff\n      and\n      swap1\n      dup1\n      0x2\n      add\n      0x4\n      swap1\n      sload\n      swap1\n      0x100\n      exp\n      swap1\n      div\n      0xffffffff\n      and\n      swap1\n      pop\n      dup5\n      jump\t// out\n        /* \"contracts/AnimalHelper_prc4.sol\":1878:2275  function powerUp(uint _animalId) external payable {\r... */\n    tag_44:\n        /* \"contracts/AnimalHelper_prc4.sol\":2044:2054  powerUpFee */\n      sload(0x7)\n        /* \"contracts/AnimalHelper_prc4.sol\":2031:2040  msg.value */\n      callvalue\n        /* \"contracts/AnimalHelper_prc4.sol\":2031:2054  msg.value == powerUpFee */\n      eq\n        /* \"contracts/AnimalHelper_prc4.sol\":2023:2055  require(msg.value == powerUpFee) */\n      iszero\n      iszero\n      tag_97\n      jumpi\n      0x0\n      dup1\n      revert\n    tag_97:\n        /* \"contracts/AnimalHelper_prc4.sol\":2160:2173  animalToOwner */\n      0x5\n        /* \"contracts/AnimalHelper_prc4.sol\":2160:2184  animalToOwner[_animalId] */\n      0x0\n        /* \"contracts/AnimalHelper_prc4.sol\":2174:2183  _animalId */\n      dup3\n        /* \"contracts/AnimalHelper_prc4.sol\":2160:2184  animalToOwner[_animalId] */\n      dup2\n      mstore\n      0x20\n      add\n      swap1\n      dup2\n      mstore\n      0x20\n      add\n      0x0\n      keccak256\n      0x0\n      swap1\n      sload\n      swap1\n      0x100\n      exp\n      swap1\n      div\n      0xffffffffffffffffffffffffffffffffffffffff\n      and\n        /* \"contracts/AnimalHelper_prc4.sol\":2146:2184  msg.sender == animalToOwner[_animalId] */\n      0xffffffffffffffffffffffffffffffffffffffff\n      and\n        /* \"contracts/AnimalHelper_prc4.sol\":2146:2156  msg.sender */\n      caller\n        /* \"contracts/AnimalHelper_prc4.sol\":2146:2184  msg.sender == animalToOwner[_animalId] */\n      0xffffffffffffffffffffffffffffffffffffffff\n      and\n      eq\n        /* \"contracts/AnimalHelper_prc4.sol\":2138:2185  require(msg.sender == animalToOwner[_animalId]) */\n      iszero\n      iszero\n      tag_98\n      jumpi\n      0x0\n      dup1\n      revert\n    tag_98:\n        /* \"contracts/AnimalHelper_prc4.sol\":2241:2248  animals */\n      0x4\n        /* \"contracts/AnimalHelper_prc4.sol\":2249:2258  _animalId */\n      dup2\n        /* \"contracts/AnimalHelper_prc4.sol\":2241:2259  animals[_animalId] */\n      dup2\n      sload\n      dup2\n      lt\n      iszero\n      iszero\n      tag_99\n      jumpi\n      invalid\n    tag_99:\n      swap1\n      0x0\n      mstore\n      keccak256(0x0, 0x20)\n      swap1\n      0x3\n      mul\n      add\n        /* \"contracts/AnimalHelper_prc4.sol\":2241:2265  animals[_animalId].level */\n      0x2\n      add\n      0x0\n        /* \"contracts/AnimalHelper_prc4.sol\":2241:2267  animals[_animalId].level++ */\n      dup2\n      dup2\n      swap1\n      sload\n      swap1\n      0x100\n      exp\n      swap1\n      div\n      0xffffffff\n      and\n      dup1\n      swap3\n      swap2\n      swap1\n      0x1\n      add\n      swap2\n      swap1\n      0x100\n      exp\n      dup2\n      sload\n      dup2\n      0xffffffff\n      mul\n      not\n      and\n      swap1\n      dup4\n      0xffffffff\n      and\n      mul\n      or\n      swap1\n      sstore\n      pop\n      pop\n        /* \"contracts/AnimalHelper_prc4.sol\":1878:2275  function powerUp(uint _animalId) external payable {\r... */\n      pop\n      jump\t// out\n        /* \"contracts/AnimalIncubators_prc3.sol\":1588:1885  function createRandomAnimal(string _name) public {\r... */\n    tag_47:\n        /* \"contracts/AnimalIncubators_prc3.sol\":1797:1809  uint randDna */\n      0x0\n        /* \"contracts/AnimalIncubators_prc3.sol\":1812:1837  _generateRandomDna(_name) */\n      tag_102\n        /* \"contracts/AnimalIncubators_prc3.sol\":1831:1836  _name */\n      dup3\n        /* \"contracts/AnimalIncubators_prc3.sol\":1812:1830  _generateRandomDna */\n      tag_103\n        /* \"contracts/AnimalIncubators_prc3.sol\":1812:1837  _generateRandomDna(_name) */\n      jump\t// in\n    tag_102:\n        /* \"contracts/AnimalIncubators_prc3.sol\":1797:1837  uint randDna = _generateRandomDna(_name) */\n      swap1\n      pop\n        /* \"contracts/AnimalIncubators_prc3.sol\":1848:1877  _createAnimal(_name, randDna) */\n      tag_104\n        /* \"contracts/AnimalIncubators_prc3.sol\":1862:1867  _name */\n      dup3\n        /* \"contracts/AnimalIncubators_prc3.sol\":1869:1876  randDna */\n      dup3\n        /* \"contracts/AnimalIncubators_prc3.sol\":1848:1861  _createAnimal */\n      tag_105\n        /* \"contracts/AnimalIncubators_prc3.sol\":1848:1877  _createAnimal(_name, randDna) */\n      jump\t// in\n    tag_104:\n        /* \"contracts/AnimalIncubators_prc3.sol\":1588:1885  function createRandomAnimal(string _name) public {\r... */\n      pop\n      pop\n      jump\t// out\n        /* \"contracts/AnimalIncubators_prc3.sol\":788:837  mapping (address => uint) public ownerAnimalCount */\n    tag_50:\n      mstore(0x20, 0x6)\n      dup1\n      0x0\n      mstore\n      keccak256(0x0, 0x40)\n      0x0\n      swap2\n      pop\n      swap1\n      pop\n      sload\n      dup2\n      jump\t// out\n        /* \"contracts/AnimalHelper_prc4.sol\":590:813  function changeName(uint _AnimalId, string _newName) \r... */\n    tag_53:\n        /* \"contracts/AnimalHelper_prc4.sol\":683:684  2 */\n      0x2\n        /* \"contracts/AnimalHelper_prc4.sol\":686:695  _AnimalId */\n      dup4\n        /* \"contracts/AnimalHelper_prc4.sol\":555:561  _level */\n      dup2\n        /* \"contracts/AnimalHelper_prc4.sol\":527:534  animals */\n      0x4\n        /* \"contracts/AnimalHelper_prc4.sol\":535:544  _animalId */\n      dup3\n        /* \"contracts/AnimalHelper_prc4.sol\":527:545  animals[_animalId] */\n      dup2\n      sload\n      dup2\n      lt\n      iszero\n      iszero\n      tag_107\n      jumpi\n      invalid\n    tag_107:\n      swap1\n      0x0\n      mstore\n      keccak256(0x0, 0x20)\n      swap1\n      0x3\n      mul\n      add\n        /* \"contracts/AnimalHelper_prc4.sol\":527:551  animals[_animalId].level */\n      0x2\n      add\n      0x0\n      swap1\n      sload\n      swap1\n      0x100\n      exp\n      swap1\n      div\n      0xffffffff\n      and\n        /* \"contracts/AnimalHelper_prc4.sol\":527:561  animals[_animalId].level >= _level */\n      0xffffffff\n      and\n      lt\n      iszero\n        /* \"contracts/AnimalHelper_prc4.sol\":519:562  require(animals[_animalId].level >= _level) */\n      iszero\n      iszero\n      tag_109\n      jumpi\n      0x0\n      dup1\n      revert\n    tag_109:\n        /* \"contracts/AnimalHelper_prc4.sol\":735:748  animalToOwner */\n      0x5\n        /* \"contracts/AnimalHelper_prc4.sol\":735:759  animalToOwner[_AnimalId] */\n      0x0\n        /* \"contracts/AnimalHelper_prc4.sol\":749:758  _AnimalId */\n      dup7\n        /* \"contracts/AnimalHelper_prc4.sol\":735:759  animalToOwner[_AnimalId] */\n      dup2\n      mstore\n      0x20\n      add\n      swap1\n      dup2\n      mstore\n      0x20\n      add\n      0x0\n      keccak256\n      0x0\n      swap1\n      sload\n      swap1\n      0x100\n      exp\n      swap1\n      div\n      0xffffffffffffffffffffffffffffffffffffffff\n      and\n        /* \"contracts/AnimalHelper_prc4.sol\":721:759  msg.sender == animalToOwner[_AnimalId] */\n      0xffffffffffffffffffffffffffffffffffffffff\n      and\n        /* \"contracts/AnimalHelper_prc4.sol\":721:731  msg.sender */\n      caller\n        /* \"contracts/AnimalHelper_prc4.sol\":721:759  msg.sender == animalToOwner[_AnimalId] */\n      0xffffffffffffffffffffffffffffffffffffffff\n      and\n      eq\n        /* \"contracts/AnimalHelper_prc4.sol\":713:760  require(msg.sender == animalToOwner[_AnimalId]) */\n      iszero\n      iszero\n      tag_111\n      jumpi\n      0x0\n      dup1\n      revert\n    tag_111:\n        /* \"contracts/AnimalHelper_prc4.sol\":797:805  _newName */\n      dup4\n      dup4\n        /* \"contracts/AnimalHelper_prc4.sol\":771:778  animals */\n      0x4\n        /* \"contracts/AnimalHelper_prc4.sol\":779:788  _AnimalId */\n      dup8\n        /* \"contracts/AnimalHelper_prc4.sol\":771:789  animals[_AnimalId] */\n      dup2\n      sload\n      dup2\n      lt\n      iszero\n      iszero\n      tag_112\n      jumpi\n      invalid\n    tag_112:\n      swap1\n      0x0\n      mstore\n      keccak256(0x0, 0x20)\n      swap1\n      0x3\n      mul\n      add\n        /* \"contracts/AnimalHelper_prc4.sol\":771:794  animals[_AnimalId].name */\n      0x0\n      add\n        /* \"contracts/AnimalHelper_prc4.sol\":771:805  animals[_AnimalId].name = _newName */\n      swap2\n      swap1\n      tag_114\n      swap3\n      swap2\n      swap1\n      jump\t// in(tag_115)\n    tag_114:\n      pop\n        /* \"contracts/AnimalHelper_prc4.sol\":590:813  function changeName(uint _AnimalId, string _newName) \r... */\n      pop\n      pop\n      pop\n      pop\n      pop\n      jump\t// out\n        /* \"contracts/AnimalIncubators_prc3.sol\":735:781  mapping (uint => address) public animalToOwner */\n    tag_56:\n      mstore(0x20, 0x5)\n      dup1\n      0x0\n      mstore\n      keccak256(0x0, 0x40)\n      0x0\n      swap2\n      pop\n      sload\n      swap1\n      0x100\n      exp\n      swap1\n      div\n      0xffffffffffffffffffffffffffffffffffffffff\n      and\n      dup2\n      jump\t// out\n        /* \"contracts/ownable.sol\":470:725  function transferOwnership(address newOwner) public onlyOwner {\r... */\n    tag_59:\n        /* \"contracts/ownable.sol\":406:411  owner */\n      0x0\n      dup1\n      swap1\n      sload\n      swap1\n      0x100\n      exp\n      swap1\n      div\n      0xffffffffffffffffffffffffffffffffffffffff\n      and\n        /* \"contracts/ownable.sol\":392:411  msg.sender == owner */\n      0xffffffffffffffffffffffffffffffffffffffff\n      and\n        /* \"contracts/ownable.sol\":392:402  msg.sender */\n      caller\n        /* \"contracts/ownable.sol\":392:411  msg.sender == owner */\n      0xffffffffffffffffffffffffffffffffffffffff\n      and\n      eq\n        /* \"contracts/ownable.sol\":384:412  require(msg.sender == owner) */\n      iszero\n      iszero\n      tag_117\n      jumpi\n      0x0\n      dup1\n      revert\n    tag_117:\n        /* \"contracts/ownable.sol\":571:572  0 */\n      0x0\n        /* \"contracts/ownable.sol\":551:573  newOwner != address(0) */\n      0xffffffffffffffffffffffffffffffffffffffff\n      and\n        /* \"contracts/ownable.sol\":551:559  newOwner */\n      dup2\n        /* \"contracts/ownable.sol\":551:573  newOwner != address(0) */\n      0xffffffffffffffffffffffffffffffffffffffff\n      and\n      eq\n      iszero\n        /* \"contracts/ownable.sol\":543:574  require(newOwner != address(0)) */\n      iszero\n      iszero\n      tag_119\n      jumpi\n      0x0\n      dup1\n      revert\n    tag_119:\n        /* \"contracts/ownable.sol\":670:678  newOwner */\n      dup1\n        /* \"contracts/ownable.sol\":642:679  OwnershipTransferred(owner, newOwner) */\n      0xffffffffffffffffffffffffffffffffffffffff\n      and\n        /* \"contracts/ownable.sol\":663:668  owner */\n      0x0\n      dup1\n      swap1\n      sload\n      swap1\n      0x100\n      exp\n      swap1\n      div\n      0xffffffffffffffffffffffffffffffffffffffff\n      and\n        /* \"contracts/ownable.sol\":642:679  OwnershipTransferred(owner, newOwner) */\n      0xffffffffffffffffffffffffffffffffffffffff\n      and\n      0x8be0079c531659141344cd1fd0a4f28419497f9722a3daafe3b4186f6b6457e0\n      mload(0x40)\n      mload(0x40)\n      dup1\n      swap2\n      sub\n      swap1\n      log3\n        /* \"contracts/ownable.sol\":709:717  newOwner */\n      dup1\n        /* \"contracts/ownable.sol\":701:706  owner */\n      0x0\n      dup1\n        /* \"contracts/ownable.sol\":701:717  owner = newOwner */\n      0x100\n      exp\n      dup2\n      sload\n      dup2\n      0xffffffffffffffffffffffffffffffffffffffff\n      mul\n      not\n      and\n      swap1\n      dup4\n      0xffffffffffffffffffffffffffffffffffffffff\n      and\n      mul\n      or\n      swap1\n      sstore\n      pop\n        /* \"contracts/ownable.sol\":470:725  function transferOwnership(address newOwner) public onlyOwner {\r... */\n      pop\n      jump\t// out\n        /* \"contracts/AnimalHelper_prc4.sol\":1728:1764  uint public powerUpFee = 0.001 ether */\n    tag_62:\n      sload(0x7)\n      dup2\n      jump\t// out\n        /* \"contracts/AnimalFeeding_prc3.sol\":273:409  function _catchFood(uint _name) internal pure returns (uint) {\r... */\n    tag_69:\n        /* \"contracts/AnimalFeeding_prc3.sol\":328:332  uint */\n      0x0\n        /* \"contracts/AnimalFeeding_prc3.sol\":345:354  uint rand */\n      dup1\n        /* \"contracts/AnimalFeeding_prc3.sol\":372:377  _name */\n      dup3\n        /* \"contracts/AnimalFeeding_prc3.sol\":362:378  keccak256(_name) */\n      mload(0x40)\n      dup1\n      dup3\n      dup2\n      mstore\n      0x20\n      add\n      swap2\n      pop\n      pop\n      mload(0x40)\n      dup1\n      swap2\n      sub\n      swap1\n      keccak256\n        /* \"contracts/AnimalFeeding_prc3.sol\":357:379  uint(keccak256(_name)) */\n      0x1\n      swap1\n      div\n        /* \"contracts/AnimalFeeding_prc3.sol\":345:379  uint rand = uint(keccak256(_name)) */\n      swap1\n      pop\n        /* \"contracts/AnimalFeeding_prc3.sol\":397:401  rand */\n      dup1\n        /* \"contracts/AnimalFeeding_prc3.sol\":390:401  return rand */\n      swap2\n      pop\n        /* \"contracts/AnimalFeeding_prc3.sol\":273:409  function _catchFood(uint _name) internal pure returns (uint) {\r... */\n      pop\n      swap2\n      swap1\n      pop\n      jump\t// out\n        /* \"contracts/AnimalFeeding_prc3.sol\":513:1199  function feedAndGrow(uint _AnimalId, uint _targetDna) internal {\r... */\n    tag_71:\n        /* \"contracts/AnimalFeeding_prc3.sol\":647:670  Animal storage myAnimal */\n      0x0\n        /* \"contracts/AnimalFeeding_prc3.sol\":862:874  uint foodDna */\n      dup1\n        /* \"contracts/AnimalFeeding_prc3.sol\":910:921  uint newDna */\n      0x0\n        /* \"contracts/AnimalFeeding_prc3.sol\":611:624  animalToOwner */\n      0x5\n        /* \"contracts/AnimalFeeding_prc3.sol\":611:635  animalToOwner[_AnimalId] */\n      0x0\n        /* \"contracts/AnimalFeeding_prc3.sol\":625:634  _AnimalId */\n      dup7\n        /* \"contracts/AnimalFeeding_prc3.sol\":611:635  animalToOwner[_AnimalId] */\n      dup2\n      mstore\n      0x20\n      add\n      swap1\n      dup2\n      mstore\n      0x20\n      add\n      0x0\n      keccak256\n      0x0\n      swap1\n      sload\n      swap1\n      0x100\n      exp\n      swap1\n      div\n      0xffffffffffffffffffffffffffffffffffffffff\n      and\n        /* \"contracts/AnimalFeeding_prc3.sol\":597:635  msg.sender == animalToOwner[_AnimalId] */\n      0xffffffffffffffffffffffffffffffffffffffff\n      and\n        /* \"contracts/AnimalFeeding_prc3.sol\":597:607  msg.sender */\n      caller\n        /* \"contracts/AnimalFeeding_prc3.sol\":597:635  msg.sender == animalToOwner[_AnimalId] */\n      0xffffffffffffffffffffffffffffffffffffffff\n      and\n      eq\n        /* \"contracts/AnimalFeeding_prc3.sol\":589:636  require(msg.sender == animalToOwner[_AnimalId]) */\n      iszero\n      iszero\n      tag_122\n      jumpi\n      0x0\n      dup1\n      revert\n    tag_122:\n        /* \"contracts/AnimalFeeding_prc3.sol\":673:680  animals */\n      0x4\n        /* \"contracts/AnimalFeeding_prc3.sol\":681:690  _AnimalId */\n      dup6\n        /* \"contracts/AnimalFeeding_prc3.sol\":673:691  animals[_AnimalId] */\n      dup2\n      sload\n      dup2\n      lt\n      iszero\n      iszero\n      tag_123\n      jumpi\n      invalid\n    tag_123:\n      swap1\n      0x0\n      mstore\n      keccak256(0x0, 0x20)\n      swap1\n      0x3\n      mul\n      add\n        /* \"contracts/AnimalFeeding_prc3.sol\":647:691  Animal storage myAnimal = animals[_AnimalId] */\n      swap3\n      pop\n        /* \"contracts/AnimalFeeding_prc3.sol\":830:838  myAnimal */\n      dup3\n        /* \"contracts/AnimalFeeding_prc3.sol\":830:848  myAnimal.readyTime */\n      0x2\n      add\n      0x4\n      swap1\n      sload\n      swap1\n      0x100\n      exp\n      swap1\n      div\n      0xffffffff\n      and\n        /* \"contracts/AnimalFeeding_prc3.sol\":823:848  now >= myAnimal.readyTime */\n      0xffffffff\n      and\n        /* \"contracts/AnimalFeeding_prc3.sol\":823:826  now */\n      timestamp\n        /* \"contracts/AnimalFeeding_prc3.sol\":823:848  now >= myAnimal.readyTime */\n      lt\n      iszero\n        /* \"contracts/AnimalFeeding_prc3.sol\":815:849  require(now >= myAnimal.readyTime) */\n      iszero\n      iszero\n      tag_125\n      jumpi\n      0x0\n      dup1\n      revert\n    tag_125:\n        /* \"contracts/AnimalFeeding_prc3.sol\":890:899  dnaLength */\n      sload(0x2)\n        /* \"contracts/AnimalFeeding_prc3.sol\":877:887  _targetDna */\n      dup5\n        /* \"contracts/AnimalFeeding_prc3.sol\":877:899  _targetDna % dnaLength */\n      dup2\n      iszero\n      iszero\n      tag_126\n      jumpi\n      invalid\n    tag_126:\n      mod\n        /* \"contracts/AnimalFeeding_prc3.sol\":862:899  uint foodDna = _targetDna % dnaLength */\n      swap2\n      pop\n        /* \"contracts/AnimalFeeding_prc3.sol\":951:952  2 */\n      0x2\n        /* \"contracts/AnimalFeeding_prc3.sol\":940:947  foodDna */\n      dup3\n        /* \"contracts/AnimalFeeding_prc3.sol\":925:933  myAnimal */\n      dup5\n        /* \"contracts/AnimalFeeding_prc3.sol\":925:937  myAnimal.dna */\n      0x1\n      add\n      sload\n        /* \"contracts/AnimalFeeding_prc3.sol\":925:947  myAnimal.dna + foodDna */\n      add\n        /* \"contracts/AnimalFeeding_prc3.sol\":924:952  (myAnimal.dna + foodDna) / 2 */\n      dup2\n      iszero\n      iszero\n      tag_127\n      jumpi\n      invalid\n    tag_127:\n      div\n        /* \"contracts/AnimalFeeding_prc3.sol\":910:952  uint newDna = (myAnimal.dna + foodDna) / 2 */\n      swap1\n      pop\n        /* \"contracts/AnimalFeeding_prc3.sol\":995:997  99 */\n      0x63\n        /* \"contracts/AnimalFeeding_prc3.sol\":989:992  100 */\n      0x64\n        /* \"contracts/AnimalFeeding_prc3.sol\":982:985  100 */\n      dup1\n        /* \"contracts/AnimalFeeding_prc3.sol\":973:979  newDna */\n      dup4\n        /* \"contracts/AnimalFeeding_prc3.sol\":973:985  newDna / 100 */\n      dup2\n      iszero\n      iszero\n      tag_128\n      jumpi\n      invalid\n    tag_128:\n      div\n        /* \"contracts/AnimalFeeding_prc3.sol\":972:992  (newDna / 100) * 100 */\n      mul\n        /* \"contracts/AnimalFeeding_prc3.sol\":972:997  (newDna / 100) * 100 + 99 */\n      add\n        /* \"contracts/AnimalFeeding_prc3.sol\":963:997  newDna = (newDna / 100) * 100 + 99 */\n      swap1\n      pop\n        /* \"contracts/AnimalFeeding_prc3.sol\":1134:1146  cooldownTime */\n      sload(0x3)\n        /* \"contracts/AnimalFeeding_prc3.sol\":1128:1131  now */\n      timestamp\n        /* \"contracts/AnimalFeeding_prc3.sol\":1128:1146  now + cooldownTime */\n      add\n        /* \"contracts/AnimalFeeding_prc3.sol\":1100:1108  myAnimal */\n      dup4\n        /* \"contracts/AnimalFeeding_prc3.sol\":1100:1118  myAnimal.readyTime */\n      0x2\n      add\n      0x4\n        /* \"contracts/AnimalFeeding_prc3.sol\":1100:1147  myAnimal.readyTime = uint32(now + cooldownTime) */\n      0x100\n      exp\n      dup2\n      sload\n      dup2\n      0xffffffff\n      mul\n      not\n      and\n      swap1\n      dup4\n      0xffffffff\n      and\n      mul\n      or\n      swap1\n      sstore\n      pop\n        /* \"contracts/AnimalFeeding_prc3.sol\":1160:1191  _createAnimal(\"No-one\", newDna) */\n      tag_129\n      0x40\n      dup1\n      mload\n      swap1\n      dup2\n      add\n      0x40\n      mstore\n      dup1\n      0x6\n      dup2\n      mstore\n      0x20\n      add\n      0x4e6f2d6f6e650000000000000000000000000000000000000000000000000000\n      dup2\n      mstore\n      pop\n        /* \"contracts/AnimalFeeding_prc3.sol\":1184:1190  newDna */\n      dup3\n        /* \"contracts/AnimalFeeding_prc3.sol\":1160:1173  _createAnimal */\n      tag_105\n        /* \"contracts/AnimalFeeding_prc3.sol\":1160:1191  _createAnimal(\"No-one\", newDna) */\n      jump\t// in\n    tag_129:\n        /* \"contracts/AnimalFeeding_prc3.sol\":513:1199  function feedAndGrow(uint _AnimalId, uint _targetDna) internal {\r... */\n      pop\n      pop\n      pop\n      pop\n      pop\n      jump\t// out\n        /* \"contracts/AnimalIncubators_prc3.sol\":1425:1580  function _generateRandomDna(string _str) private view returns (uint) {\r... */\n    tag_103:\n        /* \"contracts/AnimalIncubators_prc3.sol\":1488:1492  uint */\n      0x0\n        /* \"contracts/AnimalIncubators_prc3.sol\":1505:1514  uint rand */\n      dup1\n        /* \"contracts/AnimalIncubators_prc3.sol\":1532:1536  _str */\n      dup3\n        /* \"contracts/AnimalIncubators_prc3.sol\":1522:1537  keccak256(_str) */\n      mload(0x40)\n      dup1\n      dup3\n      dup1\n      mload\n      swap1\n      0x20\n      add\n      swap1\n      dup1\n      dup4\n      dup4\n        /* \"--CODEGEN--\":36:189   */\n    tag_131:\n        /* \"--CODEGEN--\":66:68   */\n      0x20\n        /* \"--CODEGEN--\":61:64   */\n      dup4\n        /* \"--CODEGEN--\":58:60   */\n      lt\n        /* \"--CODEGEN--\":51:57   */\n      iszero\n        /* \"--CODEGEN--\":36:189   */\n      iszero\n      tag_132\n      jumpi\n        /* \"--CODEGEN--\":182:185   */\n      dup1\n        /* \"--CODEGEN--\":176:181   */\n      mload\n        /* \"--CODEGEN--\":171:174   */\n      dup3\n        /* \"--CODEGEN--\":164:170   */\n      mstore\n        /* \"--CODEGEN--\":98:100   */\n      0x20\n        /* \"--CODEGEN--\":93:96   */\n      dup3\n        /* \"--CODEGEN--\":89:92   */\n      add\n        /* \"--CODEGEN--\":82:101   */\n      swap2\n      pop\n        /* \"--CODEGEN--\":123:125   */\n      0x20\n        /* \"--CODEGEN--\":118:121   */\n      dup2\n        /* \"--CODEGEN--\":114:117   */\n      add\n        /* \"--CODEGEN--\":107:126   */\n      swap1\n      pop\n        /* \"--CODEGEN--\":148:150   */\n      0x20\n        /* \"--CODEGEN--\":143:146   */\n      dup4\n        /* \"--CODEGEN--\":139:142   */\n      sub\n        /* \"--CODEGEN--\":132:151   */\n      swap3\n      pop\n        /* \"--CODEGEN--\":36:189   */\n      jump(tag_131)\n    tag_132:\n        /* \"--CODEGEN--\":274:275   */\n      0x1\n        /* \"--CODEGEN--\":267:270   */\n      dup4\n        /* \"--CODEGEN--\":263:265   */\n      0x20\n        /* \"--CODEGEN--\":259:262   */\n      sub\n        /* \"--CODEGEN--\":254:257   */\n      0x100\n        /* \"--CODEGEN--\":250:253   */\n      exp\n        /* \"--CODEGEN--\":246:249   */\n      sub\n        /* \"--CODEGEN--\":315:319   */\n      dup1\n        /* \"--CODEGEN--\":311:314   */\n      not\n        /* \"--CODEGEN--\":305:308   */\n      dup3\n        /* \"--CODEGEN--\":299:304   */\n      mload\n        /* \"--CODEGEN--\":295:298   */\n      and\n        /* \"--CODEGEN--\":356:360   */\n      dup2\n        /* \"--CODEGEN--\":350:353   */\n      dup5\n        /* \"--CODEGEN--\":344:349   */\n      mload\n        /* \"--CODEGEN--\":340:343   */\n      and\n        /* \"--CODEGEN--\":389:396   */\n      dup1\n        /* \"--CODEGEN--\":380:387   */\n      dup3\n        /* \"--CODEGEN--\":377:379   */\n      or\n        /* \"--CODEGEN--\":372:375   */\n      dup6\n        /* \"--CODEGEN--\":365:371   */\n      mstore\n        /* \"--CODEGEN--\":3:402   */\n      pop\n      pop\n      pop\n      pop\n      pop\n      pop\n      swap1\n      pop\n      add\n      swap2\n      pop\n      pop\n      mload(0x40)\n      dup1\n      swap2\n      sub\n      swap1\n      keccak256\n        /* \"contracts/AnimalIncubators_prc3.sol\":1517:1538  uint(keccak256(_str)) */\n      0x1\n      swap1\n      div\n        /* \"contracts/AnimalIncubators_prc3.sol\":1505:1538  uint rand = uint(keccak256(_str)) */\n      swap1\n      pop\n        /* \"contracts/AnimalIncubators_prc3.sol\":1563:1572  dnaLength */\n      sload(0x2)\n        /* \"contracts/AnimalIncubators_prc3.sol\":1556:1560  rand */\n      dup2\n        /* \"contracts/AnimalIncubators_prc3.sol\":1556:1572  rand % dnaLength */\n      dup2\n      iszero\n      iszero\n      tag_134\n      jumpi\n      invalid\n    tag_134:\n      mod\n        /* \"contracts/AnimalIncubators_prc3.sol\":1549:1572  return rand % dnaLength */\n      swap2\n      pop\n        /* \"contracts/AnimalIncubators_prc3.sol\":1425:1580  function _generateRandomDna(string _str) private view returns (uint) {\r... */\n      pop\n      swap2\n      swap1\n      pop\n      jump\t// out\n        /* \"contracts/AnimalIncubators_prc3.sol\":896:1417  function _createAnimal(string _name, uint _dna) internal {\r... */\n    tag_105:\n        /* \"contracts/AnimalIncubators_prc3.sol\":1167:1179  uint32 ready */\n      0x0\n        /* \"contracts/AnimalIncubators_prc3.sol\":1229:1236  uint id */\n      dup1\n        /* \"contracts/AnimalIncubators_prc3.sol\":1195:1207  cooldownTime */\n      sload(0x3)\n        /* \"contracts/AnimalIncubators_prc3.sol\":1189:1192  now */\n      timestamp\n        /* \"contracts/AnimalIncubators_prc3.sol\":1189:1207  now + cooldownTime */\n      add\n        /* \"contracts/AnimalIncubators_prc3.sol\":1167:1208  uint32 ready = uint32(now + cooldownTime) */\n      swap2\n      pop\n        /* \"contracts/AnimalIncubators_prc3.sol\":1285:1286  1 */\n      0x1\n        /* \"contracts/AnimalIncubators_prc3.sol\":1239:1246  animals */\n      0x4\n        /* \"contracts/AnimalIncubators_prc3.sol\":1239:1282  animals.push(Animal(_name, _dna, 0, ready)) */\n      dup1\n      sload\n      dup1\n      0x1\n      add\n      dup3\n      dup2\n      tag_136\n      swap2\n      swap1\n      jump\t// in(tag_137)\n    tag_136:\n      swap2\n      0x0\n      mstore\n      keccak256(0x0, 0x20)\n      swap1\n      0x3\n      mul\n      add\n      0x0\n        /* \"contracts/AnimalIncubators_prc3.sol\":1252:1281  Animal(_name, _dna, 0, ready) */\n      0x80\n      mload(0x40)\n      swap1\n      dup2\n      add\n      0x40\n      mstore\n      dup1\n        /* \"contracts/AnimalIncubators_prc3.sol\":1259:1264  _name */\n      dup10\n        /* \"contracts/AnimalIncubators_prc3.sol\":1252:1281  Animal(_name, _dna, 0, ready) */\n      dup2\n      mstore\n      0x20\n      add\n        /* \"contracts/AnimalIncubators_prc3.sol\":1266:1270  _dna */\n      dup9\n        /* \"contracts/AnimalIncubators_prc3.sol\":1252:1281  Animal(_name, _dna, 0, ready) */\n      dup2\n      mstore\n      0x20\n      add\n        /* \"contracts/AnimalIncubators_prc3.sol\":1272:1273  0 */\n      0x0\n        /* \"contracts/AnimalIncubators_prc3.sol\":1252:1281  Animal(_name, _dna, 0, ready) */\n      0xffffffff\n      and\n      dup2\n      mstore\n      0x20\n      add\n        /* \"contracts/AnimalIncubators_prc3.sol\":1275:1280  ready */\n      dup8\n        /* \"contracts/AnimalIncubators_prc3.sol\":1252:1281  Animal(_name, _dna, 0, ready) */\n      0xffffffff\n      and\n      dup2\n      mstore\n      pop\n        /* \"contracts/AnimalIncubators_prc3.sol\":1239:1282  animals.push(Animal(_name, _dna, 0, ready)) */\n      swap1\n      swap2\n      swap1\n      swap2\n      pop\n      0x0\n      dup3\n      add\n      mload\n      dup2\n      0x0\n      add\n      swap1\n      dup1\n      mload\n      swap1\n      0x20\n      add\n      swap1\n      tag_139\n      swap3\n      swap2\n      swap1\n      jump\t// in(tag_140)\n    tag_139:\n      pop\n      0x20\n      dup3\n      add\n      mload\n      dup2\n      0x1\n      add\n      sstore\n      0x40\n      dup3\n      add\n      mload\n      dup2\n      0x2\n      add\n      exp(0x100, 0x0)\n      dup2\n      sload\n      dup2\n      0xffffffff\n      mul\n      not\n      and\n      swap1\n      dup4\n      0xffffffff\n      and\n      mul\n      or\n      swap1\n      sstore\n      pop\n      0x60\n      dup3\n      add\n      mload\n      dup2\n      0x2\n      add\n      exp(0x100, 0x4)\n      dup2\n      sload\n      dup2\n      0xffffffff\n      mul\n      not\n      and\n      swap1\n      dup4\n      0xffffffff\n      and\n      mul\n      or\n      swap1\n      sstore\n      pop\n      pop\n      pop\n        /* \"contracts/AnimalIncubators_prc3.sol\":1239:1286  animals.push(Animal(_name, _dna, 0, ready)) - 1 */\n      sub\n        /* \"contracts/AnimalIncubators_prc3.sol\":1229:1286  uint id = animals.push(Animal(_name, _dna, 0, ready)) - 1 */\n      swap1\n      pop\n        /* \"contracts/AnimalIncubators_prc3.sol\":1319:1329  msg.sender */\n      caller\n        /* \"contracts/AnimalIncubators_prc3.sol\":1299:1312  animalToOwner */\n      0x5\n        /* \"contracts/AnimalIncubators_prc3.sol\":1299:1316  animalToOwner[id] */\n      0x0\n        /* \"contracts/AnimalIncubators_prc3.sol\":1313:1315  id */\n      dup4\n        /* \"contracts/AnimalIncubators_prc3.sol\":1299:1316  animalToOwner[id] */\n      dup2\n      mstore\n      0x20\n      add\n      swap1\n      dup2\n      mstore\n      0x20\n      add\n      0x0\n      keccak256\n      0x0\n        /* \"contracts/AnimalIncubators_prc3.sol\":1299:1329  animalToOwner[id] = msg.sender */\n      0x100\n      exp\n      dup2\n      sload\n      dup2\n      0xffffffffffffffffffffffffffffffffffffffff\n      mul\n      not\n      and\n      swap1\n      dup4\n      0xffffffffffffffffffffffffffffffffffffffff\n      and\n      mul\n      or\n      swap1\n      sstore\n      pop\n        /* \"contracts/AnimalIncubators_prc3.sol\":1340:1356  ownerAnimalCount */\n      0x6\n        /* \"contracts/AnimalIncubators_prc3.sol\":1340:1368  ownerAnimalCount[msg.sender] */\n      0x0\n        /* \"contracts/AnimalIncubators_prc3.sol\":1357:1367  msg.sender */\n      caller\n        /* \"contracts/AnimalIncubators_prc3.sol\":1340:1368  ownerAnimalCount[msg.sender] */\n      0xffffffffffffffffffffffffffffffffffffffff\n      and\n      0xffffffffffffffffffffffffffffffffffffffff\n      and\n      dup2\n      mstore\n      0x20\n      add\n      swap1\n      dup2\n      mstore\n      0x20\n      add\n      0x0\n      keccak256\n      0x0\n        /* \"contracts/AnimalIncubators_prc3.sol\":1340:1370  ownerAnimalCount[msg.sender]++ */\n      dup2\n      sload\n      dup1\n      swap3\n      swap2\n      swap1\n      0x1\n      add\n      swap2\n      swap1\n      pop\n      sstore\n      pop\n        /* \"contracts/AnimalIncubators_prc3.sol\":1383:1409  NewAnimal(id, _name, _dna) */\n      0x7be46eb2dba0b4dd932cd8c8cf7a4471478b8e52413bb8e9e88580596866431\n        /* \"contracts/AnimalIncubators_prc3.sol\":1393:1395  id */\n      dup2\n        /* \"contracts/AnimalIncubators_prc3.sol\":1397:1402  _name */\n      dup6\n        /* \"contracts/AnimalIncubators_prc3.sol\":1404:1408  _dna */\n      dup6\n        /* \"contracts/AnimalIncubators_prc3.sol\":1383:1409  NewAnimal(id, _name, _dna) */\n      mload(0x40)\n      dup1\n      dup5\n      dup2\n      mstore\n      0x20\n      add\n      dup1\n      0x20\n      add\n      dup4\n      dup2\n      mstore\n      0x20\n      add\n      dup3\n      dup2\n      sub\n      dup3\n      mstore\n      dup5\n      dup2\n      dup2\n      mload\n      dup2\n      mstore\n      0x20\n      add\n      swap2\n      pop\n      dup1\n      mload\n      swap1\n      0x20\n      add\n      swap1\n      dup1\n      dup4\n      dup4\n        /* \"--CODEGEN--\":23:24   */\n      0x0\n        /* \"--CODEGEN--\":8:108   */\n    tag_141:\n        /* \"--CODEGEN--\":33:36   */\n      dup4\n        /* \"--CODEGEN--\":30:31   */\n      dup2\n        /* \"--CODEGEN--\":27:29   */\n      lt\n        /* \"--CODEGEN--\":8:108   */\n      iszero\n      tag_142\n      jumpi\n        /* \"--CODEGEN--\":99:100   */\n      dup1\n        /* \"--CODEGEN--\":94:97   */\n      dup3\n        /* \"--CODEGEN--\":90:93   */\n      add\n        /* \"--CODEGEN--\":84:89   */\n      mload\n        /* \"--CODEGEN--\":80:81   */\n      dup2\n        /* \"--CODEGEN--\":75:78   */\n      dup5\n        /* \"--CODEGEN--\":71:74   */\n      add\n        /* \"--CODEGEN--\":64:70   */\n      mstore\n        /* \"--CODEGEN--\":52:54   */\n      0x20\n        /* \"--CODEGEN--\":49:50   */\n      dup2\n        /* \"--CODEGEN--\":45:48   */\n      add\n        /* \"--CODEGEN--\":40:55   */\n      swap1\n      pop\n        /* \"--CODEGEN--\":8:108   */\n      jump(tag_141)\n    tag_142:\n        /* \"--CODEGEN--\":12:26   */\n      pop\n        /* \"--CODEGEN--\":3:112   */\n      pop\n      pop\n      pop\n      swap1\n      pop\n      swap1\n      dup2\n      add\n      swap1\n      0x1f\n      and\n      dup1\n      iszero\n      tag_144\n      jumpi\n      dup1\n      dup3\n      sub\n      dup1\n      mload\n      0x1\n      dup4\n      0x20\n      sub\n      0x100\n      exp\n      sub\n      not\n      and\n      dup2\n      mstore\n      0x20\n      add\n      swap2\n      pop\n    tag_144:\n      pop\n      swap5\n      pop\n      pop\n      pop\n      pop\n      pop\n      mload(0x40)\n      dup1\n      swap2\n      sub\n      swap1\n      log1\n        /* \"contracts/AnimalIncubators_prc3.sol\":896:1417  function _createAnimal(string _name, uint _dna) internal {\r... */\n      pop\n      pop\n      pop\n      pop\n      jump\t// out\n        /* \"contracts/AnimalHelper_prc4.sol\":317:2938  contract AnimalHelper is AnimalFeeding {\r... */\n    tag_81:\n      0x20\n      mload(0x40)\n      swap1\n      dup2\n      add\n      0x40\n      mstore\n      dup1\n      0x0\n      dup2\n      mstore\n      pop\n      swap1\n      jump\t// out\n    tag_115:\n      dup3\n      dup1\n      sload\n      0x1\n      dup2\n      0x1\n      and\n      iszero\n      0x100\n      mul\n      sub\n      and\n      0x2\n      swap1\n      div\n      swap1\n      0x0\n      mstore\n      keccak256(0x0, 0x20)\n      swap1\n      0x1f\n      add\n      0x20\n      swap1\n      div\n      dup2\n      add\n      swap3\n      dup3\n      0x1f\n      lt\n      tag_146\n      jumpi\n      dup1\n      calldataload\n      not(0xff)\n      and\n      dup4\n      dup1\n      add\n      or\n      dup6\n      sstore\n      jump(tag_145)\n    tag_146:\n      dup3\n      dup1\n      add\n      0x1\n      add\n      dup6\n      sstore\n      dup3\n      iszero\n      tag_145\n      jumpi\n      swap2\n      dup3\n      add\n    tag_147:\n      dup3\n      dup2\n      gt\n      iszero\n      tag_148\n      jumpi\n      dup3\n      calldataload\n      dup3\n      sstore\n      swap2\n      0x20\n      add\n      swap2\n      swap1\n      0x1\n      add\n      swap1\n      jump(tag_147)\n    tag_148:\n    tag_145:\n      pop\n      swap1\n      pop\n      tag_149\n      swap2\n      swap1\n      jump\t// in(tag_150)\n    tag_149:\n      pop\n      swap1\n      jump\t// out\n    tag_137:\n      dup2\n      sload\n      dup2\n      dup4\n      sstore\n      dup2\n      dup2\n      iszero\n      gt\n      tag_151\n      jumpi\n      0x3\n      mul\n      dup2\n      0x3\n      mul\n      dup4\n      0x0\n      mstore\n      keccak256(0x0, 0x20)\n      swap2\n      dup3\n      add\n      swap2\n      add\n      tag_152\n      swap2\n      swap1\n      jump\t// in(tag_153)\n    tag_152:\n    tag_151:\n      pop\n      pop\n      pop\n      jump\t// out\n    tag_140:\n      dup3\n      dup1\n      sload\n      0x1\n      dup2\n      0x1\n      and\n      iszero\n      0x100\n      mul\n      sub\n      and\n      0x2\n      swap1\n      div\n      swap1\n      0x0\n      mstore\n      keccak256(0x0, 0x20)\n      swap1\n      0x1f\n      add\n      0x20\n      swap1\n      div\n      dup2\n      add\n      swap3\n      dup3\n      0x1f\n      lt\n      tag_155\n      jumpi\n      dup1\n      mload\n      not(0xff)\n      and\n      dup4\n      dup1\n      add\n      or\n      dup6\n      sstore\n      jump(tag_154)\n    tag_155:\n      dup3\n      dup1\n      add\n      0x1\n      add\n      dup6\n      sstore\n      dup3\n      iszero\n      tag_154\n      jumpi\n      swap2\n      dup3\n      add\n    tag_156:\n      dup3\n      dup2\n      gt\n      iszero\n      tag_157\n      jumpi\n      dup3\n      mload\n      dup3\n      sstore\n      swap2\n      0x20\n      add\n      swap2\n      swap1\n      0x1\n      add\n      swap1\n      jump(tag_156)\n    tag_157:\n    tag_154:\n      pop\n      swap1\n      pop\n      tag_158\n      swap2\n      swap1\n      jump\t// in(tag_150)\n    tag_158:\n      pop\n      swap1\n      jump\t// out\n    tag_150:\n      tag_159\n      swap2\n      swap1\n    tag_160:\n      dup1\n      dup3\n      gt\n      iszero\n      tag_161\n      jumpi\n      0x0\n      dup2\n      0x0\n      swap1\n      sstore\n      pop\n      0x1\n      add\n      jump(tag_160)\n    tag_161:\n      pop\n      swap1\n      jump\n    tag_159:\n      swap1\n      jump\t// out\n    tag_153:\n      tag_162\n      swap2\n      swap1\n    tag_163:\n      dup1\n      dup3\n      gt\n      iszero\n      tag_164\n      jumpi\n      0x0\n      dup1\n      dup3\n      add\n      0x0\n      tag_165\n      swap2\n      swap1\n      jump\t// in(tag_166)\n    tag_165:\n      0x1\n      dup3\n      add\n      0x0\n      swap1\n      sstore\n      0x2\n      dup3\n      add\n      exp(0x100, 0x0)\n      dup2\n      sload\n      swap1\n      0xffffffff\n      mul\n      not\n      and\n      swap1\n      sstore\n      0x2\n      dup3\n      add\n      exp(0x100, 0x4)\n      dup2\n      sload\n      swap1\n      0xffffffff\n      mul\n      not\n      and\n      swap1\n      sstore\n      pop\n      0x3\n      add\n      jump(tag_163)\n    tag_164:\n      pop\n      swap1\n      jump\n    tag_162:\n      swap1\n      jump\t// out\n    tag_166:\n      pop\n      dup1\n      sload\n      0x1\n      dup2\n      0x1\n      and\n      iszero\n      0x100\n      mul\n      sub\n      and\n      0x2\n      swap1\n      div\n      0x0\n      dup3\n      sstore\n      dup1\n      0x1f\n      lt\n      tag_168\n      jumpi\n      pop\n      jump(tag_167)\n    tag_168:\n      0x1f\n      add\n      0x20\n      swap1\n      div\n      swap1\n      0x0\n      mstore\n      keccak256(0x0, 0x20)\n      swap1\n      dup2\n      add\n      swap1\n      tag_169\n      swap2\n      swap1\n      jump\t// in(tag_150)\n    tag_169:\n    tag_167:\n      pop\n      jump\t// out\n\n    auxdata: 0xa165627a7a723058206422119c28b5d4dba0ade0c8326b054c281e02b30bb3845e0db694d219d1a0ff0029\n}\n",
				"bytecode": {
					"linkReferences": {},
					"object": "60606040526010600155600154600a0a600255603c60035566038d7ea4c68000600755336000806101000a81548173ffffffffffffffffffffffffffffffffffffffff021916908373ffffffffffffffffffffffffffffffffffffffff1602179055506112d8806100716000396000f3006060604052600436106100d0576000357c0100000000000000000000000000000000000000000000000000000000900463ffffffff1680633ccfd60b146100d55780635c8f191d146100ea5780635faf2880146101165780636485be27146101425780638da5cb5b146101d057806390b0722e14610225578063998dd3ca146102485780639a6bd3791461032e5780639abfb23e14610346578063a936b8c9146103a3578063c39cbef1146103f0578063d81c513a14610427578063f2fde38b1461048a578063f715ea68146104c3575b600080fd5b34156100e057600080fd5b6100e86104ec565b005b34156100f557600080fd5b61011460048080359060200190919080359060200190919050506105c1565b005b341561012157600080fd5b61014060048080359060200190919080359060200190919050506105dd565b005b341561014d57600080fd5b610179600480803573ffffffffffffffffffffffffffffffffffffffff169060200190919050506106bd565b6040518080602001828103825283818151815260200191508051906020019060200280838360005b838110156101bc5780820151818401526020810190506101a1565b505050509050019250505060405180910390f35b34156101db57600080fd5b6101e36107eb565b604051808273ffffffffffffffffffffffffffffffffffffffff1673ffffffffffffffffffffffffffffffffffffffff16815260200191505060405180910390f35b341561023057600080fd5b6102466004808035906020019091905050610810565b005b341561025357600080fd5b6102696004808035906020019091905050610875565b60405180806020018581526020018463ffffffff1663ffffffff1681526020018363ffffffff1663ffffffff16815260200182810382528681815460018160011615610100020316600290048152602001915080546001816001161561010002031660029004801561031c5780601f106102f15761010080835404028352916020019161031c565b820191906000526020600020905b8154815290600101906020018083116102ff57829003601f168201915b50509550505050505060405180910390f35b61034460048080359060200190919050506108d3565b005b341561035157600080fd5b6103a1600480803590602001908201803590602001908080601f016020809104026020016040519081016040528093929190818152602001838380828437820191505050505050919050506109ac565b005b34156103ae57600080fd5b6103da600480803573ffffffffffffffffffffffffffffffffffffffff169060200190919050506109c7565b6040518082815260200191505060405180910390f35b34156103fb57600080fd5b610425600480803590602001909190803590602001908201803590602001919091929050506109df565b005b341561043257600080fd5b6104486004808035906020019091905050610acb565b604051808273ffffffffffffffffffffffffffffffffffffffff1673ffffffffffffffffffffffffffffffffffffffff16815260200191505060405180910390f35b341561049557600080fd5b6104c1600480803573ffffffffffffffffffffffffffffffffffffffff16906020019091905050610afe565b005b34156104ce57600080fd5b6104d6610c53565b6040518082815260200191505060405180910390f35b6000809054906101000a900473ffffffffffffffffffffffffffffffffffffffff1673ffffffffffffffffffffffffffffffffffffffff163373ffffffffffffffffffffffffffffffffffffffff1614151561054757600080fd5b6000809054906101000a900473ffffffffffffffffffffffffffffffffffffffff1673ffffffffffffffffffffffffffffffffffffffff166108fc3073ffffffffffffffffffffffffffffffffffffffff16319081150290604051600060405180830381858888f1935050505015156105bf57600080fd5b565b60006105cc82610c59565b90506105d88382610c81565b505050565b601482816004828154811015156105f057fe5b906000526020600020906003020160020160009054906101000a900463ffffffff1663ffffffff161015151561062557600080fd5b6005600085815260200190815260200160002060009054906101000a900473ffffffffffffffffffffffffffffffffffffffff1673ffffffffffffffffffffffffffffffffffffffff163373ffffffffffffffffffffffffffffffffffffffff1614151561069257600080fd5b826004858154811015156106a257fe5b90600052602060002090600302016001018190555050505050565b6106c5611094565b6106cd611094565b600080600660008673ffffffffffffffffffffffffffffffffffffffff1673ffffffffffffffffffffffffffffffffffffffff1681526020019081526020016000205460405180591061071d5750595b9080825280602002602001820160405250925060009150600090505b6004805490508110156107e0578473ffffffffffffffffffffffffffffffffffffffff166005600083815260200190815260200160002060009054906101000a900473ffffffffffffffffffffffffffffffffffffffff1673ffffffffffffffffffffffffffffffffffffffff1614156107d3578083838151811015156107bc57fe5b906020019060200201818152505081806001019250505b8080600101915050610739565b829350505050919050565b6000809054906101000a900473ffffffffffffffffffffffffffffffffffffffff1681565b6000809054906101000a900473ffffffffffffffffffffffffffffffffffffffff1673ffffffffffffffffffffffffffffffffffffffff163373ffffffffffffffffffffffffffffffffffffffff1614151561086b57600080fd5b8060078190555050565b60048181548110151561088457fe5b906000526020600020906003020160009150905080600001908060010154908060020160009054906101000a900463ffffffff16908060020160049054906101000a900463ffffffff16905084565b600754341415156108e357600080fd5b6005600082815260200190815260200160002060009054906101000a900473ffffffffffffffffffffffffffffffffffffffff1673ffffffffffffffffffffffffffffffffffffffff163373ffffffffffffffffffffffffffffffffffffffff1614151561095057600080fd5b60048181548110151561095f57fe5b9060005260206000209060030201600201600081819054906101000a900463ffffffff168092919060010191906101000a81548163ffffffff021916908363ffffffff1602179055505050565b60006109b782610de1565b90506109c38282610e63565b5050565b60066020528060005260406000206000915090505481565b600283816004828154811015156109f257fe5b906000526020600020906003020160020160009054906101000a900463ffffffff1663ffffffff1610151515610a2757600080fd5b6005600086815260200190815260200160002060009054906101000a900473ffffffffffffffffffffffffffffffffffffffff1673ffffffffffffffffffffffffffffffffffffffff163373ffffffffffffffffffffffffffffffffffffffff16141515610a9457600080fd5b8383600487815481101515610aa557fe5b90600052602060002090600302016000019190610ac39291906110a8565b505050505050565b60056020528060005260406000206000915054906101000a900473ffffffffffffffffffffffffffffffffffffffff1681565b6000809054906101000a900473ffffffffffffffffffffffffffffffffffffffff1673ffffffffffffffffffffffffffffffffffffffff163373ffffffffffffffffffffffffffffffffffffffff16141515610b5957600080fd5b600073ffffffffffffffffffffffffffffffffffffffff168173ffffffffffffffffffffffffffffffffffffffff1614151515610b9557600080fd5b8073ffffffffffffffffffffffffffffffffffffffff166000809054906101000a900473ffffffffffffffffffffffffffffffffffffffff1673ffffffffffffffffffffffffffffffffffffffff167f8be0079c531659141344cd1fd0a4f28419497f9722a3daafe3b4186f6b6457e060405160405180910390a3806000806101000a81548173ffffffffffffffffffffffffffffffffffffffff021916908373ffffffffffffffffffffffffffffffffffffffff16021790555050565b60075481565b6000808260405180828152602001915050604051809103902060019004905080915050919050565b60008060006005600086815260200190815260200160002060009054906101000a900473ffffffffffffffffffffffffffffffffffffffff1673ffffffffffffffffffffffffffffffffffffffff163373ffffffffffffffffffffffffffffffffffffffff16141515610cf357600080fd5b600485815481101515610d0257fe5b906000526020600020906003020192508260020160049054906101000a900463ffffffff1663ffffffff164210151515610d3b57600080fd5b60025484811515610d4857fe5b069150600282846001015401811515610d5d57fe5b049050606360648083811515610d6f57fe5b040201905060035442018360020160046101000a81548163ffffffff021916908363ffffffff160217905550610dda6040805190810160405280600681526020017f4e6f2d6f6e65000000000000000000000000000000000000000000000000000081525082610e63565b5050505050565b600080826040518082805190602001908083835b602083101515610e1a5780518252602082019150602081019050602083039250610df5565b6001836020036101000a038019825116818451168082178552505050505050905001915050604051809103902060019004905060025481811515610e5a57fe5b06915050919050565b60008060035442019150600160048054806001018281610e839190611128565b91600052602060002090600302016000608060405190810160405280898152602001888152602001600063ffffffff1681526020018763ffffffff1681525090919091506000820151816000019080519060200190610ee392919061115a565b506020820151816001015560408201518160020160006101000a81548163ffffffff021916908363ffffffff16021790555060608201518160020160046101000a81548163ffffffff021916908363ffffffff1602179055505050039050336005600083815260200190815260200160002060006101000a81548173ffffffffffffffffffffffffffffffffffffffff021916908373ffffffffffffffffffffffffffffffffffffffff160217905550600660003373ffffffffffffffffffffffffffffffffffffffff1673ffffffffffffffffffffffffffffffffffffffff168152602001908152602001600020600081548092919060010191905055507f07be46eb2dba0b4dd932cd8c8cf7a4471478b8e52413bb8e9e885805968664318185856040518084815260200180602001838152602001828103825284818151815260200191508051906020019080838360005b83811015611052578082015181840152602081019050611037565b50505050905090810190601f16801561107f5780820380516001836020036101000a031916815260200191505b5094505050505060405180910390a150505050565b602060405190810160405280600081525090565b828054600181600116156101000203166002900490600052602060002090601f016020900481019282601f106110e957803560ff1916838001178555611117565b82800160010185558215611117579182015b828111156111165782358255916020019190600101906110fb565b5b50905061112491906111da565b5090565b8154818355818115116111555760030281600302836000526020600020918201910161115491906111ff565b5b505050565b828054600181600116156101000203166002900490600052602060002090601f016020900481019282601f1061119b57805160ff19168380011785556111c9565b828001600101855582156111c9579182015b828111156111c85782518255916020019190600101906111ad565b5b5090506111d691906111da565b5090565b6111fc91905b808211156111f85760008160009055506001016111e0565b5090565b90565b61126191905b8082111561125d576000808201600061121e9190611264565b60018201600090556002820160006101000a81549063ffffffff02191690556002820160046101000a81549063ffffffff021916905550600301611205565b5090565b90565b50805460018160011615610100020316600290046000825580601f1061128a57506112a9565b601f0160209004906000526020600020908101906112a891906111da565b5b505600a165627a7a723058206422119c28b5d4dba0ade0c8326b054c281e02b30bb3845e0db694d219d1a0ff0029",
					"opcodes": "PUSH1 0x60 PUSH1 0x40 MSTORE PUSH1 0x10 PUSH1 0x1 SSTORE PUSH1 0x1 SLOAD PUSH1 0xA EXP PUSH1 0x2 SSTORE PUSH1 0x3C PUSH1 0x3 SSTORE PUSH7 0x38D7EA4C68000 PUSH1 0x7 SSTORE CALLER PUSH1 0x0 DUP1 PUSH2 0x100 EXP DUP2 SLOAD DUP2 PUSH20 0xFFFFFFFFFFFFFFFFFFFFFFFFFFFFFFFFFFFFFFFF MUL NOT AND SWAP1 DUP4 PUSH20 0xFFFFFFFFFFFFFFFFFFFFFFFFFFFFFFFFFFFFFFFF AND MUL OR SWAP1 SSTORE POP PUSH2 0x12D8 DUP1 PUSH2 0x71 PUSH1 0x0 CODECOPY PUSH1 0x0 RETURN STOP PUSH1 0x60 PUSH1 0x40 MSTORE PUSH1 0x4 CALLDATASIZE LT PUSH2 0xD0 JUMPI PUSH1 0x0 CALLDATALOAD PUSH29 0x100000000000000000000000000000000000000000000000000000000 SWAP1 DIV PUSH4 0xFFFFFFFF AND DUP1 PUSH4 0x3CCFD60B EQ PUSH2 0xD5 JUMPI DUP1 PUSH4 0x5C8F191D EQ PUSH2 0xEA JUMPI DUP1 PUSH4 0x5FAF2880 EQ PUSH2 0x116 JUMPI DUP1 PUSH4 0x6485BE27 EQ PUSH2 0x142 JUMPI DUP1 PUSH4 0x8DA5CB5B EQ PUSH2 0x1D0 JUMPI DUP1 PUSH4 0x90B0722E EQ PUSH2 0x225 JUMPI DUP1 PUSH4 0x998DD3CA EQ PUSH2 0x248 JUMPI DUP1 PUSH4 0x9A6BD379 EQ PUSH2 0x32E JUMPI DUP1 PUSH4 0x9ABFB23E EQ PUSH2 0x346 JUMPI DUP1 PUSH4 0xA936B8C9 EQ PUSH2 0x3A3 JUMPI DUP1 PUSH4 0xC39CBEF1 EQ PUSH2 0x3F0 JUMPI DUP1 PUSH4 0xD81C513A EQ PUSH2 0x427 JUMPI DUP1 PUSH4 0xF2FDE38B EQ PUSH2 0x48A JUMPI DUP1 PUSH4 0xF715EA68 EQ PUSH2 0x4C3 JUMPI JUMPDEST PUSH1 0x0 DUP1 REVERT JUMPDEST CALLVALUE ISZERO PUSH2 0xE0 JUMPI PUSH1 0x0 DUP1 REVERT JUMPDEST PUSH2 0xE8 PUSH2 0x4EC JUMP JUMPDEST STOP JUMPDEST CALLVALUE ISZERO PUSH2 0xF5 JUMPI PUSH1 0x0 DUP1 REVERT JUMPDEST PUSH2 0x114 PUSH1 0x4 DUP1 DUP1 CALLDATALOAD SWAP1 PUSH1 0x20 ADD SWAP1 SWAP2 SWAP1 DUP1 CALLDATALOAD SWAP1 PUSH1 0x20 ADD SWAP1 SWAP2 SWAP1 POP POP PUSH2 0x5C1 JUMP JUMPDEST STOP JUMPDEST CALLVALUE ISZERO PUSH2 0x121 JUMPI PUSH1 0x0 DUP1 REVERT JUMPDEST PUSH2 0x140 PUSH1 0x4 DUP1 DUP1 CALLDATALOAD SWAP1 PUSH1 0x20 ADD SWAP1 SWAP2 SWAP1 DUP1 CALLDATALOAD SWAP1 PUSH1 0x20 ADD SWAP1 SWAP2 SWAP1 POP POP PUSH2 0x5DD JUMP JUMPDEST STOP JUMPDEST CALLVALUE ISZERO PUSH2 0x14D JUMPI PUSH1 0x0 DUP1 REVERT JUMPDEST PUSH2 0x179 PUSH1 0x4 DUP1 DUP1 CALLDATALOAD PUSH20 0xFFFFFFFFFFFFFFFFFFFFFFFFFFFFFFFFFFFFFFFF AND SWAP1 PUSH1 0x20 ADD SWAP1 SWAP2 SWAP1 POP POP PUSH2 0x6BD JUMP JUMPDEST PUSH1 0x40 MLOAD DUP1 DUP1 PUSH1 0x20 ADD DUP3 DUP2 SUB DUP3 MSTORE DUP4 DUP2 DUP2 MLOAD DUP2 MSTORE PUSH1 0x20 ADD SWAP2 POP DUP1 MLOAD SWAP1 PUSH1 0x20 ADD SWAP1 PUSH1 0x20 MUL DUP1 DUP4 DUP4 PUSH1 0x0 JUMPDEST DUP4 DUP2 LT ISZERO PUSH2 0x1BC JUMPI DUP1 DUP3 ADD MLOAD DUP2 DUP5 ADD MSTORE PUSH1 0x20 DUP2 ADD SWAP1 POP PUSH2 0x1A1 JUMP JUMPDEST POP POP POP POP SWAP1 POP ADD SWAP3 POP POP POP PUSH1 0x40 MLOAD DUP1 SWAP2 SUB SWAP1 RETURN JUMPDEST CALLVALUE ISZERO PUSH2 0x1DB JUMPI PUSH1 0x0 DUP1 REVERT JUMPDEST PUSH2 0x1E3 PUSH2 0x7EB JUMP JUMPDEST PUSH1 0x40 MLOAD DUP1 DUP3 PUSH20 0xFFFFFFFFFFFFFFFFFFFFFFFFFFFFFFFFFFFFFFFF AND PUSH20 0xFFFFFFFFFFFFFFFFFFFFFFFFFFFFFFFFFFFFFFFF AND DUP2 MSTORE PUSH1 0x20 ADD SWAP2 POP POP PUSH1 0x40 MLOAD DUP1 SWAP2 SUB SWAP1 RETURN JUMPDEST CALLVALUE ISZERO PUSH2 0x230 JUMPI PUSH1 0x0 DUP1 REVERT JUMPDEST PUSH2 0x246 PUSH1 0x4 DUP1 DUP1 CALLDATALOAD SWAP1 PUSH1 0x20 ADD SWAP1 SWAP2 SWAP1 POP POP PUSH2 0x810 JUMP JUMPDEST STOP JUMPDEST CALLVALUE ISZERO PUSH2 0x253 JUMPI PUSH1 0x0 DUP1 REVERT JUMPDEST PUSH2 0x269 PUSH1 0x4 DUP1 DUP1 CALLDATALOAD SWAP1 PUSH1 0x20 ADD SWAP1 SWAP2 SWAP1 POP POP PUSH2 0x875 JUMP JUMPDEST PUSH1 0x40 MLOAD DUP1 DUP1 PUSH1 0x20 ADD DUP6 DUP2 MSTORE PUSH1 0x20 ADD DUP5 PUSH4 0xFFFFFFFF AND PUSH4 0xFFFFFFFF AND DUP2 MSTORE PUSH1 0x20 ADD DUP4 PUSH4 0xFFFFFFFF AND PUSH4 0xFFFFFFFF AND DUP2 MSTORE PUSH1 0x20 ADD DUP3 DUP2 SUB DUP3 MSTORE DUP7 DUP2 DUP2 SLOAD PUSH1 0x1 DUP2 PUSH1 0x1 AND ISZERO PUSH2 0x100 MUL SUB AND PUSH1 0x2 SWAP1 DIV DUP2 MSTORE PUSH1 0x20 ADD SWAP2 POP DUP1 SLOAD PUSH1 0x1 DUP2 PUSH1 0x1 AND ISZERO PUSH2 0x100 MUL SUB AND PUSH1 0x2 SWAP1 DIV DUP1 ISZERO PUSH2 0x31C JUMPI DUP1 PUSH1 0x1F LT PUSH2 0x2F1 JUMPI PUSH2 0x100 DUP1 DUP4 SLOAD DIV MUL DUP4 MSTORE SWAP2 PUSH1 0x20 ADD SWAP2 PUSH2 0x31C JUMP JUMPDEST DUP3 ADD SWAP2 SWAP1 PUSH1 0x0 MSTORE PUSH1 0x20 PUSH1 0x0 KECCAK256 SWAP1 JUMPDEST DUP2 SLOAD DUP2 MSTORE SWAP1 PUSH1 0x1 ADD SWAP1 PUSH1 0x20 ADD DUP1 DUP4 GT PUSH2 0x2FF JUMPI DUP3 SWAP1 SUB PUSH1 0x1F AND DUP3 ADD SWAP2 JUMPDEST POP POP SWAP6 POP POP POP POP POP POP PUSH1 0x40 MLOAD DUP1 SWAP2 SUB SWAP1 RETURN JUMPDEST PUSH2 0x344 PUSH1 0x4 DUP1 DUP1 CALLDATALOAD SWAP1 PUSH1 0x20 ADD SWAP1 SWAP2 SWAP1 POP POP PUSH2 0x8D3 JUMP JUMPDEST STOP JUMPDEST CALLVALUE ISZERO PUSH2 0x351 JUMPI PUSH1 0x0 DUP1 REVERT JUMPDEST PUSH2 0x3A1 PUSH1 0x4 DUP1 DUP1 CALLDATALOAD SWAP1 PUSH1 0x20 ADD SWAP1 DUP3 ADD DUP1 CALLDATALOAD SWAP1 PUSH1 0x20 ADD SWAP1 DUP1 DUP1 PUSH1 0x1F ADD PUSH1 0x20 DUP1 SWAP2 DIV MUL PUSH1 0x20 ADD PUSH1 0x40 MLOAD SWAP1 DUP2 ADD PUSH1 0x40 MSTORE DUP1 SWAP4 SWAP3 SWAP2 SWAP1 DUP2 DUP2 MSTORE PUSH1 0x20 ADD DUP4 DUP4 DUP1 DUP3 DUP5 CALLDATACOPY DUP3 ADD SWAP2 POP POP POP POP POP POP SWAP2 SWAP1 POP POP PUSH2 0x9AC JUMP JUMPDEST STOP JUMPDEST CALLVALUE ISZERO PUSH2 0x3AE JUMPI PUSH1 0x0 DUP1 REVERT JUMPDEST PUSH2 0x3DA PUSH1 0x4 DUP1 DUP1 CALLDATALOAD PUSH20 0xFFFFFFFFFFFFFFFFFFFFFFFFFFFFFFFFFFFFFFFF AND SWAP1 PUSH1 0x20 ADD SWAP1 SWAP2 SWAP1 POP POP PUSH2 0x9C7 JUMP JUMPDEST PUSH1 0x40 MLOAD DUP1 DUP3 DUP2 MSTORE PUSH1 0x20 ADD SWAP2 POP POP PUSH1 0x40 MLOAD DUP1 SWAP2 SUB SWAP1 RETURN JUMPDEST CALLVALUE ISZERO PUSH2 0x3FB JUMPI PUSH1 0x0 DUP1 REVERT JUMPDEST PUSH2 0x425 PUSH1 0x4 DUP1 DUP1 CALLDATALOAD SWAP1 PUSH1 0x20 ADD SWAP1 SWAP2 SWAP1 DUP1 CALLDATALOAD SWAP1 PUSH1 0x20 ADD SWAP1 DUP3 ADD DUP1 CALLDATALOAD SWAP1 PUSH1 0x20 ADD SWAP2 SWAP1 SWAP2 SWAP3 SWAP1 POP POP PUSH2 0x9DF JUMP JUMPDEST STOP JUMPDEST CALLVALUE ISZERO PUSH2 0x432 JUMPI PUSH1 0x0 DUP1 REVERT JUMPDEST PUSH2 0x448 PUSH1 0x4 DUP1 DUP1 CALLDATALOAD SWAP1 PUSH1 0x20 ADD SWAP1 SWAP2 SWAP1 POP POP PUSH2 0xACB JUMP JUMPDEST PUSH1 0x40 MLOAD DUP1 DUP3 PUSH20 0xFFFFFFFFFFFFFFFFFFFFFFFFFFFFFFFFFFFFFFFF AND PUSH20 0xFFFFFFFFFFFFFFFFFFFFFFFFFFFFFFFFFFFFFFFF AND DUP2 MSTORE PUSH1 0x20 ADD SWAP2 POP POP PUSH1 0x40 MLOAD DUP1 SWAP2 SUB SWAP1 RETURN JUMPDEST CALLVALUE ISZERO PUSH2 0x495 JUMPI PUSH1 0x0 DUP1 REVERT JUMPDEST PUSH2 0x4C1 PUSH1 0x4 DUP1 DUP1 CALLDATALOAD PUSH20 0xFFFFFFFFFFFFFFFFFFFFFFFFFFFFFFFFFFFFFFFF AND SWAP1 PUSH1 0x20 ADD SWAP1 SWAP2 SWAP1 POP POP PUSH2 0xAFE JUMP JUMPDEST STOP JUMPDEST CALLVALUE ISZERO PUSH2 0x4CE JUMPI PUSH1 0x0 DUP1 REVERT JUMPDEST PUSH2 0x4D6 PUSH2 0xC53 JUMP JUMPDEST PUSH1 0x40 MLOAD DUP1 DUP3 DUP2 MSTORE PUSH1 0x20 ADD SWAP2 POP POP PUSH1 0x40 MLOAD DUP1 SWAP2 SUB SWAP1 RETURN JUMPDEST PUSH1 0x0 DUP1 SWAP1 SLOAD SWAP1 PUSH2 0x100 EXP SWAP1 DIV PUSH20 0xFFFFFFFFFFFFFFFFFFFFFFFFFFFFFFFFFFFFFFFF AND PUSH20 0xFFFFFFFFFFFFFFFFFFFFFFFFFFFFFFFFFFFFFFFF AND CALLER PUSH20 0xFFFFFFFFFFFFFFFFFFFFFFFFFFFFFFFFFFFFFFFF AND EQ ISZERO ISZERO PUSH2 0x547 JUMPI PUSH1 0x0 DUP1 REVERT JUMPDEST PUSH1 0x0 DUP1 SWAP1 SLOAD SWAP1 PUSH2 0x100 EXP SWAP1 DIV PUSH20 0xFFFFFFFFFFFFFFFFFFFFFFFFFFFFFFFFFFFFFFFF AND PUSH20 0xFFFFFFFFFFFFFFFFFFFFFFFFFFFFFFFFFFFFFFFF AND PUSH2 0x8FC ADDRESS PUSH20 0xFFFFFFFFFFFFFFFFFFFFFFFFFFFFFFFFFFFFFFFF AND BALANCE SWAP1 DUP2 ISZERO MUL SWAP1 PUSH1 0x40 MLOAD PUSH1 0x0 PUSH1 0x40 MLOAD DUP1 DUP4 SUB DUP2 DUP6 DUP9 DUP9 CALL SWAP4 POP POP POP POP ISZERO ISZERO PUSH2 0x5BF JUMPI PUSH1 0x0 DUP1 REVERT JUMPDEST JUMP JUMPDEST PUSH1 0x0 PUSH2 0x5CC DUP3 PUSH2 0xC59 JUMP JUMPDEST SWAP1 POP PUSH2 0x5D8 DUP4 DUP3 PUSH2 0xC81 JUMP JUMPDEST POP POP POP JUMP JUMPDEST PUSH1 0x14 DUP3 DUP2 PUSH1 0x4 DUP3 DUP2 SLOAD DUP2 LT ISZERO ISZERO PUSH2 0x5F0 JUMPI INVALID JUMPDEST SWAP1 PUSH1 0x0 MSTORE PUSH1 0x20 PUSH1 0x0 KECCAK256 SWAP1 PUSH1 0x3 MUL ADD PUSH1 0x2 ADD PUSH1 0x0 SWAP1 SLOAD SWAP1 PUSH2 0x100 EXP SWAP1 DIV PUSH4 0xFFFFFFFF AND PUSH4 0xFFFFFFFF AND LT ISZERO ISZERO ISZERO PUSH2 0x625 JUMPI PUSH1 0x0 DUP1 REVERT JUMPDEST PUSH1 0x5 PUSH1 0x0 DUP6 DUP2 MSTORE PUSH1 0x20 ADD SWAP1 DUP2 MSTORE PUSH1 0x20 ADD PUSH1 0x0 KECCAK256 PUSH1 0x0 SWAP1 SLOAD SWAP1 PUSH2 0x100 EXP SWAP1 DIV PUSH20 0xFFFFFFFFFFFFFFFFFFFFFFFFFFFFFFFFFFFFFFFF AND PUSH20 0xFFFFFFFFFFFFFFFFFFFFFFFFFFFFFFFFFFFFFFFF AND CALLER PUSH20 0xFFFFFFFFFFFFFFFFFFFFFFFFFFFFFFFFFFFFFFFF AND EQ ISZERO ISZERO PUSH2 0x692 JUMPI PUSH1 0x0 DUP1 REVERT JUMPDEST DUP3 PUSH1 0x4 DUP6 DUP2 SLOAD DUP2 LT ISZERO ISZERO PUSH2 0x6A2 JUMPI INVALID JUMPDEST SWAP1 PUSH1 0x0 MSTORE PUSH1 0x20 PUSH1 0x0 KECCAK256 SWAP1 PUSH1 0x3 MUL ADD PUSH1 0x1 ADD DUP2 SWAP1 SSTORE POP POP POP POP POP JUMP JUMPDEST PUSH2 0x6C5 PUSH2 0x1094 JUMP JUMPDEST PUSH2 0x6CD PUSH2 0x1094 JUMP JUMPDEST PUSH1 0x0 DUP1 PUSH1 0x6 PUSH1 0x0 DUP7 PUSH20 0xFFFFFFFFFFFFFFFFFFFFFFFFFFFFFFFFFFFFFFFF AND PUSH20 0xFFFFFFFFFFFFFFFFFFFFFFFFFFFFFFFFFFFFFFFF AND DUP2 MSTORE PUSH1 0x20 ADD SWAP1 DUP2 MSTORE PUSH1 0x20 ADD PUSH1 0x0 KECCAK256 SLOAD PUSH1 0x40 MLOAD DUP1 MSIZE LT PUSH2 0x71D JUMPI POP MSIZE JUMPDEST SWAP1 DUP1 DUP3 MSTORE DUP1 PUSH1 0x20 MUL PUSH1 0x20 ADD DUP3 ADD PUSH1 0x40 MSTORE POP SWAP3 POP PUSH1 0x0 SWAP2 POP PUSH1 0x0 SWAP1 POP JUMPDEST PUSH1 0x4 DUP1 SLOAD SWAP1 POP DUP2 LT ISZERO PUSH2 0x7E0 JUMPI DUP5 PUSH20 0xFFFFFFFFFFFFFFFFFFFFFFFFFFFFFFFFFFFFFFFF AND PUSH1 0x5 PUSH1 0x0 DUP4 DUP2 MSTORE PUSH1 0x20 ADD SWAP1 DUP2 MSTORE PUSH1 0x20 ADD PUSH1 0x0 KECCAK256 PUSH1 0x0 SWAP1 SLOAD SWAP1 PUSH2 0x100 EXP SWAP1 DIV PUSH20 0xFFFFFFFFFFFFFFFFFFFFFFFFFFFFFFFFFFFFFFFF AND PUSH20 0xFFFFFFFFFFFFFFFFFFFFFFFFFFFFFFFFFFFFFFFF AND EQ ISZERO PUSH2 0x7D3 JUMPI DUP1 DUP4 DUP4 DUP2 MLOAD DUP2 LT ISZERO ISZERO PUSH2 0x7BC JUMPI INVALID JUMPDEST SWAP1 PUSH1 0x20 ADD SWAP1 PUSH1 0x20 MUL ADD DUP2 DUP2 MSTORE POP POP DUP2 DUP1 PUSH1 0x1 ADD SWAP3 POP POP JUMPDEST DUP1 DUP1 PUSH1 0x1 ADD SWAP2 POP POP PUSH2 0x739 JUMP JUMPDEST DUP3 SWAP4 POP POP POP POP SWAP2 SWAP1 POP JUMP JUMPDEST PUSH1 0x0 DUP1 SWAP1 SLOAD SWAP1 PUSH2 0x100 EXP SWAP1 DIV PUSH20 0xFFFFFFFFFFFFFFFFFFFFFFFFFFFFFFFFFFFFFFFF AND DUP2 JUMP JUMPDEST PUSH1 0x0 DUP1 SWAP1 SLOAD SWAP1 PUSH2 0x100 EXP SWAP1 DIV PUSH20 0xFFFFFFFFFFFFFFFFFFFFFFFFFFFFFFFFFFFFFFFF AND PUSH20 0xFFFFFFFFFFFFFFFFFFFFFFFFFFFFFFFFFFFFFFFF AND CALLER PUSH20 0xFFFFFFFFFFFFFFFFFFFFFFFFFFFFFFFFFFFFFFFF AND EQ ISZERO ISZERO PUSH2 0x86B JUMPI PUSH1 0x0 DUP1 REVERT JUMPDEST DUP1 PUSH1 0x7 DUP2 SWAP1 SSTORE POP POP JUMP JUMPDEST PUSH1 0x4 DUP2 DUP2 SLOAD DUP2 LT ISZERO ISZERO PUSH2 0x884 JUMPI INVALID JUMPDEST SWAP1 PUSH1 0x0 MSTORE PUSH1 0x20 PUSH1 0x0 KECCAK256 SWAP1 PUSH1 0x3 MUL ADD PUSH1 0x0 SWAP2 POP SWAP1 POP DUP1 PUSH1 0x0 ADD SWAP1 DUP1 PUSH1 0x1 ADD SLOAD SWAP1 DUP1 PUSH1 0x2 ADD PUSH1 0x0 SWAP1 SLOAD SWAP1 PUSH2 0x100 EXP SWAP1 DIV PUSH4 0xFFFFFFFF AND SWAP1 DUP1 PUSH1 0x2 ADD PUSH1 0x4 SWAP1 SLOAD SWAP1 PUSH2 0x100 EXP SWAP1 DIV PUSH4 0xFFFFFFFF AND SWAP1 POP DUP5 JUMP JUMPDEST PUSH1 0x7 SLOAD CALLVALUE EQ ISZERO ISZERO PUSH2 0x8E3 JUMPI PUSH1 0x0 DUP1 REVERT JUMPDEST PUSH1 0x5 PUSH1 0x0 DUP3 DUP2 MSTORE PUSH1 0x20 ADD SWAP1 DUP2 MSTORE PUSH1 0x20 ADD PUSH1 0x0 KECCAK256 PUSH1 0x0 SWAP1 SLOAD SWAP1 PUSH2 0x100 EXP SWAP1 DIV PUSH20 0xFFFFFFFFFFFFFFFFFFFFFFFFFFFFFFFFFFFFFFFF AND PUSH20 0xFFFFFFFFFFFFFFFFFFFFFFFFFFFFFFFFFFFFFFFF AND CALLER PUSH20 0xFFFFFFFFFFFFFFFFFFFFFFFFFFFFFFFFFFFFFFFF AND EQ ISZERO ISZERO PUSH2 0x950 JUMPI PUSH1 0x0 DUP1 REVERT JUMPDEST PUSH1 0x4 DUP2 DUP2 SLOAD DUP2 LT ISZERO ISZERO PUSH2 0x95F JUMPI INVALID JUMPDEST SWAP1 PUSH1 0x0 MSTORE PUSH1 0x20 PUSH1 0x0 KECCAK256 SWAP1 PUSH1 0x3 MUL ADD PUSH1 0x2 ADD PUSH1 0x0 DUP2 DUP2 SWAP1 SLOAD SWAP1 PUSH2 0x100 EXP SWAP1 DIV PUSH4 0xFFFFFFFF AND DUP1 SWAP3 SWAP2 SWAP1 PUSH1 0x1 ADD SWAP2 SWAP1 PUSH2 0x100 EXP DUP2 SLOAD DUP2 PUSH4 0xFFFFFFFF MUL NOT AND SWAP1 DUP4 PUSH4 0xFFFFFFFF AND MUL OR SWAP1 SSTORE POP POP POP JUMP JUMPDEST PUSH1 0x0 PUSH2 0x9B7 DUP3 PUSH2 0xDE1 JUMP JUMPDEST SWAP1 POP PUSH2 0x9C3 DUP3 DUP3 PUSH2 0xE63 JUMP JUMPDEST POP POP JUMP JUMPDEST PUSH1 0x6 PUSH1 0x20 MSTORE DUP1 PUSH1 0x0 MSTORE PUSH1 0x40 PUSH1 0x0 KECCAK256 PUSH1 0x0 SWAP2 POP SWAP1 POP SLOAD DUP2 JUMP JUMPDEST PUSH1 0x2 DUP4 DUP2 PUSH1 0x4 DUP3 DUP2 SLOAD DUP2 LT ISZERO ISZERO PUSH2 0x9F2 JUMPI INVALID JUMPDEST SWAP1 PUSH1 0x0 MSTORE PUSH1 0x20 PUSH1 0x0 KECCAK256 SWAP1 PUSH1 0x3 MUL ADD PUSH1 0x2 ADD PUSH1 0x0 SWAP1 SLOAD SWAP1 PUSH2 0x100 EXP SWAP1 DIV PUSH4 0xFFFFFFFF AND PUSH4 0xFFFFFFFF AND LT ISZERO ISZERO ISZERO PUSH2 0xA27 JUMPI PUSH1 0x0 DUP1 REVERT JUMPDEST PUSH1 0x5 PUSH1 0x0 DUP7 DUP2 MSTORE PUSH1 0x20 ADD SWAP1 DUP2 MSTORE PUSH1 0x20 ADD PUSH1 0x0 KECCAK256 PUSH1 0x0 SWAP1 SLOAD SWAP1 PUSH2 0x100 EXP SWAP1 DIV PUSH20 0xFFFFFFFFFFFFFFFFFFFFFFFFFFFFFFFFFFFFFFFF AND PUSH20 0xFFFFFFFFFFFFFFFFFFFFFFFFFFFFFFFFFFFFFFFF AND CALLER PUSH20 0xFFFFFFFFFFFFFFFFFFFFFFFFFFFFFFFFFFFFFFFF AND EQ ISZERO ISZERO PUSH2 0xA94 JUMPI PUSH1 0x0 DUP1 REVERT JUMPDEST DUP4 DUP4 PUSH1 0x4 DUP8 DUP2 SLOAD DUP2 LT ISZERO ISZERO PUSH2 0xAA5 JUMPI INVALID JUMPDEST SWAP1 PUSH1 0x0 MSTORE PUSH1 0x20 PUSH1 0x0 KECCAK256 SWAP1 PUSH1 0x3 MUL ADD PUSH1 0x0 ADD SWAP2 SWAP1 PUSH2 0xAC3 SWAP3 SWAP2 SWAP1 PUSH2 0x10A8 JUMP JUMPDEST POP POP POP POP POP POP JUMP JUMPDEST PUSH1 0x5 PUSH1 0x20 MSTORE DUP1 PUSH1 0x0 MSTORE PUSH1 0x40 PUSH1 0x0 KECCAK256 PUSH1 0x0 SWAP2 POP SLOAD SWAP1 PUSH2 0x100 EXP SWAP1 DIV PUSH20 0xFFFFFFFFFFFFFFFFFFFFFFFFFFFFFFFFFFFFFFFF AND DUP2 JUMP JUMPDEST PUSH1 0x0 DUP1 SWAP1 SLOAD SWAP1 PUSH2 0x100 EXP SWAP1 DIV PUSH20 0xFFFFFFFFFFFFFFFFFFFFFFFFFFFFFFFFFFFFFFFF AND PUSH20 0xFFFFFFFFFFFFFFFFFFFFFFFFFFFFFFFFFFFFFFFF AND CALLER PUSH20 0xFFFFFFFFFFFFFFFFFFFFFFFFFFFFFFFFFFFFFFFF AND EQ ISZERO ISZERO PUSH2 0xB59 JUMPI PUSH1 0x0 DUP1 REVERT JUMPDEST PUSH1 0x0 PUSH20 0xFFFFFFFFFFFFFFFFFFFFFFFFFFFFFFFFFFFFFFFF AND DUP2 PUSH20 0xFFFFFFFFFFFFFFFFFFFFFFFFFFFFFFFFFFFFFFFF AND EQ ISZERO ISZERO ISZERO PUSH2 0xB95 JUMPI PUSH1 0x0 DUP1 REVERT JUMPDEST DUP1 PUSH20 0xFFFFFFFFFFFFFFFFFFFFFFFFFFFFFFFFFFFFFFFF AND PUSH1 0x0 DUP1 SWAP1 SLOAD SWAP1 PUSH2 0x100 EXP SWAP1 DIV PUSH20 0xFFFFFFFFFFFFFFFFFFFFFFFFFFFFFFFFFFFFFFFF AND PUSH20 0xFFFFFFFFFFFFFFFFFFFFFFFFFFFFFFFFFFFFFFFF AND PUSH32 0x8BE0079C531659141344CD1FD0A4F28419497F9722A3DAAFE3B4186F6B6457E0 PUSH1 0x40 MLOAD PUSH1 0x40 MLOAD DUP1 SWAP2 SUB SWAP1 LOG3 DUP1 PUSH1 0x0 DUP1 PUSH2 0x100 EXP DUP2 SLOAD DUP2 PUSH20 0xFFFFFFFFFFFFFFFFFFFFFFFFFFFFFFFFFFFFFFFF MUL NOT AND SWAP1 DUP4 PUSH20 0xFFFFFFFFFFFFFFFFFFFFFFFFFFFFFFFFFFFFFFFF AND MUL OR SWAP1 SSTORE POP POP JUMP JUMPDEST PUSH1 0x7 SLOAD DUP2 JUMP JUMPDEST PUSH1 0x0 DUP1 DUP3 PUSH1 0x40 MLOAD DUP1 DUP3 DUP2 MSTORE PUSH1 0x20 ADD SWAP2 POP POP PUSH1 0x40 MLOAD DUP1 SWAP2 SUB SWAP1 KECCAK256 PUSH1 0x1 SWAP1 DIV SWAP1 POP DUP1 SWAP2 POP POP SWAP2 SWAP1 POP JUMP JUMPDEST PUSH1 0x0 DUP1 PUSH1 0x0 PUSH1 0x5 PUSH1 0x0 DUP7 DUP2 MSTORE PUSH1 0x20 ADD SWAP1 DUP2 MSTORE PUSH1 0x20 ADD PUSH1 0x0 KECCAK256 PUSH1 0x0 SWAP1 SLOAD SWAP1 PUSH2 0x100 EXP SWAP1 DIV PUSH20 0xFFFFFFFFFFFFFFFFFFFFFFFFFFFFFFFFFFFFFFFF AND PUSH20 0xFFFFFFFFFFFFFFFFFFFFFFFFFFFFFFFFFFFFFFFF AND CALLER PUSH20 0xFFFFFFFFFFFFFFFFFFFFFFFFFFFFFFFFFFFFFFFF AND EQ ISZERO ISZERO PUSH2 0xCF3 JUMPI PUSH1 0x0 DUP1 REVERT JUMPDEST PUSH1 0x4 DUP6 DUP2 SLOAD DUP2 LT ISZERO ISZERO PUSH2 0xD02 JUMPI INVALID JUMPDEST SWAP1 PUSH1 0x0 MSTORE PUSH1 0x20 PUSH1 0x0 KECCAK256 SWAP1 PUSH1 0x3 MUL ADD SWAP3 POP DUP3 PUSH1 0x2 ADD PUSH1 0x4 SWAP1 SLOAD SWAP1 PUSH2 0x100 EXP SWAP1 DIV PUSH4 0xFFFFFFFF AND PUSH4 0xFFFFFFFF AND TIMESTAMP LT ISZERO ISZERO ISZERO PUSH2 0xD3B JUMPI PUSH1 0x0 DUP1 REVERT JUMPDEST PUSH1 0x2 SLOAD DUP5 DUP2 ISZERO ISZERO PUSH2 0xD48 JUMPI INVALID JUMPDEST MOD SWAP2 POP PUSH1 0x2 DUP3 DUP5 PUSH1 0x1 ADD SLOAD ADD DUP2 ISZERO ISZERO PUSH2 0xD5D JUMPI INVALID JUMPDEST DIV SWAP1 POP PUSH1 0x63 PUSH1 0x64 DUP1 DUP4 DUP2 ISZERO ISZERO PUSH2 0xD6F JUMPI INVALID JUMPDEST DIV MUL ADD SWAP1 POP PUSH1 0x3 SLOAD TIMESTAMP ADD DUP4 PUSH1 0x2 ADD PUSH1 0x4 PUSH2 0x100 EXP DUP2 SLOAD DUP2 PUSH4 0xFFFFFFFF MUL NOT AND SWAP1 DUP4 PUSH4 0xFFFFFFFF AND MUL OR SWAP1 SSTORE POP PUSH2 0xDDA PUSH1 0x40 DUP1 MLOAD SWAP1 DUP2 ADD PUSH1 0x40 MSTORE DUP1 PUSH1 0x6 DUP2 MSTORE PUSH1 0x20 ADD PUSH32 0x4E6F2D6F6E650000000000000000000000000000000000000000000000000000 DUP2 MSTORE POP DUP3 PUSH2 0xE63 JUMP JUMPDEST POP POP POP POP POP JUMP JUMPDEST PUSH1 0x0 DUP1 DUP3 PUSH1 0x40 MLOAD DUP1 DUP3 DUP1 MLOAD SWAP1 PUSH1 0x20 ADD SWAP1 DUP1 DUP4 DUP4 JUMPDEST PUSH1 0x20 DUP4 LT ISZERO ISZERO PUSH2 0xE1A JUMPI DUP1 MLOAD DUP3 MSTORE PUSH1 0x20 DUP3 ADD SWAP2 POP PUSH1 0x20 DUP2 ADD SWAP1 POP PUSH1 0x20 DUP4 SUB SWAP3 POP PUSH2 0xDF5 JUMP JUMPDEST PUSH1 0x1 DUP4 PUSH1 0x20 SUB PUSH2 0x100 EXP SUB DUP1 NOT DUP3 MLOAD AND DUP2 DUP5 MLOAD AND DUP1 DUP3 OR DUP6 MSTORE POP POP POP POP POP POP SWAP1 POP ADD SWAP2 POP POP PUSH1 0x40 MLOAD DUP1 SWAP2 SUB SWAP1 KECCAK256 PUSH1 0x1 SWAP1 DIV SWAP1 POP PUSH1 0x2 SLOAD DUP2 DUP2 ISZERO ISZERO PUSH2 0xE5A JUMPI INVALID JUMPDEST MOD SWAP2 POP POP SWAP2 SWAP1 POP JUMP JUMPDEST PUSH1 0x0 DUP1 PUSH1 0x3 SLOAD TIMESTAMP ADD SWAP2 POP PUSH1 0x1 PUSH1 0x4 DUP1 SLOAD DUP1 PUSH1 0x1 ADD DUP3 DUP2 PUSH2 0xE83 SWAP2 SWAP1 PUSH2 0x1128 JUMP JUMPDEST SWAP2 PUSH1 0x0 MSTORE PUSH1 0x20 PUSH1 0x0 KECCAK256 SWAP1 PUSH1 0x3 MUL ADD PUSH1 0x0 PUSH1 0x80 PUSH1 0x40 MLOAD SWAP1 DUP2 ADD PUSH1 0x40 MSTORE DUP1 DUP10 DUP2 MSTORE PUSH1 0x20 ADD DUP9 DUP2 MSTORE PUSH1 0x20 ADD PUSH1 0x0 PUSH4 0xFFFFFFFF AND DUP2 MSTORE PUSH1 0x20 ADD DUP8 PUSH4 0xFFFFFFFF AND DUP2 MSTORE POP SWAP1 SWAP2 SWAP1 SWAP2 POP PUSH1 0x0 DUP3 ADD MLOAD DUP2 PUSH1 0x0 ADD SWAP1 DUP1 MLOAD SWAP1 PUSH1 0x20 ADD SWAP1 PUSH2 0xEE3 SWAP3 SWAP2 SWAP1 PUSH2 0x115A JUMP JUMPDEST POP PUSH1 0x20 DUP3 ADD MLOAD DUP2 PUSH1 0x1 ADD SSTORE PUSH1 0x40 DUP3 ADD MLOAD DUP2 PUSH1 0x2 ADD PUSH1 0x0 PUSH2 0x100 EXP DUP2 SLOAD DUP2 PUSH4 0xFFFFFFFF MUL NOT AND SWAP1 DUP4 PUSH4 0xFFFFFFFF AND MUL OR SWAP1 SSTORE POP PUSH1 0x60 DUP3 ADD MLOAD DUP2 PUSH1 0x2 ADD PUSH1 0x4 PUSH2 0x100 EXP DUP2 SLOAD DUP2 PUSH4 0xFFFFFFFF MUL NOT AND SWAP1 DUP4 PUSH4 0xFFFFFFFF AND MUL OR SWAP1 SSTORE POP POP POP SUB SWAP1 POP CALLER PUSH1 0x5 PUSH1 0x0 DUP4 DUP2 MSTORE PUSH1 0x20 ADD SWAP1 DUP2 MSTORE PUSH1 0x20 ADD PUSH1 0x0 KECCAK256 PUSH1 0x0 PUSH2 0x100 EXP DUP2 SLOAD DUP2 PUSH20 0xFFFFFFFFFFFFFFFFFFFFFFFFFFFFFFFFFFFFFFFF MUL NOT AND SWAP1 DUP4 PUSH20 0xFFFFFFFFFFFFFFFFFFFFFFFFFFFFFFFFFFFFFFFF AND MUL OR SWAP1 SSTORE POP PUSH1 0x6 PUSH1 0x0 CALLER PUSH20 0xFFFFFFFFFFFFFFFFFFFFFFFFFFFFFFFFFFFFFFFF AND PUSH20 0xFFFFFFFFFFFFFFFFFFFFFFFFFFFFFFFFFFFFFFFF AND DUP2 MSTORE PUSH1 0x20 ADD SWAP1 DUP2 MSTORE PUSH1 0x20 ADD PUSH1 0x0 KECCAK256 PUSH1 0x0 DUP2 SLOAD DUP1 SWAP3 SWAP2 SWAP1 PUSH1 0x1 ADD SWAP2 SWAP1 POP SSTORE POP PUSH32 0x7BE46EB2DBA0B4DD932CD8C8CF7A4471478B8E52413BB8E9E88580596866431 DUP2 DUP6 DUP6 PUSH1 0x40 MLOAD DUP1 DUP5 DUP2 MSTORE PUSH1 0x20 ADD DUP1 PUSH1 0x20 ADD DUP4 DUP2 MSTORE PUSH1 0x20 ADD DUP3 DUP2 SUB DUP3 MSTORE DUP5 DUP2 DUP2 MLOAD DUP2 MSTORE PUSH1 0x20 ADD SWAP2 POP DUP1 MLOAD SWAP1 PUSH1 0x20 ADD SWAP1 DUP1 DUP4 DUP4 PUSH1 0x0 JUMPDEST DUP4 DUP2 LT ISZERO PUSH2 0x1052 JUMPI DUP1 DUP3 ADD MLOAD DUP2 DUP5 ADD MSTORE PUSH1 0x20 DUP2 ADD SWAP1 POP PUSH2 0x1037 JUMP JUMPDEST POP POP POP POP SWAP1 POP SWAP1 DUP2 ADD SWAP1 PUSH1 0x1F AND DUP1 ISZERO PUSH2 0x107F JUMPI DUP1 DUP3 SUB DUP1 MLOAD PUSH1 0x1 DUP4 PUSH1 0x20 SUB PUSH2 0x100 EXP SUB NOT AND DUP2 MSTORE PUSH1 0x20 ADD SWAP2 POP JUMPDEST POP SWAP5 POP POP POP POP POP PUSH1 0x40 MLOAD DUP1 SWAP2 SUB SWAP1 LOG1 POP POP POP POP JUMP JUMPDEST PUSH1 0x20 PUSH1 0x40 MLOAD SWAP1 DUP2 ADD PUSH1 0x40 MSTORE DUP1 PUSH1 0x0 DUP2 MSTORE POP SWAP1 JUMP JUMPDEST DUP3 DUP1 SLOAD PUSH1 0x1 DUP2 PUSH1 0x1 AND ISZERO PUSH2 0x100 MUL SUB AND PUSH1 0x2 SWAP1 DIV SWAP1 PUSH1 0x0 MSTORE PUSH1 0x20 PUSH1 0x0 KECCAK256 SWAP1 PUSH1 0x1F ADD PUSH1 0x20 SWAP1 DIV DUP2 ADD SWAP3 DUP3 PUSH1 0x1F LT PUSH2 0x10E9 JUMPI DUP1 CALLDATALOAD PUSH1 0xFF NOT AND DUP4 DUP1 ADD OR DUP6 SSTORE PUSH2 0x1117 JUMP JUMPDEST DUP3 DUP1 ADD PUSH1 0x1 ADD DUP6 SSTORE DUP3 ISZERO PUSH2 0x1117 JUMPI SWAP2 DUP3 ADD JUMPDEST DUP3 DUP2 GT ISZERO PUSH2 0x1116 JUMPI DUP3 CALLDATALOAD DUP3 SSTORE SWAP2 PUSH1 0x20 ADD SWAP2 SWAP1 PUSH1 0x1 ADD SWAP1 PUSH2 0x10FB JUMP JUMPDEST JUMPDEST POP SWAP1 POP PUSH2 0x1124 SWAP2 SWAP1 PUSH2 0x11DA JUMP JUMPDEST POP SWAP1 JUMP JUMPDEST DUP2 SLOAD DUP2 DUP4 SSTORE DUP2 DUP2 ISZERO GT PUSH2 0x1155 JUMPI PUSH1 0x3 MUL DUP2 PUSH1 0x3 MUL DUP4 PUSH1 0x0 MSTORE PUSH1 0x20 PUSH1 0x0 KECCAK256 SWAP2 DUP3 ADD SWAP2 ADD PUSH2 0x1154 SWAP2 SWAP1 PUSH2 0x11FF JUMP JUMPDEST JUMPDEST POP POP POP JUMP JUMPDEST DUP3 DUP1 SLOAD PUSH1 0x1 DUP2 PUSH1 0x1 AND ISZERO PUSH2 0x100 MUL SUB AND PUSH1 0x2 SWAP1 DIV SWAP1 PUSH1 0x0 MSTORE PUSH1 0x20 PUSH1 0x0 KECCAK256 SWAP1 PUSH1 0x1F ADD PUSH1 0x20 SWAP1 DIV DUP2 ADD SWAP3 DUP3 PUSH1 0x1F LT PUSH2 0x119B JUMPI DUP1 MLOAD PUSH1 0xFF NOT AND DUP4 DUP1 ADD OR DUP6 SSTORE PUSH2 0x11C9 JUMP JUMPDEST DUP3 DUP1 ADD PUSH1 0x1 ADD DUP6 SSTORE DUP3 ISZERO PUSH2 0x11C9 JUMPI SWAP2 DUP3 ADD JUMPDEST DUP3 DUP2 GT ISZERO PUSH2 0x11C8 JUMPI DUP3 MLOAD DUP3 SSTORE SWAP2 PUSH1 0x20 ADD SWAP2 SWAP1 PUSH1 0x1 ADD SWAP1 PUSH2 0x11AD JUMP JUMPDEST JUMPDEST POP SWAP1 POP PUSH2 0x11D6 SWAP2 SWAP1 PUSH2 0x11DA JUMP JUMPDEST POP SWAP1 JUMP JUMPDEST PUSH2 0x11FC SWAP2 SWAP1 JUMPDEST DUP1 DUP3 GT ISZERO PUSH2 0x11F8 JUMPI PUSH1 0x0 DUP2 PUSH1 0x0 SWAP1 SSTORE POP PUSH1 0x1 ADD PUSH2 0x11E0 JUMP JUMPDEST POP SWAP1 JUMP JUMPDEST SWAP1 JUMP JUMPDEST PUSH2 0x1261 SWAP2 SWAP1 JUMPDEST DUP1 DUP3 GT ISZERO PUSH2 0x125D JUMPI PUSH1 0x0 DUP1 DUP3 ADD PUSH1 0x0 PUSH2 0x121E SWAP2 SWAP1 PUSH2 0x1264 JUMP JUMPDEST PUSH1 0x1 DUP3 ADD PUSH1 0x0 SWAP1 SSTORE PUSH1 0x2 DUP3 ADD PUSH1 0x0 PUSH2 0x100 EXP DUP2 SLOAD SWAP1 PUSH4 0xFFFFFFFF MUL NOT AND SWAP1 SSTORE PUSH1 0x2 DUP3 ADD PUSH1 0x4 PUSH2 0x100 EXP DUP2 SLOAD SWAP1 PUSH4 0xFFFFFFFF MUL NOT AND SWAP1 SSTORE POP PUSH1 0x3 ADD PUSH2 0x1205 JUMP JUMPDEST POP SWAP1 JUMP JUMPDEST SWAP1 JUMP JUMPDEST POP DUP1 SLOAD PUSH1 0x1 DUP2 PUSH1 0x1 AND ISZERO PUSH2 0x100 MUL SUB AND PUSH1 0x2 SWAP1 DIV PUSH1 0x0 DUP3 SSTORE DUP1 PUSH1 0x1F LT PUSH2 0x128A JUMPI POP PUSH2 0x12A9 JUMP JUMPDEST PUSH1 0x1F ADD PUSH1 0x20 SWAP1 DIV SWAP1 PUSH1 0x0 MSTORE PUSH1 0x20 PUSH1 0x0 KECCAK256 SWAP1 DUP2 ADD SWAP1 PUSH2 0x12A8 SWAP2 SWAP1 PUSH2 0x11DA JUMP JUMPDEST JUMPDEST POP JUMP STOP LOG1 PUSH6 0x627A7A723058 KECCAK256 PUSH5 0x22119C28B5 0xd4 0xdb LOG0 0xad 0xe0 0xc8 ORIGIN PUSH12 0x54C281E02B30BB3845E0DB6 SWAP5 0xd2 NOT 0xd1 LOG0 SELFDESTRUCT STOP 0x29 "
				},
				"gasEstimates": {
					"creation": {
						"codeDepositCost": "964800",
						"executionCost": "101530",
						"totalCost": "1066330"
					},
					"external": {
						"animalToOwner(uint256)": "775",
						"animals(uint256)": "infinite",
						"changeDna(uint256,uint256)": "21492",
						"changeName(uint256,string)": "infinite",
						"createRandomAnimal(string)": "infinite",
						"feedOnFood(uint256,uint256)": "infinite",
						"getAnimalsByOwner(address)": "infinite",
						"owner()": "522",
						"ownerAnimalCount(address)": "700",
						"powerUp(uint256)": "21713",
						"powerUpFee()": "672",
						"setPowerUpFee(uint256)": "20564",
						"transferOwnership(address)": "22802",
						"withdraw()": "infinite"
					}
				},
				"methodIdentifiers": {
					"animalToOwner(uint256)": "d81c513a",
					"animals(uint256)": "998dd3ca",
					"changeDna(uint256,uint256)": "5faf2880",
					"changeName(uint256,string)": "c39cbef1",
					"createRandomAnimal(string)": "9abfb23e",
					"feedOnFood(uint256,uint256)": "5c8f191d",
					"getAnimalsByOwner(address)": "6485be27",
					"owner()": "8da5cb5b",
					"ownerAnimalCount(address)": "a936b8c9",
					"powerUp(uint256)": "9a6bd379",
					"powerUpFee()": "f715ea68",
					"setPowerUpFee(uint256)": "90b0722e",
					"transferOwnership(address)": "f2fde38b",
					"withdraw()": "3ccfd60b"
				}
			},
			"userdoc": {
				"methods": {}
			}
		}
	}
}