{
	"contracts/AnimalAttack.sol": {
		"AnimalAttack": {
			"abi": [
				{
					"constant": false,
					"inputs": [],
					"name": "withdraw",
					"outputs": [],
					"payable": false,
					"stateMutability": "nonpayable",
					"type": "function"
				},
				{
					"constant": false,
					"inputs": [
						{
							"name": "_AnimalId",
							"type": "uint256"
						},
						{
							"name": "_FoodId",
							"type": "uint256"
						}
					],
					"name": "feedOnFood",
					"outputs": [],
					"payable": false,
					"stateMutability": "nonpayable",
					"type": "function"
				},
				{
					"constant": false,
					"inputs": [
						{
							"name": "_AnimalId",
							"type": "uint256"
						},
						{
							"name": "_newDna",
							"type": "uint256"
						}
					],
					"name": "changeDna",
					"outputs": [],
					"payable": false,
					"stateMutability": "nonpayable",
					"type": "function"
				},
				{
					"constant": true,
					"inputs": [
						{
							"name": "_owner",
							"type": "address"
						}
					],
					"name": "getAnimalsByOwner",
					"outputs": [
						{
							"name": "",
							"type": "uint256[]"
						}
					],
					"payable": false,
					"stateMutability": "view",
					"type": "function"
				},
				{
					"constant": true,
					"inputs": [
						{
							"name": "",
							"type": "uint256"
						}
					],
					"name": "petStates",
					"outputs": [
						{
							"name": "winCount",
							"type": "uint256"
						},
						{
							"name": "lossCount",
							"type": "uint256"
						}
					],
					"payable": false,
					"stateMutability": "view",
					"type": "function"
				},
				{
					"constant": true,
					"inputs": [],
					"name": "owner",
					"outputs": [
						{
							"name": "",
							"type": "address"
						}
					],
					"payable": false,
					"stateMutability": "view",
					"type": "function"
				},
				{
					"constant": false,
					"inputs": [
						{
							"name": "_fee",
							"type": "uint256"
						}
					],
					"name": "setPowerUpFee",
					"outputs": [],
					"payable": false,
					"stateMutability": "nonpayable",
					"type": "function"
				},
				{
					"constant": true,
					"inputs": [
						{
							"name": "",
							"type": "uint256"
						}
					],
					"name": "animals",
					"outputs": [
						{
							"name": "name",
							"type": "string"
						},
						{
							"name": "dna",
							"type": "uint256"
						},
						{
							"name": "level",
							"type": "uint32"
						},
						{
							"name": "readyTime",
							"type": "uint32"
						}
					],
					"payable": false,
					"stateMutability": "view",
					"type": "function"
				},
				{
					"constant": false,
					"inputs": [
						{
							"name": "_animalId",
							"type": "uint256"
						}
					],
					"name": "powerUp",
					"outputs": [],
					"payable": true,
					"stateMutability": "payable",
					"type": "function"
				},
				{
					"constant": false,
					"inputs": [
						{
							"name": "_name",
							"type": "string"
						}
					],
					"name": "createRandomAnimal",
					"outputs": [],
					"payable": false,
					"stateMutability": "nonpayable",
					"type": "function"
				},
				{
					"constant": true,
					"inputs": [
						{
							"name": "",
							"type": "address"
						}
					],
					"name": "ownerAnimalCount",
					"outputs": [
						{
							"name": "",
							"type": "uint256"
						}
					],
					"payable": false,
					"stateMutability": "view",
					"type": "function"
				},
				{
					"constant": false,
					"inputs": [
						{
							"name": "_AnimalId",
							"type": "uint256"
						},
						{
							"name": "_newName",
							"type": "string"
						}
					],
					"name": "changeName",
					"outputs": [],
					"payable": false,
					"stateMutability": "nonpayable",
					"type": "function"
				},
				{
					"constant": true,
					"inputs": [
						{
							"name": "",
							"type": "uint256"
						}
					],
					"name": "animalToOwner",
					"outputs": [
						{
							"name": "",
							"type": "address"
						}
					],
					"payable": false,
					"stateMutability": "view",
					"type": "function"
				},
				{
					"constant": false,
					"inputs": [
						{
							"name": "_myPetId",
							"type": "uint256"
						},
						{
							"name": "_opponentPetId",
							"type": "uint256"
						}
					],
					"name": "attack",
					"outputs": [],
					"payable": false,
					"stateMutability": "nonpayable",
					"type": "function"
				},
				{
					"constant": false,
					"inputs": [
						{
							"name": "newOwner",
							"type": "address"
						}
					],
					"name": "transferOwnership",
					"outputs": [],
					"payable": false,
					"stateMutability": "nonpayable",
					"type": "function"
				},
				{
					"constant": true,
					"inputs": [],
					"name": "powerUpFee",
					"outputs": [
						{
							"name": "",
							"type": "uint256"
						}
					],
					"payable": false,
					"stateMutability": "view",
					"type": "function"
				},
				{
					"anonymous": false,
					"inputs": [
						{
							"indexed": false,
							"name": "AnimalId",
							"type": "uint256"
						},
						{
							"indexed": false,
							"name": "name",
							"type": "string"
						},
						{
							"indexed": false,
							"name": "dna",
							"type": "uint256"
						}
					],
					"name": "NewAnimal",
					"type": "event"
				},
				{
					"anonymous": false,
					"inputs": [
						{
							"indexed": true,
							"name": "previousOwner",
							"type": "address"
						},
						{
							"indexed": true,
							"name": "newOwner",
							"type": "address"
						}
					],
					"name": "OwnershipTransferred",
					"type": "event"
				}
			],
			"devdoc": {
				"methods": {}
			},
			"evm": {
				"assembly": "    /* \"contracts/AnimalAttack.sol\":287:2110  contract AnimalAttack is AnimalHelper {\r... */\n  mstore(0x40, 0x60)\n    /* \"contracts/AnimalIncubators_prc3.sol\":340:342  16 */\n  0x10\n    /* \"contracts/AnimalIncubators_prc3.sol\":323:342  uint dnaDigits = 16 */\n  0x1\n  sstore\n    /* \"contracts/AnimalIncubators_prc3.sol\":372:381  dnaDigits */\n  sload(0x1)\n    /* \"contracts/AnimalIncubators_prc3.sol\":366:368  10 */\n  0xa\n    /* \"contracts/AnimalIncubators_prc3.sol\":366:381  10 ** dnaDigits */\n  exp\n    /* \"contracts/AnimalIncubators_prc3.sol\":349:381  uint dnaLength = 10 ** dnaDigits */\n  0x2\n  sstore\n    /* \"contracts/AnimalIncubators_prc3.sol\":463:473  60 seconds */\n  0x3c\n    /* \"contracts/AnimalIncubators_prc3.sol\":443:473  uint cooldownTime = 60 seconds */\n  0x3\n  sstore\n    /* \"contracts/AnimalHelper_prc4.sol\":1753:1764  0.001 ether */\n  0x38d7ea4c68000\n    /* \"contracts/AnimalHelper_prc4.sol\":1728:1764  uint public powerUpFee = 0.001 ether */\n  0x7\n  sstore\n    /* \"contracts/ownable.sol\":308:318  msg.sender */\n  caller\n    /* \"contracts/ownable.sol\":300:305  owner */\n  0x0\n  dup1\n    /* \"contracts/ownable.sol\":300:318  owner = msg.sender */\n  0x100\n  exp\n  dup2\n  sload\n  dup2\n  0xffffffffffffffffffffffffffffffffffffffff\n  mul\n  not\n  and\n  swap1\n  dup4\n  0xffffffffffffffffffffffffffffffffffffffff\n  and\n  mul\n  or\n  swap1\n  sstore\n  pop\n    /* \"contracts/AnimalAttack.sol\":287:2110  contract AnimalAttack is AnimalHelper {\r... */\n  dataSize(sub_0)\n  dup1\n  dataOffset(sub_0)\n  0x0\n  codecopy\n  0x0\n  return\nstop\n\nsub_0: assembly {\n        /* \"contracts/AnimalAttack.sol\":287:2110  contract AnimalAttack is AnimalHelper {\r... */\n      mstore(0x40, 0x60)\n      jumpi(tag_1, lt(calldatasize, 0x4))\n      calldataload(0x0)\n      0x100000000000000000000000000000000000000000000000000000000\n      swap1\n      div\n      0xffffffff\n      and\n      dup1\n      0x3ccfd60b\n      eq\n      tag_2\n      jumpi\n      dup1\n      0x5c8f191d\n      eq\n      tag_3\n      jumpi\n      dup1\n      0x5faf2880\n      eq\n      tag_4\n      jumpi\n      dup1\n      0x6485be27\n      eq\n      tag_5\n      jumpi\n      dup1\n      0x83ae8b47\n      eq\n      tag_6\n      jumpi\n      dup1\n      0x8da5cb5b\n      eq\n      tag_7\n      jumpi\n      dup1\n      0x90b0722e\n      eq\n      tag_8\n      jumpi\n      dup1\n      0x998dd3ca\n      eq\n      tag_9\n      jumpi\n      dup1\n      0x9a6bd379\n      eq\n      tag_10\n      jumpi\n      dup1\n      0x9abfb23e\n      eq\n      tag_11\n      jumpi\n      dup1\n      0xa936b8c9\n      eq\n      tag_12\n      jumpi\n      dup1\n      0xc39cbef1\n      eq\n      tag_13\n      jumpi\n      dup1\n      0xd81c513a\n      eq\n      tag_14\n      jumpi\n      dup1\n      0xe1fa7638\n      eq\n      tag_15\n      jumpi\n      dup1\n      0xf2fde38b\n      eq\n      tag_16\n      jumpi\n      dup1\n      0xf715ea68\n      eq\n      tag_17\n      jumpi\n    tag_1:\n      0x0\n      dup1\n      revert\n        /* \"contracts/AnimalHelper_prc4.sol\":2469:2623  function withdraw() external onlyOwner {\r... */\n    tag_2:\n      jumpi(tag_18, iszero(callvalue))\n      0x0\n      dup1\n      revert\n    tag_18:\n      tag_19\n      jump(tag_20)\n    tag_19:\n      stop\n        /* \"contracts/AnimalFeeding_prc3.sol\":1284:1446  function feedOnFood(uint _AnimalId, uint _FoodId) public {\r... */\n    tag_3:\n      jumpi(tag_21, iszero(callvalue))\n      0x0\n      dup1\n      revert\n    tag_21:\n      tag_22\n      0x4\n      dup1\n      dup1\n      calldataload\n      swap1\n      0x20\n      add\n      swap1\n      swap2\n      swap1\n      dup1\n      calldataload\n      swap1\n      0x20\n      add\n      swap1\n      swap2\n      swap1\n      pop\n      pop\n      jump(tag_23)\n    tag_22:\n      stop\n        /* \"contracts/AnimalHelper_prc4.sol\":821:1039  function changeDna(uint _AnimalId, uint _newDna) \r... */\n    tag_4:\n      jumpi(tag_24, iszero(callvalue))\n      0x0\n      dup1\n      revert\n    tag_24:\n      tag_25\n      0x4\n      dup1\n      dup1\n      calldataload\n      swap1\n      0x20\n      add\n      swap1\n      swap2\n      swap1\n      dup1\n      calldataload\n      swap1\n      0x20\n      add\n      swap1\n      swap2\n      swap1\n      pop\n      pop\n      jump(tag_26)\n    tag_25:\n      stop\n        /* \"contracts/AnimalHelper_prc4.sol\":1047:1478  function getAnimalsByOwner(address _owner) \r... */\n    tag_5:\n      jumpi(tag_27, iszero(callvalue))\n      0x0\n      dup1\n      revert\n    tag_27:\n      tag_28\n      0x4\n      dup1\n      dup1\n      calldataload\n      0xffffffffffffffffffffffffffffffffffffffff\n      and\n      swap1\n      0x20\n      add\n      swap1\n      swap2\n      swap1\n      pop\n      pop\n      jump(tag_29)\n    tag_28:\n      mload(0x40)\n      dup1\n      dup1\n      0x20\n      add\n      dup3\n      dup2\n      sub\n      dup3\n      mstore\n      dup4\n      dup2\n      dup2\n      mload\n      dup2\n      mstore\n      0x20\n      add\n      swap2\n      pop\n      dup1\n      mload\n      swap1\n      0x20\n      add\n      swap1\n      0x20\n      mul\n      dup1\n      dup4\n      dup4\n        /* \"--CODEGEN--\":23:24   */\n      0x0\n        /* \"--CODEGEN--\":8:108   */\n    tag_30:\n        /* \"--CODEGEN--\":33:36   */\n      dup4\n        /* \"--CODEGEN--\":30:31   */\n      dup2\n        /* \"--CODEGEN--\":27:29   */\n      lt\n        /* \"--CODEGEN--\":8:108   */\n      iszero\n      tag_31\n      jumpi\n        /* \"--CODEGEN--\":99:100   */\n      dup1\n        /* \"--CODEGEN--\":94:97   */\n      dup3\n        /* \"--CODEGEN--\":90:93   */\n      add\n        /* \"--CODEGEN--\":84:89   */\n      mload\n        /* \"--CODEGEN--\":80:81   */\n      dup2\n        /* \"--CODEGEN--\":75:78   */\n      dup5\n        /* \"--CODEGEN--\":71:74   */\n      add\n        /* \"--CODEGEN--\":64:70   */\n      mstore\n        /* \"--CODEGEN--\":52:54   */\n      0x20\n        /* \"--CODEGEN--\":49:50   */\n      dup2\n        /* \"--CODEGEN--\":45:48   */\n      add\n        /* \"--CODEGEN--\":40:55   */\n      swap1\n      pop\n        /* \"--CODEGEN--\":8:108   */\n      jump(tag_30)\n    tag_31:\n        /* \"--CODEGEN--\":12:26   */\n      pop\n        /* \"--CODEGEN--\":3:112   */\n      pop\n      pop\n      pop\n      swap1\n      pop\n      add\n      swap3\n      pop\n      pop\n      pop\n      mload(0x40)\n      dup1\n      swap2\n      sub\n      swap1\n      return\n        /* \"contracts/AnimalAttack.sol\":552:596  mapping (uint => PetStates) public petStates */\n    tag_6:\n      jumpi(tag_33, iszero(callvalue))\n      0x0\n      dup1\n      revert\n    tag_33:\n      tag_34\n      0x4\n      dup1\n      dup1\n      calldataload\n      swap1\n      0x20\n      add\n      swap1\n      swap2\n      swap1\n      pop\n      pop\n      jump(tag_35)\n    tag_34:\n      mload(0x40)\n      dup1\n      dup4\n      dup2\n      mstore\n      0x20\n      add\n      dup3\n      dup2\n      mstore\n      0x20\n      add\n      swap3\n      pop\n      pop\n      pop\n      mload(0x40)\n      dup1\n      swap2\n      sub\n      swap1\n      return\n        /* \"contracts/ownable.sol\":121:141  address public owner */\n    tag_7:\n      jumpi(tag_36, iszero(callvalue))\n      0x0\n      dup1\n      revert\n    tag_36:\n      tag_37\n      jump(tag_38)\n    tag_37:\n      mload(0x40)\n      dup1\n      dup3\n      0xffffffffffffffffffffffffffffffffffffffff\n      and\n      0xffffffffffffffffffffffffffffffffffffffff\n      and\n      dup2\n      mstore\n      0x20\n      add\n      swap2\n      pop\n      pop\n      mload(0x40)\n      dup1\n      swap2\n      sub\n      swap1\n      return\n        /* \"contracts/AnimalHelper_prc4.sol\":2689:2893  function setPowerUpFee(uint _fee) external onlyOwner {\r... */\n    tag_8:\n      jumpi(tag_39, iszero(callvalue))\n      0x0\n      dup1\n      revert\n    tag_39:\n      tag_40\n      0x4\n      dup1\n      dup1\n      calldataload\n      swap1\n      0x20\n      add\n      swap1\n      swap2\n      swap1\n      pop\n      pop\n      jump(tag_41)\n    tag_40:\n      stop\n        /* \"contracts/AnimalIncubators_prc3.sol\":703:726  Animal[] public animals */\n    tag_9:\n      jumpi(tag_42, iszero(callvalue))\n      0x0\n      dup1\n      revert\n    tag_42:\n      tag_43\n      0x4\n      dup1\n      dup1\n      calldataload\n      swap1\n      0x20\n      add\n      swap1\n      swap2\n      swap1\n      pop\n      pop\n      jump(tag_44)\n    tag_43:\n      mload(0x40)\n      dup1\n      dup1\n      0x20\n      add\n      dup6\n      dup2\n      mstore\n      0x20\n      add\n      dup5\n      0xffffffff\n      and\n      0xffffffff\n      and\n      dup2\n      mstore\n      0x20\n      add\n      dup4\n      0xffffffff\n      and\n      0xffffffff\n      and\n      dup2\n      mstore\n      0x20\n      add\n      dup3\n      dup2\n      sub\n      dup3\n      mstore\n      dup7\n      dup2\n      dup2\n      sload\n      0x1\n      dup2\n      0x1\n      and\n      iszero\n      0x100\n      mul\n      sub\n      and\n      0x2\n      swap1\n      div\n      dup2\n      mstore\n      0x20\n      add\n      swap2\n      pop\n      dup1\n      sload\n      0x1\n      dup2\n      0x1\n      and\n      iszero\n      0x100\n      mul\n      sub\n      and\n      0x2\n      swap1\n      div\n      dup1\n      iszero\n      tag_45\n      jumpi\n      dup1\n      0x1f\n      lt\n      tag_46\n      jumpi\n      0x100\n      dup1\n      dup4\n      sload\n      div\n      mul\n      dup4\n      mstore\n      swap2\n      0x20\n      add\n      swap2\n      jump(tag_45)\n    tag_46:\n      dup3\n      add\n      swap2\n      swap1\n      0x0\n      mstore\n      keccak256(0x0, 0x20)\n      swap1\n    tag_47:\n      dup2\n      sload\n      dup2\n      mstore\n      swap1\n      0x1\n      add\n      swap1\n      0x20\n      add\n      dup1\n      dup4\n      gt\n      tag_47\n      jumpi\n      dup3\n      swap1\n      sub\n      0x1f\n      and\n      dup3\n      add\n      swap2\n    tag_45:\n      pop\n      pop\n      swap6\n      pop\n      pop\n      pop\n      pop\n      pop\n      pop\n      mload(0x40)\n      dup1\n      swap2\n      sub\n      swap1\n      return\n        /* \"contracts/AnimalHelper_prc4.sol\":1878:2275  function powerUp(uint _animalId) external payable {\r... */\n    tag_10:\n      tag_48\n      0x4\n      dup1\n      dup1\n      calldataload\n      swap1\n      0x20\n      add\n      swap1\n      swap2\n      swap1\n      pop\n      pop\n      jump(tag_49)\n    tag_48:\n      stop\n        /* \"contracts/AnimalIncubators_prc3.sol\":1588:1885  function createRandomAnimal(string _name) public {\r... */\n    tag_11:\n      jumpi(tag_50, iszero(callvalue))\n      0x0\n      dup1\n      revert\n    tag_50:\n      tag_51\n      0x4\n      dup1\n      dup1\n      calldataload\n      swap1\n      0x20\n      add\n      swap1\n      dup3\n      add\n      dup1\n      calldataload\n      swap1\n      0x20\n      add\n      swap1\n      dup1\n      dup1\n      0x1f\n      add\n      0x20\n      dup1\n      swap2\n      div\n      mul\n      0x20\n      add\n      mload(0x40)\n      swap1\n      dup2\n      add\n      0x40\n      mstore\n      dup1\n      swap4\n      swap3\n      swap2\n      swap1\n      dup2\n      dup2\n      mstore\n      0x20\n      add\n      dup4\n      dup4\n      dup1\n      dup3\n      dup5\n      calldatacopy\n      dup3\n      add\n      swap2\n      pop\n      pop\n      pop\n      pop\n      pop\n      pop\n      swap2\n      swap1\n      pop\n      pop\n      jump(tag_52)\n    tag_51:\n      stop\n        /* \"contracts/AnimalIncubators_prc3.sol\":788:837  mapping (address => uint) public ownerAnimalCount */\n    tag_12:\n      jumpi(tag_53, iszero(callvalue))\n      0x0\n      dup1\n      revert\n    tag_53:\n      tag_54\n      0x4\n      dup1\n      dup1\n      calldataload\n      0xffffffffffffffffffffffffffffffffffffffff\n      and\n      swap1\n      0x20\n      add\n      swap1\n      swap2\n      swap1\n      pop\n      pop\n      jump(tag_55)\n    tag_54:\n      mload(0x40)\n      dup1\n      dup3\n      dup2\n      mstore\n      0x20\n      add\n      swap2\n      pop\n      pop\n      mload(0x40)\n      dup1\n      swap2\n      sub\n      swap1\n      return\n        /* \"contracts/AnimalHelper_prc4.sol\":590:813  function changeName(uint _AnimalId, string _newName) \r... */\n    tag_13:\n      jumpi(tag_56, iszero(callvalue))\n      0x0\n      dup1\n      revert\n    tag_56:\n      tag_57\n      0x4\n      dup1\n      dup1\n      calldataload\n      swap1\n      0x20\n      add\n      swap1\n      swap2\n      swap1\n      dup1\n      calldataload\n      swap1\n      0x20\n      add\n      swap1\n      dup3\n      add\n      dup1\n      calldataload\n      swap1\n      0x20\n      add\n      swap2\n      swap1\n      swap2\n      swap3\n      swap1\n      pop\n      pop\n      jump(tag_58)\n    tag_57:\n      stop\n        /* \"contracts/AnimalIncubators_prc3.sol\":735:781  mapping (uint => address) public animalToOwner */\n    tag_14:\n      jumpi(tag_59, iszero(callvalue))\n      0x0\n      dup1\n      revert\n    tag_59:\n      tag_60\n      0x4\n      dup1\n      dup1\n      calldataload\n      swap1\n      0x20\n      add\n      swap1\n      swap2\n      swap1\n      pop\n      pop\n      jump(tag_61)\n    tag_60:\n      mload(0x40)\n      dup1\n      dup3\n      0xffffffffffffffffffffffffffffffffffffffff\n      and\n      0xffffffffffffffffffffffffffffffffffffffff\n      and\n      dup2\n      mstore\n      0x20\n      add\n      swap2\n      pop\n      pop\n      mload(0x40)\n      dup1\n      swap2\n      sub\n      swap1\n      return\n        /* \"contracts/AnimalAttack.sol\":1062:2107  function attack(uint _myPetId, uint _opponentPetId) external {\r... */\n    tag_15:\n      jumpi(tag_62, iszero(callvalue))\n      0x0\n      dup1\n      revert\n    tag_62:\n      tag_63\n      0x4\n      dup1\n      dup1\n      calldataload\n      swap1\n      0x20\n      add\n      swap1\n      swap2\n      swap1\n      dup1\n      calldataload\n      swap1\n      0x20\n      add\n      swap1\n      swap2\n      swap1\n      pop\n      pop\n      jump(tag_64)\n    tag_63:\n      stop\n        /* \"contracts/ownable.sol\":470:725  function transferOwnership(address newOwner) public onlyOwner {\r... */\n    tag_16:\n      jumpi(tag_65, iszero(callvalue))\n      0x0\n      dup1\n      revert\n    tag_65:\n      tag_66\n      0x4\n      dup1\n      dup1\n      calldataload\n      0xffffffffffffffffffffffffffffffffffffffff\n      and\n      swap1\n      0x20\n      add\n      swap1\n      swap2\n      swap1\n      pop\n      pop\n      jump(tag_67)\n    tag_66:\n      stop\n        /* \"contracts/AnimalHelper_prc4.sol\":1728:1764  uint public powerUpFee = 0.001 ether */\n    tag_17:\n      jumpi(tag_68, iszero(callvalue))\n      0x0\n      dup1\n      revert\n    tag_68:\n      tag_69\n      jump(tag_70)\n    tag_69:\n      mload(0x40)\n      dup1\n      dup3\n      dup2\n      mstore\n      0x20\n      add\n      swap2\n      pop\n      pop\n      mload(0x40)\n      dup1\n      swap2\n      sub\n      swap1\n      return\n        /* \"contracts/AnimalHelper_prc4.sol\":2469:2623  function withdraw() external onlyOwner {\r... */\n    tag_20:\n        /* \"contracts/ownable.sol\":406:411  owner */\n      0x0\n      dup1\n      swap1\n      sload\n      swap1\n      0x100\n      exp\n      swap1\n      div\n      0xffffffffffffffffffffffffffffffffffffffff\n      and\n        /* \"contracts/ownable.sol\":392:411  msg.sender == owner */\n      0xffffffffffffffffffffffffffffffffffffffff\n      and\n        /* \"contracts/ownable.sol\":392:402  msg.sender */\n      caller\n        /* \"contracts/ownable.sol\":392:411  msg.sender == owner */\n      0xffffffffffffffffffffffffffffffffffffffff\n      and\n      eq\n        /* \"contracts/ownable.sol\":384:412  require(msg.sender == owner) */\n      iszero\n      iszero\n      tag_72\n      jumpi\n      0x0\n      dup1\n      revert\n    tag_72:\n        /* \"contracts/AnimalHelper_prc4.sol\":2578:2583  owner */\n      0x0\n      dup1\n      swap1\n      sload\n      swap1\n      0x100\n      exp\n      swap1\n      div\n      0xffffffffffffffffffffffffffffffffffffffff\n      and\n        /* \"contracts/AnimalHelper_prc4.sol\":2578:2592  owner.transfer */\n      0xffffffffffffffffffffffffffffffffffffffff\n      and\n        /* \"contracts/AnimalHelper_prc4.sol\":2578:2615  owner.transfer(address(this).balance) */\n      0x8fc\n        /* \"contracts/AnimalHelper_prc4.sol\":2601:2605  this */\n      address\n        /* \"contracts/AnimalHelper_prc4.sol\":2593:2614  address(this).balance */\n      0xffffffffffffffffffffffffffffffffffffffff\n      and\n      balance\n        /* \"contracts/AnimalHelper_prc4.sol\":2578:2615  owner.transfer(address(this).balance) */\n      swap1\n      dup2\n      iszero\n      mul\n      swap1\n      mload(0x40)\n      0x0\n      mload(0x40)\n      dup1\n      dup4\n      sub\n      dup2\n      dup6\n      dup9\n      dup9\n      call\n      swap4\n      pop\n      pop\n      pop\n      pop\n      iszero\n      iszero\n      tag_74\n      jumpi\n      0x0\n      dup1\n      revert\n    tag_74:\n        /* \"contracts/AnimalHelper_prc4.sol\":2469:2623  function withdraw() external onlyOwner {\r... */\n      jump\t// out\n        /* \"contracts/AnimalFeeding_prc3.sol\":1284:1446  function feedOnFood(uint _AnimalId, uint _FoodId) public {\r... */\n    tag_23:\n        /* \"contracts/AnimalFeeding_prc3.sol\":1362:1374  uint foodDna */\n      0x0\n        /* \"contracts/AnimalFeeding_prc3.sol\":1377:1396  _catchFood(_FoodId) */\n      tag_76\n        /* \"contracts/AnimalFeeding_prc3.sol\":1388:1395  _FoodId */\n      dup3\n        /* \"contracts/AnimalFeeding_prc3.sol\":1377:1387  _catchFood */\n      tag_77\n        /* \"contracts/AnimalFeeding_prc3.sol\":1377:1396  _catchFood(_FoodId) */\n      jump\t// in\n    tag_76:\n        /* \"contracts/AnimalFeeding_prc3.sol\":1362:1396  uint foodDna = _catchFood(_FoodId) */\n      swap1\n      pop\n        /* \"contracts/AnimalFeeding_prc3.sol\":1407:1438  feedAndGrow(_AnimalId, foodDna) */\n      tag_78\n        /* \"contracts/AnimalFeeding_prc3.sol\":1419:1428  _AnimalId */\n      dup4\n        /* \"contracts/AnimalFeeding_prc3.sol\":1430:1437  foodDna */\n      dup3\n        /* \"contracts/AnimalFeeding_prc3.sol\":1407:1418  feedAndGrow */\n      tag_79\n        /* \"contracts/AnimalFeeding_prc3.sol\":1407:1438  feedAndGrow(_AnimalId, foodDna) */\n      jump\t// in\n    tag_78:\n        /* \"contracts/AnimalFeeding_prc3.sol\":1284:1446  function feedOnFood(uint _AnimalId, uint _FoodId) public {\r... */\n      pop\n      pop\n      pop\n      jump\t// out\n        /* \"contracts/AnimalHelper_prc4.sol\":821:1039  function changeDna(uint _AnimalId, uint _newDna) \r... */\n    tag_26:\n        /* \"contracts/AnimalHelper_prc4.sol\":910:912  20 */\n      0x14\n        /* \"contracts/AnimalHelper_prc4.sol\":914:923  _AnimalId */\n      dup3\n        /* \"contracts/AnimalHelper_prc4.sol\":555:561  _level */\n      dup2\n        /* \"contracts/AnimalHelper_prc4.sol\":527:534  animals */\n      0x4\n        /* \"contracts/AnimalHelper_prc4.sol\":535:544  _animalId */\n      dup3\n        /* \"contracts/AnimalHelper_prc4.sol\":527:545  animals[_animalId] */\n      dup2\n      sload\n      dup2\n      lt\n      iszero\n      iszero\n      tag_81\n      jumpi\n      invalid\n    tag_81:\n      swap1\n      0x0\n      mstore\n      keccak256(0x0, 0x20)\n      swap1\n      0x3\n      mul\n      add\n        /* \"contracts/AnimalHelper_prc4.sol\":527:551  animals[_animalId].level */\n      0x2\n      add\n      0x0\n      swap1\n      sload\n      swap1\n      0x100\n      exp\n      swap1\n      div\n      0xffffffff\n      and\n        /* \"contracts/AnimalHelper_prc4.sol\":527:561  animals[_animalId].level >= _level */\n      0xffffffff\n      and\n      lt\n      iszero\n        /* \"contracts/AnimalHelper_prc4.sol\":519:562  require(animals[_animalId].level >= _level) */\n      iszero\n      iszero\n      tag_83\n      jumpi\n      0x0\n      dup1\n      revert\n    tag_83:\n        /* \"contracts/AnimalHelper_prc4.sol\":963:976  animalToOwner */\n      0x5\n        /* \"contracts/AnimalHelper_prc4.sol\":963:987  animalToOwner[_AnimalId] */\n      0x0\n        /* \"contracts/AnimalHelper_prc4.sol\":977:986  _AnimalId */\n      dup6\n        /* \"contracts/AnimalHelper_prc4.sol\":963:987  animalToOwner[_AnimalId] */\n      dup2\n      mstore\n      0x20\n      add\n      swap1\n      dup2\n      mstore\n      0x20\n      add\n      0x0\n      keccak256\n      0x0\n      swap1\n      sload\n      swap1\n      0x100\n      exp\n      swap1\n      div\n      0xffffffffffffffffffffffffffffffffffffffff\n      and\n        /* \"contracts/AnimalHelper_prc4.sol\":949:987  msg.sender == animalToOwner[_AnimalId] */\n      0xffffffffffffffffffffffffffffffffffffffff\n      and\n        /* \"contracts/AnimalHelper_prc4.sol\":949:959  msg.sender */\n      caller\n        /* \"contracts/AnimalHelper_prc4.sol\":949:987  msg.sender == animalToOwner[_AnimalId] */\n      0xffffffffffffffffffffffffffffffffffffffff\n      and\n      eq\n        /* \"contracts/AnimalHelper_prc4.sol\":941:988  require(msg.sender == animalToOwner[_AnimalId]) */\n      iszero\n      iszero\n      tag_85\n      jumpi\n      0x0\n      dup1\n      revert\n    tag_85:\n        /* \"contracts/AnimalHelper_prc4.sol\":1024:1031  _newDna */\n      dup3\n        /* \"contracts/AnimalHelper_prc4.sol\":999:1006  animals */\n      0x4\n        /* \"contracts/AnimalHelper_prc4.sol\":1007:1016  _AnimalId */\n      dup6\n        /* \"contracts/AnimalHelper_prc4.sol\":999:1017  animals[_AnimalId] */\n      dup2\n      sload\n      dup2\n      lt\n      iszero\n      iszero\n      tag_86\n      jumpi\n      invalid\n    tag_86:\n      swap1\n      0x0\n      mstore\n      keccak256(0x0, 0x20)\n      swap1\n      0x3\n      mul\n      add\n        /* \"contracts/AnimalHelper_prc4.sol\":999:1021  animals[_AnimalId].dna */\n      0x1\n      add\n        /* \"contracts/AnimalHelper_prc4.sol\":999:1031  animals[_AnimalId].dna = _newDna */\n      dup2\n      swap1\n      sstore\n      pop\n        /* \"contracts/AnimalHelper_prc4.sol\":821:1039  function changeDna(uint _AnimalId, uint _newDna) \r... */\n      pop\n      pop\n      pop\n      pop\n      jump\t// out\n        /* \"contracts/AnimalHelper_prc4.sol\":1047:1478  function getAnimalsByOwner(address _owner) \r... */\n    tag_29:\n        /* \"contracts/AnimalHelper_prc4.sol\":1143:1149  uint[] */\n      tag_88\n      jump\t// in(tag_89)\n    tag_88:\n        /* \"contracts/AnimalHelper_prc4.sol\":1168:1188  uint[] memory result */\n      tag_90\n      jump\t// in(tag_89)\n    tag_90:\n        /* \"contracts/AnimalHelper_prc4.sol\":1238:1250  uint counter */\n      0x0\n        /* \"contracts/AnimalHelper_prc4.sol\":1270:1276  uint i */\n      dup1\n        /* \"contracts/AnimalHelper_prc4.sol\":1202:1218  ownerAnimalCount */\n      0x6\n        /* \"contracts/AnimalHelper_prc4.sol\":1202:1226  ownerAnimalCount[_owner] */\n      0x0\n        /* \"contracts/AnimalHelper_prc4.sol\":1219:1225  _owner */\n      dup7\n        /* \"contracts/AnimalHelper_prc4.sol\":1202:1226  ownerAnimalCount[_owner] */\n      0xffffffffffffffffffffffffffffffffffffffff\n      and\n      0xffffffffffffffffffffffffffffffffffffffff\n      and\n      dup2\n      mstore\n      0x20\n      add\n      swap1\n      dup2\n      mstore\n      0x20\n      add\n      0x0\n      keccak256\n      sload\n        /* \"contracts/AnimalHelper_prc4.sol\":1191:1227  new uint[](ownerAnimalCount[_owner]) */\n      mload(0x40)\n      dup1\n      msize\n      lt\n      tag_92\n      jumpi\n      pop\n      msize\n    tag_92:\n      swap1\n      dup1\n      dup3\n      mstore\n      dup1\n      0x20\n      mul\n      0x20\n      add\n      dup3\n      add\n      0x40\n      mstore\n      pop\n        /* \"contracts/AnimalHelper_prc4.sol\":1168:1227  uint[] memory result = new uint[](ownerAnimalCount[_owner]) */\n      swap3\n      pop\n        /* \"contracts/AnimalHelper_prc4.sol\":1253:1254  0 */\n      0x0\n        /* \"contracts/AnimalHelper_prc4.sol\":1238:1254  uint counter = 0 */\n      swap2\n      pop\n        /* \"contracts/AnimalHelper_prc4.sol\":1279:1280  0 */\n      0x0\n        /* \"contracts/AnimalHelper_prc4.sol\":1270:1280  uint i = 0 */\n      swap1\n      pop\n        /* \"contracts/AnimalHelper_prc4.sol\":1265:1447  for (uint i = 0; i < animals.length; i++) {\r... */\n    tag_94:\n        /* \"contracts/AnimalHelper_prc4.sol\":1286:1293  animals */\n      0x4\n        /* \"contracts/AnimalHelper_prc4.sol\":1286:1300  animals.length */\n      dup1\n      sload\n      swap1\n      pop\n        /* \"contracts/AnimalHelper_prc4.sol\":1282:1283  i */\n      dup2\n        /* \"contracts/AnimalHelper_prc4.sol\":1282:1300  i < animals.length */\n      lt\n        /* \"contracts/AnimalHelper_prc4.sol\":1265:1447  for (uint i = 0; i < animals.length; i++) {\r... */\n      iszero\n      tag_95\n      jumpi\n        /* \"contracts/AnimalHelper_prc4.sol\":1346:1352  _owner */\n      dup5\n        /* \"contracts/AnimalHelper_prc4.sol\":1326:1352  animalToOwner[i] == _owner */\n      0xffffffffffffffffffffffffffffffffffffffff\n      and\n        /* \"contracts/AnimalHelper_prc4.sol\":1326:1339  animalToOwner */\n      0x5\n        /* \"contracts/AnimalHelper_prc4.sol\":1326:1342  animalToOwner[i] */\n      0x0\n        /* \"contracts/AnimalHelper_prc4.sol\":1340:1341  i */\n      dup4\n        /* \"contracts/AnimalHelper_prc4.sol\":1326:1342  animalToOwner[i] */\n      dup2\n      mstore\n      0x20\n      add\n      swap1\n      dup2\n      mstore\n      0x20\n      add\n      0x0\n      keccak256\n      0x0\n      swap1\n      sload\n      swap1\n      0x100\n      exp\n      swap1\n      div\n      0xffffffffffffffffffffffffffffffffffffffff\n      and\n        /* \"contracts/AnimalHelper_prc4.sol\":1326:1352  animalToOwner[i] == _owner */\n      0xffffffffffffffffffffffffffffffffffffffff\n      and\n      eq\n        /* \"contracts/AnimalHelper_prc4.sol\":1322:1436  if (animalToOwner[i] == _owner) {\r... */\n      iszero\n      tag_97\n      jumpi\n        /* \"contracts/AnimalHelper_prc4.sol\":1391:1392  i */\n      dup1\n        /* \"contracts/AnimalHelper_prc4.sol\":1373:1379  result */\n      dup4\n        /* \"contracts/AnimalHelper_prc4.sol\":1380:1387  counter */\n      dup4\n        /* \"contracts/AnimalHelper_prc4.sol\":1373:1388  result[counter] */\n      dup2\n      mload\n      dup2\n      lt\n      iszero\n      iszero\n      tag_98\n      jumpi\n      invalid\n    tag_98:\n      swap1\n      0x20\n      add\n      swap1\n      0x20\n      mul\n      add\n        /* \"contracts/AnimalHelper_prc4.sol\":1373:1392  result[counter] = i */\n      dup2\n      dup2\n      mstore\n      pop\n      pop\n        /* \"contracts/AnimalHelper_prc4.sol\":1411:1420  counter++ */\n      dup2\n      dup1\n      0x1\n      add\n      swap3\n      pop\n      pop\n        /* \"contracts/AnimalHelper_prc4.sol\":1322:1436  if (animalToOwner[i] == _owner) {\r... */\n    tag_97:\n        /* \"contracts/AnimalHelper_prc4.sol\":1302:1305  i++ */\n      dup1\n      dup1\n      0x1\n      add\n      swap2\n      pop\n      pop\n        /* \"contracts/AnimalHelper_prc4.sol\":1265:1447  for (uint i = 0; i < animals.length; i++) {\r... */\n      jump(tag_94)\n    tag_95:\n        /* \"contracts/AnimalHelper_prc4.sol\":1464:1470  result */\n      dup3\n        /* \"contracts/AnimalHelper_prc4.sol\":1457:1470  return result */\n      swap4\n      pop\n        /* \"contracts/AnimalHelper_prc4.sol\":1047:1478  function getAnimalsByOwner(address _owner) \r... */\n      pop\n      pop\n      pop\n      swap2\n      swap1\n      pop\n      jump\t// out\n        /* \"contracts/AnimalAttack.sol\":552:596  mapping (uint => PetStates) public petStates */\n    tag_35:\n      mstore(0x20, 0x8)\n      dup1\n      0x0\n      mstore\n      keccak256(0x0, 0x40)\n      0x0\n      swap2\n      pop\n      swap1\n      pop\n      dup1\n      0x0\n      add\n      sload\n      swap1\n      dup1\n      0x1\n      add\n      sload\n      swap1\n      pop\n      dup3\n      jump\t// out\n        /* \"contracts/ownable.sol\":121:141  address public owner */\n    tag_38:\n      0x0\n      dup1\n      swap1\n      sload\n      swap1\n      0x100\n      exp\n      swap1\n      div\n      0xffffffffffffffffffffffffffffffffffffffff\n      and\n      dup2\n      jump\t// out\n        /* \"contracts/AnimalHelper_prc4.sol\":2689:2893  function setPowerUpFee(uint _fee) external onlyOwner {\r... */\n    tag_41:\n        /* \"contracts/ownable.sol\":406:411  owner */\n      0x0\n      dup1\n      swap1\n      sload\n      swap1\n      0x100\n      exp\n      swap1\n      div\n      0xffffffffffffffffffffffffffffffffffffffff\n      and\n        /* \"contracts/ownable.sol\":392:411  msg.sender == owner */\n      0xffffffffffffffffffffffffffffffffffffffff\n      and\n        /* \"contracts/ownable.sol\":392:402  msg.sender */\n      caller\n        /* \"contracts/ownable.sol\":392:411  msg.sender == owner */\n      0xffffffffffffffffffffffffffffffffffffffff\n      and\n      eq\n        /* \"contracts/ownable.sol\":384:412  require(msg.sender == owner) */\n      iszero\n      iszero\n      tag_100\n      jumpi\n      0x0\n      dup1\n      revert\n    tag_100:\n        /* \"contracts/AnimalHelper_prc4.sol\":2881:2885  _fee */\n      dup1\n        /* \"contracts/AnimalHelper_prc4.sol\":2868:2878  powerUpFee */\n      0x7\n        /* \"contracts/AnimalHelper_prc4.sol\":2868:2885  powerUpFee = _fee */\n      dup2\n      swap1\n      sstore\n      pop\n        /* \"contracts/AnimalHelper_prc4.sol\":2689:2893  function setPowerUpFee(uint _fee) external onlyOwner {\r... */\n      pop\n      jump\t// out\n        /* \"contracts/AnimalIncubators_prc3.sol\":703:726  Animal[] public animals */\n    tag_44:\n      0x4\n      dup2\n      dup2\n      sload\n      dup2\n      lt\n      iszero\n      iszero\n      tag_102\n      jumpi\n      invalid\n    tag_102:\n      swap1\n      0x0\n      mstore\n      keccak256(0x0, 0x20)\n      swap1\n      0x3\n      mul\n      add\n      0x0\n      swap2\n      pop\n      swap1\n      pop\n      dup1\n      0x0\n      add\n      swap1\n      dup1\n      0x1\n      add\n      sload\n      swap1\n      dup1\n      0x2\n      add\n      0x0\n      swap1\n      sload\n      swap1\n      0x100\n      exp\n      swap1\n      div\n      0xffffffff\n      and\n      swap1\n      dup1\n      0x2\n      add\n      0x4\n      swap1\n      sload\n      swap1\n      0x100\n      exp\n      swap1\n      div\n      0xffffffff\n      and\n      swap1\n      pop\n      dup5\n      jump\t// out\n        /* \"contracts/AnimalHelper_prc4.sol\":1878:2275  function powerUp(uint _animalId) external payable {\r... */\n    tag_49:\n        /* \"contracts/AnimalHelper_prc4.sol\":2044:2054  powerUpFee */\n      sload(0x7)\n        /* \"contracts/AnimalHelper_prc4.sol\":2031:2040  msg.value */\n      callvalue\n        /* \"contracts/AnimalHelper_prc4.sol\":2031:2054  msg.value == powerUpFee */\n      eq\n        /* \"contracts/AnimalHelper_prc4.sol\":2023:2055  require(msg.value == powerUpFee) */\n      iszero\n      iszero\n      tag_105\n      jumpi\n      0x0\n      dup1\n      revert\n    tag_105:\n        /* \"contracts/AnimalHelper_prc4.sol\":2160:2173  animalToOwner */\n      0x5\n        /* \"contracts/AnimalHelper_prc4.sol\":2160:2184  animalToOwner[_animalId] */\n      0x0\n        /* \"contracts/AnimalHelper_prc4.sol\":2174:2183  _animalId */\n      dup3\n        /* \"contracts/AnimalHelper_prc4.sol\":2160:2184  animalToOwner[_animalId] */\n      dup2\n      mstore\n      0x20\n      add\n      swap1\n      dup2\n      mstore\n      0x20\n      add\n      0x0\n      keccak256\n      0x0\n      swap1\n      sload\n      swap1\n      0x100\n      exp\n      swap1\n      div\n      0xffffffffffffffffffffffffffffffffffffffff\n      and\n        /* \"contracts/AnimalHelper_prc4.sol\":2146:2184  msg.sender == animalToOwner[_animalId] */\n      0xffffffffffffffffffffffffffffffffffffffff\n      and\n        /* \"contracts/AnimalHelper_prc4.sol\":2146:2156  msg.sender */\n      caller\n        /* \"contracts/AnimalHelper_prc4.sol\":2146:2184  msg.sender == animalToOwner[_animalId] */\n      0xffffffffffffffffffffffffffffffffffffffff\n      and\n      eq\n        /* \"contracts/AnimalHelper_prc4.sol\":2138:2185  require(msg.sender == animalToOwner[_animalId]) */\n      iszero\n      iszero\n      tag_106\n      jumpi\n      0x0\n      dup1\n      revert\n    tag_106:\n        /* \"contracts/AnimalHelper_prc4.sol\":2241:2248  animals */\n      0x4\n        /* \"contracts/AnimalHelper_prc4.sol\":2249:2258  _animalId */\n      dup2\n        /* \"contracts/AnimalHelper_prc4.sol\":2241:2259  animals[_animalId] */\n      dup2\n      sload\n      dup2\n      lt\n      iszero\n      iszero\n      tag_107\n      jumpi\n      invalid\n    tag_107:\n      swap1\n      0x0\n      mstore\n      keccak256(0x0, 0x20)\n      swap1\n      0x3\n      mul\n      add\n        /* \"contracts/AnimalHelper_prc4.sol\":2241:2265  animals[_animalId].level */\n      0x2\n      add\n      0x0\n        /* \"contracts/AnimalHelper_prc4.sol\":2241:2267  animals[_animalId].level++ */\n      dup2\n      dup2\n      swap1\n      sload\n      swap1\n      0x100\n      exp\n      swap1\n      div\n      0xffffffff\n      and\n      dup1\n      swap3\n      swap2\n      swap1\n      0x1\n      add\n      swap2\n      swap1\n      0x100\n      exp\n      dup2\n      sload\n      dup2\n      0xffffffff\n      mul\n      not\n      and\n      swap1\n      dup4\n      0xffffffff\n      and\n      mul\n      or\n      swap1\n      sstore\n      pop\n      pop\n        /* \"contracts/AnimalHelper_prc4.sol\":1878:2275  function powerUp(uint _animalId) external payable {\r... */\n      pop\n      jump\t// out\n        /* \"contracts/AnimalIncubators_prc3.sol\":1588:1885  function createRandomAnimal(string _name) public {\r... */\n    tag_52:\n        /* \"contracts/AnimalIncubators_prc3.sol\":1797:1809  uint randDna */\n      0x0\n        /* \"contracts/AnimalIncubators_prc3.sol\":1812:1837  _generateRandomDna(_name) */\n      tag_110\n        /* \"contracts/AnimalIncubators_prc3.sol\":1831:1836  _name */\n      dup3\n        /* \"contracts/AnimalIncubators_prc3.sol\":1812:1830  _generateRandomDna */\n      tag_111\n        /* \"contracts/AnimalIncubators_prc3.sol\":1812:1837  _generateRandomDna(_name) */\n      jump\t// in\n    tag_110:\n        /* \"contracts/AnimalIncubators_prc3.sol\":1797:1837  uint randDna = _generateRandomDna(_name) */\n      swap1\n      pop\n        /* \"contracts/AnimalIncubators_prc3.sol\":1848:1877  _createAnimal(_name, randDna) */\n      tag_112\n        /* \"contracts/AnimalIncubators_prc3.sol\":1862:1867  _name */\n      dup3\n        /* \"contracts/AnimalIncubators_prc3.sol\":1869:1876  randDna */\n      dup3\n        /* \"contracts/AnimalIncubators_prc3.sol\":1848:1861  _createAnimal */\n      tag_113\n        /* \"contracts/AnimalIncubators_prc3.sol\":1848:1877  _createAnimal(_name, randDna) */\n      jump\t// in\n    tag_112:\n        /* \"contracts/AnimalIncubators_prc3.sol\":1588:1885  function createRandomAnimal(string _name) public {\r... */\n      pop\n      pop\n      jump\t// out\n        /* \"contracts/AnimalIncubators_prc3.sol\":788:837  mapping (address => uint) public ownerAnimalCount */\n    tag_55:\n      mstore(0x20, 0x6)\n      dup1\n      0x0\n      mstore\n      keccak256(0x0, 0x40)\n      0x0\n      swap2\n      pop\n      swap1\n      pop\n      sload\n      dup2\n      jump\t// out\n        /* \"contracts/AnimalHelper_prc4.sol\":590:813  function changeName(uint _AnimalId, string _newName) \r... */\n    tag_58:\n        /* \"contracts/AnimalHelper_prc4.sol\":683:684  2 */\n      0x2\n        /* \"contracts/AnimalHelper_prc4.sol\":686:695  _AnimalId */\n      dup4\n        /* \"contracts/AnimalHelper_prc4.sol\":555:561  _level */\n      dup2\n        /* \"contracts/AnimalHelper_prc4.sol\":527:534  animals */\n      0x4\n        /* \"contracts/AnimalHelper_prc4.sol\":535:544  _animalId */\n      dup3\n        /* \"contracts/AnimalHelper_prc4.sol\":527:545  animals[_animalId] */\n      dup2\n      sload\n      dup2\n      lt\n      iszero\n      iszero\n      tag_115\n      jumpi\n      invalid\n    tag_115:\n      swap1\n      0x0\n      mstore\n      keccak256(0x0, 0x20)\n      swap1\n      0x3\n      mul\n      add\n        /* \"contracts/AnimalHelper_prc4.sol\":527:551  animals[_animalId].level */\n      0x2\n      add\n      0x0\n      swap1\n      sload\n      swap1\n      0x100\n      exp\n      swap1\n      div\n      0xffffffff\n      and\n        /* \"contracts/AnimalHelper_prc4.sol\":527:561  animals[_animalId].level >= _level */\n      0xffffffff\n      and\n      lt\n      iszero\n        /* \"contracts/AnimalHelper_prc4.sol\":519:562  require(animals[_animalId].level >= _level) */\n      iszero\n      iszero\n      tag_117\n      jumpi\n      0x0\n      dup1\n      revert\n    tag_117:\n        /* \"contracts/AnimalHelper_prc4.sol\":735:748  animalToOwner */\n      0x5\n        /* \"contracts/AnimalHelper_prc4.sol\":735:759  animalToOwner[_AnimalId] */\n      0x0\n        /* \"contracts/AnimalHelper_prc4.sol\":749:758  _AnimalId */\n      dup7\n        /* \"contracts/AnimalHelper_prc4.sol\":735:759  animalToOwner[_AnimalId] */\n      dup2\n      mstore\n      0x20\n      add\n      swap1\n      dup2\n      mstore\n      0x20\n      add\n      0x0\n      keccak256\n      0x0\n      swap1\n      sload\n      swap1\n      0x100\n      exp\n      swap1\n      div\n      0xffffffffffffffffffffffffffffffffffffffff\n      and\n        /* \"contracts/AnimalHelper_prc4.sol\":721:759  msg.sender == animalToOwner[_AnimalId] */\n      0xffffffffffffffffffffffffffffffffffffffff\n      and\n        /* \"contracts/AnimalHelper_prc4.sol\":721:731  msg.sender */\n      caller\n        /* \"contracts/AnimalHelper_prc4.sol\":721:759  msg.sender == animalToOwner[_AnimalId] */\n      0xffffffffffffffffffffffffffffffffffffffff\n      and\n      eq\n        /* \"contracts/AnimalHelper_prc4.sol\":713:760  require(msg.sender == animalToOwner[_AnimalId]) */\n      iszero\n      iszero\n      tag_119\n      jumpi\n      0x0\n      dup1\n      revert\n    tag_119:\n        /* \"contracts/AnimalHelper_prc4.sol\":797:805  _newName */\n      dup4\n      dup4\n        /* \"contracts/AnimalHelper_prc4.sol\":771:778  animals */\n      0x4\n        /* \"contracts/AnimalHelper_prc4.sol\":779:788  _AnimalId */\n      dup8\n        /* \"contracts/AnimalHelper_prc4.sol\":771:789  animals[_AnimalId] */\n      dup2\n      sload\n      dup2\n      lt\n      iszero\n      iszero\n      tag_120\n      jumpi\n      invalid\n    tag_120:\n      swap1\n      0x0\n      mstore\n      keccak256(0x0, 0x20)\n      swap1\n      0x3\n      mul\n      add\n        /* \"contracts/AnimalHelper_prc4.sol\":771:794  animals[_AnimalId].name */\n      0x0\n      add\n        /* \"contracts/AnimalHelper_prc4.sol\":771:805  animals[_AnimalId].name = _newName */\n      swap2\n      swap1\n      tag_122\n      swap3\n      swap2\n      swap1\n      jump\t// in(tag_123)\n    tag_122:\n      pop\n        /* \"contracts/AnimalHelper_prc4.sol\":590:813  function changeName(uint _AnimalId, string _newName) \r... */\n      pop\n      pop\n      pop\n      pop\n      pop\n      jump\t// out\n        /* \"contracts/AnimalIncubators_prc3.sol\":735:781  mapping (uint => address) public animalToOwner */\n    tag_61:\n      mstore(0x20, 0x5)\n      dup1\n      0x0\n      mstore\n      keccak256(0x0, 0x40)\n      0x0\n      swap2\n      pop\n      sload\n      swap1\n      0x100\n      exp\n      swap1\n      div\n      0xffffffffffffffffffffffffffffffffffffffff\n      and\n      dup2\n      jump\t// out\n        /* \"contracts/AnimalAttack.sol\":1062:2107  function attack(uint _myPetId, uint _opponentPetId) external {\r... */\n    tag_64:\n        /* \"contracts/AnimalAttack.sol\":1404:1413  uint rand */\n      0x0\n        /* \"contracts/AnimalAttack.sol\":1236:1249  animalToOwner */\n      0x5\n        /* \"contracts/AnimalAttack.sol\":1236:1259  animalToOwner[_myPetId] */\n      0x0\n        /* \"contracts/AnimalAttack.sol\":1250:1258  _myPetId */\n      dup5\n        /* \"contracts/AnimalAttack.sol\":1236:1259  animalToOwner[_myPetId] */\n      dup2\n      mstore\n      0x20\n      add\n      swap1\n      dup2\n      mstore\n      0x20\n      add\n      0x0\n      keccak256\n      0x0\n      swap1\n      sload\n      swap1\n      0x100\n      exp\n      swap1\n      div\n      0xffffffffffffffffffffffffffffffffffffffff\n      and\n        /* \"contracts/AnimalAttack.sol\":1222:1259  msg.sender == animalToOwner[_myPetId] */\n      0xffffffffffffffffffffffffffffffffffffffff\n      and\n        /* \"contracts/AnimalAttack.sol\":1222:1232  msg.sender */\n      caller\n        /* \"contracts/AnimalAttack.sol\":1222:1259  msg.sender == animalToOwner[_myPetId] */\n      0xffffffffffffffffffffffffffffffffffffffff\n      and\n      eq\n        /* \"contracts/AnimalAttack.sol\":1214:1260  require(msg.sender == animalToOwner[_myPetId]) */\n      iszero\n      iszero\n      tag_125\n      jumpi\n      0x0\n      dup1\n      revert\n    tag_125:\n        /* \"contracts/AnimalAttack.sol\":1333:1347  _opponentPetId */\n      dup2\n        /* \"contracts/AnimalAttack.sol\":1321:1329  _myPetId */\n      dup4\n        /* \"contracts/AnimalAttack.sol\":1321:1347  _myPetId != _opponentPetId */\n      eq\n      iszero\n        /* \"contracts/AnimalAttack.sol\":1313:1348  require(_myPetId != _opponentPetId) */\n      iszero\n      iszero\n      tag_126\n      jumpi\n      0x0\n      dup1\n      revert\n    tag_126:\n        /* \"contracts/AnimalAttack.sol\":1416:1424  random() */\n      tag_127\n        /* \"contracts/AnimalAttack.sol\":1416:1422  random */\n      tag_128\n        /* \"contracts/AnimalAttack.sol\":1416:1424  random() */\n      jump\t// in\n    tag_127:\n        /* \"contracts/AnimalAttack.sol\":1404:1424  uint rand = random() */\n      swap1\n      pop\n        /* \"contracts/AnimalAttack.sol\":1568:1570  75 */\n      0x4b\n        /* \"contracts/AnimalAttack.sol\":1561:1565  rand */\n      dup2\n        /* \"contracts/AnimalAttack.sol\":1561:1570  rand < 75 */\n      lt\n        /* \"contracts/AnimalAttack.sol\":1557:2100  if (rand < 75) {\r... */\n      iszero\n      tag_129\n      jumpi\n        /* \"contracts/AnimalAttack.sol\":1644:1651  animals */\n      0x4\n        /* \"contracts/AnimalAttack.sol\":1652:1660  _myPetId */\n      dup4\n        /* \"contracts/AnimalAttack.sol\":1644:1661  animals[_myPetId] */\n      dup2\n      sload\n      dup2\n      lt\n      iszero\n      iszero\n      tag_130\n      jumpi\n      invalid\n    tag_130:\n      swap1\n      0x0\n      mstore\n      keccak256(0x0, 0x20)\n      swap1\n      0x3\n      mul\n      add\n        /* \"contracts/AnimalAttack.sol\":1644:1667  animals[_myPetId].level */\n      0x2\n      add\n      0x0\n        /* \"contracts/AnimalAttack.sol\":1644:1669  animals[_myPetId].level++ */\n      dup2\n      dup2\n      swap1\n      sload\n      swap1\n      0x100\n      exp\n      swap1\n      div\n      0xffffffff\n      and\n      dup1\n      swap3\n      swap2\n      swap1\n      0x1\n      add\n      swap2\n      swap1\n      0x100\n      exp\n      dup2\n      sload\n      dup2\n      0xffffffff\n      mul\n      not\n      and\n      swap1\n      dup4\n      0xffffffff\n      and\n      mul\n      or\n      swap1\n      sstore\n      pop\n      pop\n        /* \"contracts/AnimalAttack.sol\":1719:1728  petStates */\n      0x8\n        /* \"contracts/AnimalAttack.sol\":1719:1738  petStates[_myPetId] */\n      0x0\n        /* \"contracts/AnimalAttack.sol\":1729:1737  _myPetId */\n      dup5\n        /* \"contracts/AnimalAttack.sol\":1719:1738  petStates[_myPetId] */\n      dup2\n      mstore\n      0x20\n      add\n      swap1\n      dup2\n      mstore\n      0x20\n      add\n      0x0\n      keccak256\n        /* \"contracts/AnimalAttack.sol\":1719:1747  petStates[_myPetId].winCount */\n      0x0\n      add\n      0x0\n        /* \"contracts/AnimalAttack.sol\":1719:1749  petStates[_myPetId].winCount++ */\n      dup2\n      sload\n      dup1\n      swap3\n      swap2\n      swap1\n      0x1\n      add\n      swap2\n      swap1\n      pop\n      sstore\n      pop\n        /* \"contracts/AnimalAttack.sol\":1764:1773  petStates */\n      0x8\n        /* \"contracts/AnimalAttack.sol\":1764:1789  petStates[_opponentPetId] */\n      0x0\n        /* \"contracts/AnimalAttack.sol\":1774:1788  _opponentPetId */\n      dup4\n        /* \"contracts/AnimalAttack.sol\":1764:1789  petStates[_opponentPetId] */\n      dup2\n      mstore\n      0x20\n      add\n      swap1\n      dup2\n      mstore\n      0x20\n      add\n      0x0\n      keccak256\n        /* \"contracts/AnimalAttack.sol\":1764:1799  petStates[_opponentPetId].lossCount */\n      0x1\n      add\n      0x0\n        /* \"contracts/AnimalAttack.sol\":1764:1801  petStates[_opponentPetId].lossCount++ */\n      dup2\n      sload\n      dup1\n      swap3\n      swap2\n      swap1\n      0x1\n      add\n      swap2\n      swap1\n      pop\n      sstore\n      pop\n        /* \"contracts/AnimalAttack.sol\":1557:2100  if (rand < 75) {\r... */\n      jump(tag_132)\n    tag_129:\n        /* \"contracts/AnimalAttack.sol\":1971:1980  petStates */\n      0x8\n        /* \"contracts/AnimalAttack.sol\":1971:1990  petStates[_myPetId] */\n      0x0\n        /* \"contracts/AnimalAttack.sol\":1981:1989  _myPetId */\n      dup5\n        /* \"contracts/AnimalAttack.sol\":1971:1990  petStates[_myPetId] */\n      dup2\n      mstore\n      0x20\n      add\n      swap1\n      dup2\n      mstore\n      0x20\n      add\n      0x0\n      keccak256\n        /* \"contracts/AnimalAttack.sol\":1971:2000  petStates[_myPetId].lossCount */\n      0x1\n      add\n      0x0\n        /* \"contracts/AnimalAttack.sol\":1971:2002  petStates[_myPetId].lossCount++ */\n      dup2\n      sload\n      dup1\n      swap3\n      swap2\n      swap1\n      0x1\n      add\n      swap2\n      swap1\n      pop\n      sstore\n      pop\n        /* \"contracts/AnimalAttack.sol\":2052:2061  petStates */\n      0x8\n        /* \"contracts/AnimalAttack.sol\":2052:2077  petStates[_opponentPetId] */\n      0x0\n        /* \"contracts/AnimalAttack.sol\":2062:2076  _opponentPetId */\n      dup4\n        /* \"contracts/AnimalAttack.sol\":2052:2077  petStates[_opponentPetId] */\n      dup2\n      mstore\n      0x20\n      add\n      swap1\n      dup2\n      mstore\n      0x20\n      add\n      0x0\n      keccak256\n        /* \"contracts/AnimalAttack.sol\":2052:2086  petStates[_opponentPetId].winCount */\n      0x0\n      add\n      0x0\n        /* \"contracts/AnimalAttack.sol\":2052:2088  petStates[_opponentPetId].winCount++ */\n      dup2\n      sload\n      dup1\n      swap3\n      swap2\n      swap1\n      0x1\n      add\n      swap2\n      swap1\n      pop\n      sstore\n      pop\n        /* \"contracts/AnimalAttack.sol\":1557:2100  if (rand < 75) {\r... */\n    tag_132:\n        /* \"contracts/AnimalAttack.sol\":1062:2107  function attack(uint _myPetId, uint _opponentPetId) external {\r... */\n      pop\n      pop\n      pop\n      jump\t// out\n        /* \"contracts/ownable.sol\":470:725  function transferOwnership(address newOwner) public onlyOwner {\r... */\n    tag_67:\n        /* \"contracts/ownable.sol\":406:411  owner */\n      0x0\n      dup1\n      swap1\n      sload\n      swap1\n      0x100\n      exp\n      swap1\n      div\n      0xffffffffffffffffffffffffffffffffffffffff\n      and\n        /* \"contracts/ownable.sol\":392:411  msg.sender == owner */\n      0xffffffffffffffffffffffffffffffffffffffff\n      and\n        /* \"contracts/ownable.sol\":392:402  msg.sender */\n      caller\n        /* \"contracts/ownable.sol\":392:411  msg.sender == owner */\n      0xffffffffffffffffffffffffffffffffffffffff\n      and\n      eq\n        /* \"contracts/ownable.sol\":384:412  require(msg.sender == owner) */\n      iszero\n      iszero\n      tag_134\n      jumpi\n      0x0\n      dup1\n      revert\n    tag_134:\n        /* \"contracts/ownable.sol\":571:572  0 */\n      0x0\n        /* \"contracts/ownable.sol\":551:573  newOwner != address(0) */\n      0xffffffffffffffffffffffffffffffffffffffff\n      and\n        /* \"contracts/ownable.sol\":551:559  newOwner */\n      dup2\n        /* \"contracts/ownable.sol\":551:573  newOwner != address(0) */\n      0xffffffffffffffffffffffffffffffffffffffff\n      and\n      eq\n      iszero\n        /* \"contracts/ownable.sol\":543:574  require(newOwner != address(0)) */\n      iszero\n      iszero\n      tag_136\n      jumpi\n      0x0\n      dup1\n      revert\n    tag_136:\n        /* \"contracts/ownable.sol\":670:678  newOwner */\n      dup1\n        /* \"contracts/ownable.sol\":642:679  OwnershipTransferred(owner, newOwner) */\n      0xffffffffffffffffffffffffffffffffffffffff\n      and\n        /* \"contracts/ownable.sol\":663:668  owner */\n      0x0\n      dup1\n      swap1\n      sload\n      swap1\n      0x100\n      exp\n      swap1\n      div\n      0xffffffffffffffffffffffffffffffffffffffff\n      and\n        /* \"contracts/ownable.sol\":642:679  OwnershipTransferred(owner, newOwner) */\n      0xffffffffffffffffffffffffffffffffffffffff\n      and\n      0x8be0079c531659141344cd1fd0a4f28419497f9722a3daafe3b4186f6b6457e0\n      mload(0x40)\n      mload(0x40)\n      dup1\n      swap2\n      sub\n      swap1\n      log3\n        /* \"contracts/ownable.sol\":709:717  newOwner */\n      dup1\n        /* \"contracts/ownable.sol\":701:706  owner */\n      0x0\n      dup1\n        /* \"contracts/ownable.sol\":701:717  owner = newOwner */\n      0x100\n      exp\n      dup2\n      sload\n      dup2\n      0xffffffffffffffffffffffffffffffffffffffff\n      mul\n      not\n      and\n      swap1\n      dup4\n      0xffffffffffffffffffffffffffffffffffffffff\n      and\n      mul\n      or\n      swap1\n      sstore\n      pop\n        /* \"contracts/ownable.sol\":470:725  function transferOwnership(address newOwner) public onlyOwner {\r... */\n      pop\n      jump\t// out\n        /* \"contracts/AnimalHelper_prc4.sol\":1728:1764  uint public powerUpFee = 0.001 ether */\n    tag_70:\n      sload(0x7)\n      dup2\n      jump\t// out\n        /* \"contracts/AnimalFeeding_prc3.sol\":273:409  function _catchFood(uint _name) internal pure returns (uint) {\r... */\n    tag_77:\n        /* \"contracts/AnimalFeeding_prc3.sol\":328:332  uint */\n      0x0\n        /* \"contracts/AnimalFeeding_prc3.sol\":345:354  uint rand */\n      dup1\n        /* \"contracts/AnimalFeeding_prc3.sol\":372:377  _name */\n      dup3\n        /* \"contracts/AnimalFeeding_prc3.sol\":362:378  keccak256(_name) */\n      mload(0x40)\n      dup1\n      dup3\n      dup2\n      mstore\n      0x20\n      add\n      swap2\n      pop\n      pop\n      mload(0x40)\n      dup1\n      swap2\n      sub\n      swap1\n      keccak256\n        /* \"contracts/AnimalFeeding_prc3.sol\":357:379  uint(keccak256(_name)) */\n      0x1\n      swap1\n      div\n        /* \"contracts/AnimalFeeding_prc3.sol\":345:379  uint rand = uint(keccak256(_name)) */\n      swap1\n      pop\n        /* \"contracts/AnimalFeeding_prc3.sol\":397:401  rand */\n      dup1\n        /* \"contracts/AnimalFeeding_prc3.sol\":390:401  return rand */\n      swap2\n      pop\n        /* \"contracts/AnimalFeeding_prc3.sol\":273:409  function _catchFood(uint _name) internal pure returns (uint) {\r... */\n      pop\n      swap2\n      swap1\n      pop\n      jump\t// out\n        /* \"contracts/AnimalFeeding_prc3.sol\":513:1199  function feedAndGrow(uint _AnimalId, uint _targetDna) internal {\r... */\n    tag_79:\n        /* \"contracts/AnimalFeeding_prc3.sol\":647:670  Animal storage myAnimal */\n      0x0\n        /* \"contracts/AnimalFeeding_prc3.sol\":862:874  uint foodDna */\n      dup1\n        /* \"contracts/AnimalFeeding_prc3.sol\":910:921  uint newDna */\n      0x0\n        /* \"contracts/AnimalFeeding_prc3.sol\":611:624  animalToOwner */\n      0x5\n        /* \"contracts/AnimalFeeding_prc3.sol\":611:635  animalToOwner[_AnimalId] */\n      0x0\n        /* \"contracts/AnimalFeeding_prc3.sol\":625:634  _AnimalId */\n      dup7\n        /* \"contracts/AnimalFeeding_prc3.sol\":611:635  animalToOwner[_AnimalId] */\n      dup2\n      mstore\n      0x20\n      add\n      swap1\n      dup2\n      mstore\n      0x20\n      add\n      0x0\n      keccak256\n      0x0\n      swap1\n      sload\n      swap1\n      0x100\n      exp\n      swap1\n      div\n      0xffffffffffffffffffffffffffffffffffffffff\n      and\n        /* \"contracts/AnimalFeeding_prc3.sol\":597:635  msg.sender == animalToOwner[_AnimalId] */\n      0xffffffffffffffffffffffffffffffffffffffff\n      and\n        /* \"contracts/AnimalFeeding_prc3.sol\":597:607  msg.sender */\n      caller\n        /* \"contracts/AnimalFeeding_prc3.sol\":597:635  msg.sender == animalToOwner[_AnimalId] */\n      0xffffffffffffffffffffffffffffffffffffffff\n      and\n      eq\n        /* \"contracts/AnimalFeeding_prc3.sol\":589:636  require(msg.sender == animalToOwner[_AnimalId]) */\n      iszero\n      iszero\n      tag_139\n      jumpi\n      0x0\n      dup1\n      revert\n    tag_139:\n        /* \"contracts/AnimalFeeding_prc3.sol\":673:680  animals */\n      0x4\n        /* \"contracts/AnimalFeeding_prc3.sol\":681:690  _AnimalId */\n      dup6\n        /* \"contracts/AnimalFeeding_prc3.sol\":673:691  animals[_AnimalId] */\n      dup2\n      sload\n      dup2\n      lt\n      iszero\n      iszero\n      tag_140\n      jumpi\n      invalid\n    tag_140:\n      swap1\n      0x0\n      mstore\n      keccak256(0x0, 0x20)\n      swap1\n      0x3\n      mul\n      add\n        /* \"contracts/AnimalFeeding_prc3.sol\":647:691  Animal storage myAnimal = animals[_AnimalId] */\n      swap3\n      pop\n        /* \"contracts/AnimalFeeding_prc3.sol\":830:838  myAnimal */\n      dup3\n        /* \"contracts/AnimalFeeding_prc3.sol\":830:848  myAnimal.readyTime */\n      0x2\n      add\n      0x4\n      swap1\n      sload\n      swap1\n      0x100\n      exp\n      swap1\n      div\n      0xffffffff\n      and\n        /* \"contracts/AnimalFeeding_prc3.sol\":823:848  now >= myAnimal.readyTime */\n      0xffffffff\n      and\n        /* \"contracts/AnimalFeeding_prc3.sol\":823:826  now */\n      timestamp\n        /* \"contracts/AnimalFeeding_prc3.sol\":823:848  now >= myAnimal.readyTime */\n      lt\n      iszero\n        /* \"contracts/AnimalFeeding_prc3.sol\":815:849  require(now >= myAnimal.readyTime) */\n      iszero\n      iszero\n      tag_142\n      jumpi\n      0x0\n      dup1\n      revert\n    tag_142:\n        /* \"contracts/AnimalFeeding_prc3.sol\":890:899  dnaLength */\n      sload(0x2)\n        /* \"contracts/AnimalFeeding_prc3.sol\":877:887  _targetDna */\n      dup5\n        /* \"contracts/AnimalFeeding_prc3.sol\":877:899  _targetDna % dnaLength */\n      dup2\n      iszero\n      iszero\n      tag_143\n      jumpi\n      invalid\n    tag_143:\n      mod\n        /* \"contracts/AnimalFeeding_prc3.sol\":862:899  uint foodDna = _targetDna % dnaLength */\n      swap2\n      pop\n        /* \"contracts/AnimalFeeding_prc3.sol\":951:952  2 */\n      0x2\n        /* \"contracts/AnimalFeeding_prc3.sol\":940:947  foodDna */\n      dup3\n        /* \"contracts/AnimalFeeding_prc3.sol\":925:933  myAnimal */\n      dup5\n        /* \"contracts/AnimalFeeding_prc3.sol\":925:937  myAnimal.dna */\n      0x1\n      add\n      sload\n        /* \"contracts/AnimalFeeding_prc3.sol\":925:947  myAnimal.dna + foodDna */\n      add\n        /* \"contracts/AnimalFeeding_prc3.sol\":924:952  (myAnimal.dna + foodDna) / 2 */\n      dup2\n      iszero\n      iszero\n      tag_144\n      jumpi\n      invalid\n    tag_144:\n      div\n        /* \"contracts/AnimalFeeding_prc3.sol\":910:952  uint newDna = (myAnimal.dna + foodDna) / 2 */\n      swap1\n      pop\n        /* \"contracts/AnimalFeeding_prc3.sol\":995:997  99 */\n      0x63\n        /* \"contracts/AnimalFeeding_prc3.sol\":989:992  100 */\n      0x64\n        /* \"contracts/AnimalFeeding_prc3.sol\":982:985  100 */\n      dup1\n        /* \"contracts/AnimalFeeding_prc3.sol\":973:979  newDna */\n      dup4\n        /* \"contracts/AnimalFeeding_prc3.sol\":973:985  newDna / 100 */\n      dup2\n      iszero\n      iszero\n      tag_145\n      jumpi\n      invalid\n    tag_145:\n      div\n        /* \"contracts/AnimalFeeding_prc3.sol\":972:992  (newDna / 100) * 100 */\n      mul\n        /* \"contracts/AnimalFeeding_prc3.sol\":972:997  (newDna / 100) * 100 + 99 */\n      add\n        /* \"contracts/AnimalFeeding_prc3.sol\":963:997  newDna = (newDna / 100) * 100 + 99 */\n      swap1\n      pop\n        /* \"contracts/AnimalFeeding_prc3.sol\":1134:1146  cooldownTime */\n      sload(0x3)\n        /* \"contracts/AnimalFeeding_prc3.sol\":1128:1131  now */\n      timestamp\n        /* \"contracts/AnimalFeeding_prc3.sol\":1128:1146  now + cooldownTime */\n      add\n        /* \"contracts/AnimalFeeding_prc3.sol\":1100:1108  myAnimal */\n      dup4\n        /* \"contracts/AnimalFeeding_prc3.sol\":1100:1118  myAnimal.readyTime */\n      0x2\n      add\n      0x4\n        /* \"contracts/AnimalFeeding_prc3.sol\":1100:1147  myAnimal.readyTime = uint32(now + cooldownTime) */\n      0x100\n      exp\n      dup2\n      sload\n      dup2\n      0xffffffff\n      mul\n      not\n      and\n      swap1\n      dup4\n      0xffffffff\n      and\n      mul\n      or\n      swap1\n      sstore\n      pop\n        /* \"contracts/AnimalFeeding_prc3.sol\":1160:1191  _createAnimal(\"No-one\", newDna) */\n      tag_146\n      0x40\n      dup1\n      mload\n      swap1\n      dup2\n      add\n      0x40\n      mstore\n      dup1\n      0x6\n      dup2\n      mstore\n      0x20\n      add\n      0x4e6f2d6f6e650000000000000000000000000000000000000000000000000000\n      dup2\n      mstore\n      pop\n        /* \"contracts/AnimalFeeding_prc3.sol\":1184:1190  newDna */\n      dup3\n        /* \"contracts/AnimalFeeding_prc3.sol\":1160:1173  _createAnimal */\n      tag_113\n        /* \"contracts/AnimalFeeding_prc3.sol\":1160:1191  _createAnimal(\"No-one\", newDna) */\n      jump\t// in\n    tag_146:\n        /* \"contracts/AnimalFeeding_prc3.sol\":513:1199  function feedAndGrow(uint _AnimalId, uint _targetDna) internal {\r... */\n      pop\n      pop\n      pop\n      pop\n      pop\n      jump\t// out\n        /* \"contracts/AnimalIncubators_prc3.sol\":1425:1580  function _generateRandomDna(string _str) private view returns (uint) {\r... */\n    tag_111:\n        /* \"contracts/AnimalIncubators_prc3.sol\":1488:1492  uint */\n      0x0\n        /* \"contracts/AnimalIncubators_prc3.sol\":1505:1514  uint rand */\n      dup1\n        /* \"contracts/AnimalIncubators_prc3.sol\":1532:1536  _str */\n      dup3\n        /* \"contracts/AnimalIncubators_prc3.sol\":1522:1537  keccak256(_str) */\n      mload(0x40)\n      dup1\n      dup3\n      dup1\n      mload\n      swap1\n      0x20\n      add\n      swap1\n      dup1\n      dup4\n      dup4\n        /* \"--CODEGEN--\":36:189   */\n    tag_148:\n        /* \"--CODEGEN--\":66:68   */\n      0x20\n        /* \"--CODEGEN--\":61:64   */\n      dup4\n        /* \"--CODEGEN--\":58:60   */\n      lt\n        /* \"--CODEGEN--\":51:57   */\n      iszero\n        /* \"--CODEGEN--\":36:189   */\n      iszero\n      tag_149\n      jumpi\n        /* \"--CODEGEN--\":182:185   */\n      dup1\n        /* \"--CODEGEN--\":176:181   */\n      mload\n        /* \"--CODEGEN--\":171:174   */\n      dup3\n        /* \"--CODEGEN--\":164:170   */\n      mstore\n        /* \"--CODEGEN--\":98:100   */\n      0x20\n        /* \"--CODEGEN--\":93:96   */\n      dup3\n        /* \"--CODEGEN--\":89:92   */\n      add\n        /* \"--CODEGEN--\":82:101   */\n      swap2\n      pop\n        /* \"--CODEGEN--\":123:125   */\n      0x20\n        /* \"--CODEGEN--\":118:121   */\n      dup2\n        /* \"--CODEGEN--\":114:117   */\n      add\n        /* \"--CODEGEN--\":107:126   */\n      swap1\n      pop\n        /* \"--CODEGEN--\":148:150   */\n      0x20\n        /* \"--CODEGEN--\":143:146   */\n      dup4\n        /* \"--CODEGEN--\":139:142   */\n      sub\n        /* \"--CODEGEN--\":132:151   */\n      swap3\n      pop\n        /* \"--CODEGEN--\":36:189   */\n      jump(tag_148)\n    tag_149:\n        /* \"--CODEGEN--\":274:275   */\n      0x1\n        /* \"--CODEGEN--\":267:270   */\n      dup4\n        /* \"--CODEGEN--\":263:265   */\n      0x20\n        /* \"--CODEGEN--\":259:262   */\n      sub\n        /* \"--CODEGEN--\":254:257   */\n      0x100\n        /* \"--CODEGEN--\":250:253   */\n      exp\n        /* \"--CODEGEN--\":246:249   */\n      sub\n        /* \"--CODEGEN--\":315:319   */\n      dup1\n        /* \"--CODEGEN--\":311:314   */\n      not\n        /* \"--CODEGEN--\":305:308   */\n      dup3\n        /* \"--CODEGEN--\":299:304   */\n      mload\n        /* \"--CODEGEN--\":295:298   */\n      and\n        /* \"--CODEGEN--\":356:360   */\n      dup2\n        /* \"--CODEGEN--\":350:353   */\n      dup5\n        /* \"--CODEGEN--\":344:349   */\n      mload\n        /* \"--CODEGEN--\":340:343   */\n      and\n        /* \"--CODEGEN--\":389:396   */\n      dup1\n        /* \"--CODEGEN--\":380:387   */\n      dup3\n        /* \"--CODEGEN--\":377:379   */\n      or\n        /* \"--CODEGEN--\":372:375   */\n      dup6\n        /* \"--CODEGEN--\":365:371   */\n      mstore\n        /* \"--CODEGEN--\":3:402   */\n      pop\n      pop\n      pop\n      pop\n      pop\n      pop\n      swap1\n      pop\n      add\n      swap2\n      pop\n      pop\n      mload(0x40)\n      dup1\n      swap2\n      sub\n      swap1\n      keccak256\n        /* \"contracts/AnimalIncubators_prc3.sol\":1517:1538  uint(keccak256(_str)) */\n      0x1\n      swap1\n      div\n        /* \"contracts/AnimalIncubators_prc3.sol\":1505:1538  uint rand = uint(keccak256(_str)) */\n      swap1\n      pop\n        /* \"contracts/AnimalIncubators_prc3.sol\":1563:1572  dnaLength */\n      sload(0x2)\n        /* \"contracts/AnimalIncubators_prc3.sol\":1556:1560  rand */\n      dup2\n        /* \"contracts/AnimalIncubators_prc3.sol\":1556:1572  rand % dnaLength */\n      dup2\n      iszero\n      iszero\n      tag_151\n      jumpi\n      invalid\n    tag_151:\n      mod\n        /* \"contracts/AnimalIncubators_prc3.sol\":1549:1572  return rand % dnaLength */\n      swap2\n      pop\n        /* \"contracts/AnimalIncubators_prc3.sol\":1425:1580  function _generateRandomDna(string _str) private view returns (uint) {\r... */\n      pop\n      swap2\n      swap1\n      pop\n      jump\t// out\n        /* \"contracts/AnimalIncubators_prc3.sol\":896:1417  function _createAnimal(string _name, uint _dna) internal {\r... */\n    tag_113:\n        /* \"contracts/AnimalIncubators_prc3.sol\":1167:1179  uint32 ready */\n      0x0\n        /* \"contracts/AnimalIncubators_prc3.sol\":1229:1236  uint id */\n      dup1\n        /* \"contracts/AnimalIncubators_prc3.sol\":1195:1207  cooldownTime */\n      sload(0x3)\n        /* \"contracts/AnimalIncubators_prc3.sol\":1189:1192  now */\n      timestamp\n        /* \"contracts/AnimalIncubators_prc3.sol\":1189:1207  now + cooldownTime */\n      add\n        /* \"contracts/AnimalIncubators_prc3.sol\":1167:1208  uint32 ready = uint32(now + cooldownTime) */\n      swap2\n      pop\n        /* \"contracts/AnimalIncubators_prc3.sol\":1285:1286  1 */\n      0x1\n        /* \"contracts/AnimalIncubators_prc3.sol\":1239:1246  animals */\n      0x4\n        /* \"contracts/AnimalIncubators_prc3.sol\":1239:1282  animals.push(Animal(_name, _dna, 0, ready)) */\n      dup1\n      sload\n      dup1\n      0x1\n      add\n      dup3\n      dup2\n      tag_153\n      swap2\n      swap1\n      jump\t// in(tag_154)\n    tag_153:\n      swap2\n      0x0\n      mstore\n      keccak256(0x0, 0x20)\n      swap1\n      0x3\n      mul\n      add\n      0x0\n        /* \"contracts/AnimalIncubators_prc3.sol\":1252:1281  Animal(_name, _dna, 0, ready) */\n      0x80\n      mload(0x40)\n      swap1\n      dup2\n      add\n      0x40\n      mstore\n      dup1\n        /* \"contracts/AnimalIncubators_prc3.sol\":1259:1264  _name */\n      dup10\n        /* \"contracts/AnimalIncubators_prc3.sol\":1252:1281  Animal(_name, _dna, 0, ready) */\n      dup2\n      mstore\n      0x20\n      add\n        /* \"contracts/AnimalIncubators_prc3.sol\":1266:1270  _dna */\n      dup9\n        /* \"contracts/AnimalIncubators_prc3.sol\":1252:1281  Animal(_name, _dna, 0, ready) */\n      dup2\n      mstore\n      0x20\n      add\n        /* \"contracts/AnimalIncubators_prc3.sol\":1272:1273  0 */\n      0x0\n        /* \"contracts/AnimalIncubators_prc3.sol\":1252:1281  Animal(_name, _dna, 0, ready) */\n      0xffffffff\n      and\n      dup2\n      mstore\n      0x20\n      add\n        /* \"contracts/AnimalIncubators_prc3.sol\":1275:1280  ready */\n      dup8\n        /* \"contracts/AnimalIncubators_prc3.sol\":1252:1281  Animal(_name, _dna, 0, ready) */\n      0xffffffff\n      and\n      dup2\n      mstore\n      pop\n        /* \"contracts/AnimalIncubators_prc3.sol\":1239:1282  animals.push(Animal(_name, _dna, 0, ready)) */\n      swap1\n      swap2\n      swap1\n      swap2\n      pop\n      0x0\n      dup3\n      add\n      mload\n      dup2\n      0x0\n      add\n      swap1\n      dup1\n      mload\n      swap1\n      0x20\n      add\n      swap1\n      tag_156\n      swap3\n      swap2\n      swap1\n      jump\t// in(tag_157)\n    tag_156:\n      pop\n      0x20\n      dup3\n      add\n      mload\n      dup2\n      0x1\n      add\n      sstore\n      0x40\n      dup3\n      add\n      mload\n      dup2\n      0x2\n      add\n      exp(0x100, 0x0)\n      dup2\n      sload\n      dup2\n      0xffffffff\n      mul\n      not\n      and\n      swap1\n      dup4\n      0xffffffff\n      and\n      mul\n      or\n      swap1\n      sstore\n      pop\n      0x60\n      dup3\n      add\n      mload\n      dup2\n      0x2\n      add\n      exp(0x100, 0x4)\n      dup2\n      sload\n      dup2\n      0xffffffff\n      mul\n      not\n      and\n      swap1\n      dup4\n      0xffffffff\n      and\n      mul\n      or\n      swap1\n      sstore\n      pop\n      pop\n      pop\n        /* \"contracts/AnimalIncubators_prc3.sol\":1239:1286  animals.push(Animal(_name, _dna, 0, ready)) - 1 */\n      sub\n        /* \"contracts/AnimalIncubators_prc3.sol\":1229:1286  uint id = animals.push(Animal(_name, _dna, 0, ready)) - 1 */\n      swap1\n      pop\n        /* \"contracts/AnimalIncubators_prc3.sol\":1319:1329  msg.sender */\n      caller\n        /* \"contracts/AnimalIncubators_prc3.sol\":1299:1312  animalToOwner */\n      0x5\n        /* \"contracts/AnimalIncubators_prc3.sol\":1299:1316  animalToOwner[id] */\n      0x0\n        /* \"contracts/AnimalIncubators_prc3.sol\":1313:1315  id */\n      dup4\n        /* \"contracts/AnimalIncubators_prc3.sol\":1299:1316  animalToOwner[id] */\n      dup2\n      mstore\n      0x20\n      add\n      swap1\n      dup2\n      mstore\n      0x20\n      add\n      0x0\n      keccak256\n      0x0\n        /* \"contracts/AnimalIncubators_prc3.sol\":1299:1329  animalToOwner[id] = msg.sender */\n      0x100\n      exp\n      dup2\n      sload\n      dup2\n      0xffffffffffffffffffffffffffffffffffffffff\n      mul\n      not\n      and\n      swap1\n      dup4\n      0xffffffffffffffffffffffffffffffffffffffff\n      and\n      mul\n      or\n      swap1\n      sstore\n      pop\n        /* \"contracts/AnimalIncubators_prc3.sol\":1340:1356  ownerAnimalCount */\n      0x6\n        /* \"contracts/AnimalIncubators_prc3.sol\":1340:1368  ownerAnimalCount[msg.sender] */\n      0x0\n        /* \"contracts/AnimalIncubators_prc3.sol\":1357:1367  msg.sender */\n      caller\n        /* \"contracts/AnimalIncubators_prc3.sol\":1340:1368  ownerAnimalCount[msg.sender] */\n      0xffffffffffffffffffffffffffffffffffffffff\n      and\n      0xffffffffffffffffffffffffffffffffffffffff\n      and\n      dup2\n      mstore\n      0x20\n      add\n      swap1\n      dup2\n      mstore\n      0x20\n      add\n      0x0\n      keccak256\n      0x0\n        /* \"contracts/AnimalIncubators_prc3.sol\":1340:1370  ownerAnimalCount[msg.sender]++ */\n      dup2\n      sload\n      dup1\n      swap3\n      swap2\n      swap1\n      0x1\n      add\n      swap2\n      swap1\n      pop\n      sstore\n      pop\n        /* \"contracts/AnimalIncubators_prc3.sol\":1383:1409  NewAnimal(id, _name, _dna) */\n      0x7be46eb2dba0b4dd932cd8c8cf7a4471478b8e52413bb8e9e88580596866431\n        /* \"contracts/AnimalIncubators_prc3.sol\":1393:1395  id */\n      dup2\n        /* \"contracts/AnimalIncubators_prc3.sol\":1397:1402  _name */\n      dup6\n        /* \"contracts/AnimalIncubators_prc3.sol\":1404:1408  _dna */\n      dup6\n        /* \"contracts/AnimalIncubators_prc3.sol\":1383:1409  NewAnimal(id, _name, _dna) */\n      mload(0x40)\n      dup1\n      dup5\n      dup2\n      mstore\n      0x20\n      add\n      dup1\n      0x20\n      add\n      dup4\n      dup2\n      mstore\n      0x20\n      add\n      dup3\n      dup2\n      sub\n      dup3\n      mstore\n      dup5\n      dup2\n      dup2\n      mload\n      dup2\n      mstore\n      0x20\n      add\n      swap2\n      pop\n      dup1\n      mload\n      swap1\n      0x20\n      add\n      swap1\n      dup1\n      dup4\n      dup4\n        /* \"--CODEGEN--\":23:24   */\n      0x0\n        /* \"--CODEGEN--\":8:108   */\n    tag_158:\n        /* \"--CODEGEN--\":33:36   */\n      dup4\n        /* \"--CODEGEN--\":30:31   */\n      dup2\n        /* \"--CODEGEN--\":27:29   */\n      lt\n        /* \"--CODEGEN--\":8:108   */\n      iszero\n      tag_159\n      jumpi\n        /* \"--CODEGEN--\":99:100   */\n      dup1\n        /* \"--CODEGEN--\":94:97   */\n      dup3\n        /* \"--CODEGEN--\":90:93   */\n      add\n        /* \"--CODEGEN--\":84:89   */\n      mload\n        /* \"--CODEGEN--\":80:81   */\n      dup2\n        /* \"--CODEGEN--\":75:78   */\n      dup5\n        /* \"--CODEGEN--\":71:74   */\n      add\n        /* \"--CODEGEN--\":64:70   */\n      mstore\n        /* \"--CODEGEN--\":52:54   */\n      0x20\n        /* \"--CODEGEN--\":49:50   */\n      dup2\n        /* \"--CODEGEN--\":45:48   */\n      add\n        /* \"--CODEGEN--\":40:55   */\n      swap1\n      pop\n        /* \"--CODEGEN--\":8:108   */\n      jump(tag_158)\n    tag_159:\n        /* \"--CODEGEN--\":12:26   */\n      pop\n        /* \"--CODEGEN--\":3:112   */\n      pop\n      pop\n      pop\n      swap1\n      pop\n      swap1\n      dup2\n      add\n      swap1\n      0x1f\n      and\n      dup1\n      iszero\n      tag_161\n      jumpi\n      dup1\n      dup3\n      sub\n      dup1\n      mload\n      0x1\n      dup4\n      0x20\n      sub\n      0x100\n      exp\n      sub\n      not\n      and\n      dup2\n      mstore\n      0x20\n      add\n      swap2\n      pop\n    tag_161:\n      pop\n      swap5\n      pop\n      pop\n      pop\n      pop\n      pop\n      mload(0x40)\n      dup1\n      swap2\n      sub\n      swap1\n      log1\n        /* \"contracts/AnimalIncubators_prc3.sol\":896:1417  function _createAnimal(string _name, uint _dna) internal {\r... */\n      pop\n      pop\n      pop\n      pop\n      jump\t// out\n        /* \"contracts/AnimalAttack.sol\":732:1015  function random() internal view returns (uint) {\r... */\n    tag_128:\n        /* \"contracts/AnimalAttack.sol\":773:777  uint */\n      0x0\n        /* \"contracts/AnimalAttack.sol\":907:921  uint randomNum */\n      dup1\n        /* \"contracts/AnimalAttack.sol\":977:980  100 */\n      0x64\n        /* \"contracts/AnimalAttack.sol\":939:954  block.timestamp */\n      timestamp\n        /* \"contracts/AnimalAttack.sol\":956:972  block.difficulty */\n      difficulty\n        /* \"contracts/AnimalAttack.sol\":929:973  keccak256(block.timestamp, block.difficulty) */\n      mload(0x40)\n      dup1\n      dup4\n      dup2\n      mstore\n      0x20\n      add\n      dup3\n      dup2\n      mstore\n      0x20\n      add\n      swap3\n      pop\n      pop\n      pop\n      mload(0x40)\n      dup1\n      swap2\n      sub\n      swap1\n      keccak256\n        /* \"contracts/AnimalAttack.sol\":924:974  uint(keccak256(block.timestamp, block.difficulty)) */\n      0x1\n      swap1\n      div\n        /* \"contracts/AnimalAttack.sol\":924:980  uint(keccak256(block.timestamp, block.difficulty)) % 100 */\n      dup2\n      iszero\n      iszero\n      tag_163\n      jumpi\n      invalid\n    tag_163:\n      mod\n        /* \"contracts/AnimalAttack.sol\":907:980  uint randomNum = uint(keccak256(block.timestamp, block.difficulty)) % 100 */\n      swap1\n      pop\n        /* \"contracts/AnimalAttack.sol\":998:1007  randomNum */\n      dup1\n        /* \"contracts/AnimalAttack.sol\":991:1007  return randomNum */\n      swap2\n      pop\n        /* \"contracts/AnimalAttack.sol\":732:1015  function random() internal view returns (uint) {\r... */\n      pop\n      swap1\n      jump\t// out\n        /* \"contracts/AnimalAttack.sol\":287:2110  contract AnimalAttack is AnimalHelper {\r... */\n    tag_89:\n      0x20\n      mload(0x40)\n      swap1\n      dup2\n      add\n      0x40\n      mstore\n      dup1\n      0x0\n      dup2\n      mstore\n      pop\n      swap1\n      jump\t// out\n    tag_123:\n      dup3\n      dup1\n      sload\n      0x1\n      dup2\n      0x1\n      and\n      iszero\n      0x100\n      mul\n      sub\n      and\n      0x2\n      swap1\n      div\n      swap1\n      0x0\n      mstore\n      keccak256(0x0, 0x20)\n      swap1\n      0x1f\n      add\n      0x20\n      swap1\n      div\n      dup2\n      add\n      swap3\n      dup3\n      0x1f\n      lt\n      tag_165\n      jumpi\n      dup1\n      calldataload\n      not(0xff)\n      and\n      dup4\n      dup1\n      add\n      or\n      dup6\n      sstore\n      jump(tag_164)\n    tag_165:\n      dup3\n      dup1\n      add\n      0x1\n      add\n      dup6\n      sstore\n      dup3\n      iszero\n      tag_164\n      jumpi\n      swap2\n      dup3\n      add\n    tag_166:\n      dup3\n      dup2\n      gt\n      iszero\n      tag_167\n      jumpi\n      dup3\n      calldataload\n      dup3\n      sstore\n      swap2\n      0x20\n      add\n      swap2\n      swap1\n      0x1\n      add\n      swap1\n      jump(tag_166)\n    tag_167:\n    tag_164:\n      pop\n      swap1\n      pop\n      tag_168\n      swap2\n      swap1\n      jump\t// in(tag_169)\n    tag_168:\n      pop\n      swap1\n      jump\t// out\n    tag_154:\n      dup2\n      sload\n      dup2\n      dup4\n      sstore\n      dup2\n      dup2\n      iszero\n      gt\n      tag_170\n      jumpi\n      0x3\n      mul\n      dup2\n      0x3\n      mul\n      dup4\n      0x0\n      mstore\n      keccak256(0x0, 0x20)\n      swap2\n      dup3\n      add\n      swap2\n      add\n      tag_171\n      swap2\n      swap1\n      jump\t// in(tag_172)\n    tag_171:\n    tag_170:\n      pop\n      pop\n      pop\n      jump\t// out\n    tag_157:\n      dup3\n      dup1\n      sload\n      0x1\n      dup2\n      0x1\n      and\n      iszero\n      0x100\n      mul\n      sub\n      and\n      0x2\n      swap1\n      div\n      swap1\n      0x0\n      mstore\n      keccak256(0x0, 0x20)\n      swap1\n      0x1f\n      add\n      0x20\n      swap1\n      div\n      dup2\n      add\n      swap3\n      dup3\n      0x1f\n      lt\n      tag_174\n      jumpi\n      dup1\n      mload\n      not(0xff)\n      and\n      dup4\n      dup1\n      add\n      or\n      dup6\n      sstore\n      jump(tag_173)\n    tag_174:\n      dup3\n      dup1\n      add\n      0x1\n      add\n      dup6\n      sstore\n      dup3\n      iszero\n      tag_173\n      jumpi\n      swap2\n      dup3\n      add\n    tag_175:\n      dup3\n      dup2\n      gt\n      iszero\n      tag_176\n      jumpi\n      dup3\n      mload\n      dup3\n      sstore\n      swap2\n      0x20\n      add\n      swap2\n      swap1\n      0x1\n      add\n      swap1\n      jump(tag_175)\n    tag_176:\n    tag_173:\n      pop\n      swap1\n      pop\n      tag_177\n      swap2\n      swap1\n      jump\t// in(tag_169)\n    tag_177:\n      pop\n      swap1\n      jump\t// out\n    tag_169:\n      tag_178\n      swap2\n      swap1\n    tag_179:\n      dup1\n      dup3\n      gt\n      iszero\n      tag_180\n      jumpi\n      0x0\n      dup2\n      0x0\n      swap1\n      sstore\n      pop\n      0x1\n      add\n      jump(tag_179)\n    tag_180:\n      pop\n      swap1\n      jump\n    tag_178:\n      swap1\n      jump\t// out\n    tag_172:\n      tag_181\n      swap2\n      swap1\n    tag_182:\n      dup1\n      dup3\n      gt\n      iszero\n      tag_183\n      jumpi\n      0x0\n      dup1\n      dup3\n      add\n      0x0\n      tag_184\n      swap2\n      swap1\n      jump\t// in(tag_185)\n    tag_184:\n      0x1\n      dup3\n      add\n      0x0\n      swap1\n      sstore\n      0x2\n      dup3\n      add\n      exp(0x100, 0x0)\n      dup2\n      sload\n      swap1\n      0xffffffff\n      mul\n      not\n      and\n      swap1\n      sstore\n      0x2\n      dup3\n      add\n      exp(0x100, 0x4)\n      dup2\n      sload\n      swap1\n      0xffffffff\n      mul\n      not\n      and\n      swap1\n      sstore\n      pop\n      0x3\n      add\n      jump(tag_182)\n    tag_183:\n      pop\n      swap1\n      jump\n    tag_181:\n      swap1\n      jump\t// out\n    tag_185:\n      pop\n      dup1\n      sload\n      0x1\n      dup2\n      0x1\n      and\n      iszero\n      0x100\n      mul\n      sub\n      and\n      0x2\n      swap1\n      div\n      0x0\n      dup3\n      sstore\n      dup1\n      0x1f\n      lt\n      tag_187\n      jumpi\n      pop\n      jump(tag_186)\n    tag_187:\n      0x1f\n      add\n      0x20\n      swap1\n      div\n      swap1\n      0x0\n      mstore\n      keccak256(0x0, 0x20)\n      swap1\n      dup2\n      add\n      swap1\n      tag_188\n      swap2\n      swap1\n      jump\t// in(tag_169)\n    tag_188:\n    tag_186:\n      pop\n      jump\t// out\n\n    auxdata: 0xa165627a7a72305820f0c37f8878ecb3d5801df6572ecfa6c938343066fb3fb4c038c134698a7ba27d0029\n}\n",
				"bytecode": {
					"linkReferences": {},
					"object": "60606040526010600155600154600a0a600255603c60035566038d7ea4c68000600755336000806101000a81548173ffffffffffffffffffffffffffffffffffffffff021916908373ffffffffffffffffffffffffffffffffffffffff160217905550611543806100716000396000f3006060604052600436106100e6576000357c0100000000000000000000000000000000000000000000000000000000900463ffffffff1680633ccfd60b146100eb5780635c8f191d146101005780635faf28801461012c5780636485be271461015857806383ae8b47146101e65780638da5cb5b1461022457806390b0722e14610279578063998dd3ca1461029c5780639a6bd379146103825780639abfb23e1461039a578063a936b8c9146103f7578063c39cbef114610444578063d81c513a1461047b578063e1fa7638146104de578063f2fde38b1461050a578063f715ea6814610543575b600080fd5b34156100f657600080fd5b6100fe61056c565b005b341561010b57600080fd5b61012a6004808035906020019091908035906020019091905050610641565b005b341561013757600080fd5b610156600480803590602001909190803590602001909190505061065d565b005b341561016357600080fd5b61018f600480803573ffffffffffffffffffffffffffffffffffffffff1690602001909190505061073d565b6040518080602001828103825283818151815260200191508051906020019060200280838360005b838110156101d25780820151818401526020810190506101b7565b505050509050019250505060405180910390f35b34156101f157600080fd5b610207600480803590602001909190505061086b565b604051808381526020018281526020019250505060405180910390f35b341561022f57600080fd5b61023761088f565b604051808273ffffffffffffffffffffffffffffffffffffffff1673ffffffffffffffffffffffffffffffffffffffff16815260200191505060405180910390f35b341561028457600080fd5b61029a60048080359060200190919050506108b4565b005b34156102a757600080fd5b6102bd6004808035906020019091905050610919565b60405180806020018581526020018463ffffffff1663ffffffff1681526020018363ffffffff1663ffffffff1681526020018281038252868181546001816001161561010002031660029004815260200191508054600181600116156101000203166002900480156103705780601f1061034557610100808354040283529160200191610370565b820191906000526020600020905b81548152906001019060200180831161035357829003601f168201915b50509550505050505060405180910390f35b6103986004808035906020019091905050610977565b005b34156103a557600080fd5b6103f5600480803590602001908201803590602001908080601f01602080910402602001604051908101604052809392919081815260200183838082843782019150505050505091905050610a50565b005b341561040257600080fd5b61042e600480803573ffffffffffffffffffffffffffffffffffffffff16906020019091905050610a6b565b6040518082815260200191505060405180910390f35b341561044f57600080fd5b61047960048080359060200190919080359060200190820180359060200191909192905050610a83565b005b341561048657600080fd5b61049c6004808035906020019091905050610b6f565b604051808273ffffffffffffffffffffffffffffffffffffffff1673ffffffffffffffffffffffffffffffffffffffff16815260200191505060405180910390f35b34156104e957600080fd5b6105086004808035906020019091908035906020019091905050610ba2565b005b341561051557600080fd5b610541600480803573ffffffffffffffffffffffffffffffffffffffff16906020019091905050610d2f565b005b341561054e57600080fd5b610556610e84565b6040518082815260200191505060405180910390f35b6000809054906101000a900473ffffffffffffffffffffffffffffffffffffffff1673ffffffffffffffffffffffffffffffffffffffff163373ffffffffffffffffffffffffffffffffffffffff161415156105c757600080fd5b6000809054906101000a900473ffffffffffffffffffffffffffffffffffffffff1673ffffffffffffffffffffffffffffffffffffffff166108fc3073ffffffffffffffffffffffffffffffffffffffff16319081150290604051600060405180830381858888f19350505050151561063f57600080fd5b565b600061064c82610e8a565b90506106588382610eb2565b505050565b6014828160048281548110151561067057fe5b906000526020600020906003020160020160009054906101000a900463ffffffff1663ffffffff16101515156106a557600080fd5b6005600085815260200190815260200160002060009054906101000a900473ffffffffffffffffffffffffffffffffffffffff1673ffffffffffffffffffffffffffffffffffffffff163373ffffffffffffffffffffffffffffffffffffffff1614151561071257600080fd5b8260048581548110151561072257fe5b90600052602060002090600302016001018190555050505050565b6107456112ff565b61074d6112ff565b600080600660008673ffffffffffffffffffffffffffffffffffffffff1673ffffffffffffffffffffffffffffffffffffffff1681526020019081526020016000205460405180591061079d5750595b9080825280602002602001820160405250925060009150600090505b600480549050811015610860578473ffffffffffffffffffffffffffffffffffffffff166005600083815260200190815260200160002060009054906101000a900473ffffffffffffffffffffffffffffffffffffffff1673ffffffffffffffffffffffffffffffffffffffff1614156108535780838381518110151561083c57fe5b906020019060200201818152505081806001019250505b80806001019150506107b9565b829350505050919050565b60086020528060005260406000206000915090508060000154908060010154905082565b6000809054906101000a900473ffffffffffffffffffffffffffffffffffffffff1681565b6000809054906101000a900473ffffffffffffffffffffffffffffffffffffffff1673ffffffffffffffffffffffffffffffffffffffff163373ffffffffffffffffffffffffffffffffffffffff1614151561090f57600080fd5b8060078190555050565b60048181548110151561092857fe5b906000526020600020906003020160009150905080600001908060010154908060020160009054906101000a900463ffffffff16908060020160049054906101000a900463ffffffff16905084565b6007543414151561098757600080fd5b6005600082815260200190815260200160002060009054906101000a900473ffffffffffffffffffffffffffffffffffffffff1673ffffffffffffffffffffffffffffffffffffffff163373ffffffffffffffffffffffffffffffffffffffff161415156109f457600080fd5b600481815481101515610a0357fe5b9060005260206000209060030201600201600081819054906101000a900463ffffffff168092919060010191906101000a81548163ffffffff021916908363ffffffff1602179055505050565b6000610a5b82611012565b9050610a678282611094565b5050565b60066020528060005260406000206000915090505481565b60028381600482815481101515610a9657fe5b906000526020600020906003020160020160009054906101000a900463ffffffff1663ffffffff1610151515610acb57600080fd5b6005600086815260200190815260200160002060009054906101000a900473ffffffffffffffffffffffffffffffffffffffff1673ffffffffffffffffffffffffffffffffffffffff163373ffffffffffffffffffffffffffffffffffffffff16141515610b3857600080fd5b8383600487815481101515610b4957fe5b90600052602060002090600302016000019190610b67929190611313565b505050505050565b60056020528060005260406000206000915054906101000a900473ffffffffffffffffffffffffffffffffffffffff1681565b60006005600084815260200190815260200160002060009054906101000a900473ffffffffffffffffffffffffffffffffffffffff1673ffffffffffffffffffffffffffffffffffffffff163373ffffffffffffffffffffffffffffffffffffffff16141515610c1157600080fd5b818314151515610c2057600080fd5b610c286112c5565b9050604b811015610cdd57600483815481101515610c4257fe5b9060005260206000209060030201600201600081819054906101000a900463ffffffff168092919060010191906101000a81548163ffffffff021916908363ffffffff1602179055505060086000848152602001908152602001600020600001600081548092919060010191905055506008600083815260200190815260200160002060010160008154809291906001019190505550610d2a565b600860008481526020019081526020016000206001016000815480929190600101919050555060086000838152602001908152602001600020600001600081548092919060010191905055505b505050565b6000809054906101000a900473ffffffffffffffffffffffffffffffffffffffff1673ffffffffffffffffffffffffffffffffffffffff163373ffffffffffffffffffffffffffffffffffffffff16141515610d8a57600080fd5b600073ffffffffffffffffffffffffffffffffffffffff168173ffffffffffffffffffffffffffffffffffffffff1614151515610dc657600080fd5b8073ffffffffffffffffffffffffffffffffffffffff166000809054906101000a900473ffffffffffffffffffffffffffffffffffffffff1673ffffffffffffffffffffffffffffffffffffffff167f8be0079c531659141344cd1fd0a4f28419497f9722a3daafe3b4186f6b6457e060405160405180910390a3806000806101000a81548173ffffffffffffffffffffffffffffffffffffffff021916908373ffffffffffffffffffffffffffffffffffffffff16021790555050565b60075481565b6000808260405180828152602001915050604051809103902060019004905080915050919050565b60008060006005600086815260200190815260200160002060009054906101000a900473ffffffffffffffffffffffffffffffffffffffff1673ffffffffffffffffffffffffffffffffffffffff163373ffffffffffffffffffffffffffffffffffffffff16141515610f2457600080fd5b600485815481101515610f3357fe5b906000526020600020906003020192508260020160049054906101000a900463ffffffff1663ffffffff164210151515610f6c57600080fd5b60025484811515610f7957fe5b069150600282846001015401811515610f8e57fe5b049050606360648083811515610fa057fe5b040201905060035442018360020160046101000a81548163ffffffff021916908363ffffffff16021790555061100b6040805190810160405280600681526020017f4e6f2d6f6e65000000000000000000000000000000000000000000000000000081525082611094565b5050505050565b600080826040518082805190602001908083835b60208310151561104b5780518252602082019150602081019050602083039250611026565b6001836020036101000a03801982511681845116808217855250505050505090500191505060405180910390206001900490506002548181151561108b57fe5b06915050919050565b600080600354420191506001600480548060010182816110b49190611393565b91600052602060002090600302016000608060405190810160405280898152602001888152602001600063ffffffff1681526020018763ffffffff16815250909190915060008201518160000190805190602001906111149291906113c5565b506020820151816001015560408201518160020160006101000a81548163ffffffff021916908363ffffffff16021790555060608201518160020160046101000a81548163ffffffff021916908363ffffffff1602179055505050039050336005600083815260200190815260200160002060006101000a81548173ffffffffffffffffffffffffffffffffffffffff021916908373ffffffffffffffffffffffffffffffffffffffff160217905550600660003373ffffffffffffffffffffffffffffffffffffffff1673ffffffffffffffffffffffffffffffffffffffff168152602001908152602001600020600081548092919060010191905055507f07be46eb2dba0b4dd932cd8c8cf7a4471478b8e52413bb8e9e885805968664318185856040518084815260200180602001838152602001828103825284818151815260200191508051906020019080838360005b83811015611283578082015181840152602081019050611268565b50505050905090810190601f1680156112b05780820380516001836020036101000a031916815260200191505b5094505050505060405180910390a150505050565b6000806064424460405180838152602001828152602001925050506040518091039020600190048115156112f557fe5b0690508091505090565b602060405190810160405280600081525090565b828054600181600116156101000203166002900490600052602060002090601f016020900481019282601f1061135457803560ff1916838001178555611382565b82800160010185558215611382579182015b82811115611381578235825591602001919060010190611366565b5b50905061138f9190611445565b5090565b8154818355818115116113c0576003028160030283600052602060002091820191016113bf919061146a565b5b505050565b828054600181600116156101000203166002900490600052602060002090601f016020900481019282601f1061140657805160ff1916838001178555611434565b82800160010185558215611434579182015b82811115611433578251825591602001919060010190611418565b5b5090506114419190611445565b5090565b61146791905b8082111561146357600081600090555060010161144b565b5090565b90565b6114cc91905b808211156114c8576000808201600061148991906114cf565b60018201600090556002820160006101000a81549063ffffffff02191690556002820160046101000a81549063ffffffff021916905550600301611470565b5090565b90565b50805460018160011615610100020316600290046000825580601f106114f55750611514565b601f0160209004906000526020600020908101906115139190611445565b5b505600a165627a7a72305820f0c37f8878ecb3d5801df6572ecfa6c938343066fb3fb4c038c134698a7ba27d0029",
					"opcodes": "PUSH1 0x60 PUSH1 0x40 MSTORE PUSH1 0x10 PUSH1 0x1 SSTORE PUSH1 0x1 SLOAD PUSH1 0xA EXP PUSH1 0x2 SSTORE PUSH1 0x3C PUSH1 0x3 SSTORE PUSH7 0x38D7EA4C68000 PUSH1 0x7 SSTORE CALLER PUSH1 0x0 DUP1 PUSH2 0x100 EXP DUP2 SLOAD DUP2 PUSH20 0xFFFFFFFFFFFFFFFFFFFFFFFFFFFFFFFFFFFFFFFF MUL NOT AND SWAP1 DUP4 PUSH20 0xFFFFFFFFFFFFFFFFFFFFFFFFFFFFFFFFFFFFFFFF AND MUL OR SWAP1 SSTORE POP PUSH2 0x1543 DUP1 PUSH2 0x71 PUSH1 0x0 CODECOPY PUSH1 0x0 RETURN STOP PUSH1 0x60 PUSH1 0x40 MSTORE PUSH1 0x4 CALLDATASIZE LT PUSH2 0xE6 JUMPI PUSH1 0x0 CALLDATALOAD PUSH29 0x100000000000000000000000000000000000000000000000000000000 SWAP1 DIV PUSH4 0xFFFFFFFF AND DUP1 PUSH4 0x3CCFD60B EQ PUSH2 0xEB JUMPI DUP1 PUSH4 0x5C8F191D EQ PUSH2 0x100 JUMPI DUP1 PUSH4 0x5FAF2880 EQ PUSH2 0x12C JUMPI DUP1 PUSH4 0x6485BE27 EQ PUSH2 0x158 JUMPI DUP1 PUSH4 0x83AE8B47 EQ PUSH2 0x1E6 JUMPI DUP1 PUSH4 0x8DA5CB5B EQ PUSH2 0x224 JUMPI DUP1 PUSH4 0x90B0722E EQ PUSH2 0x279 JUMPI DUP1 PUSH4 0x998DD3CA EQ PUSH2 0x29C JUMPI DUP1 PUSH4 0x9A6BD379 EQ PUSH2 0x382 JUMPI DUP1 PUSH4 0x9ABFB23E EQ PUSH2 0x39A JUMPI DUP1 PUSH4 0xA936B8C9 EQ PUSH2 0x3F7 JUMPI DUP1 PUSH4 0xC39CBEF1 EQ PUSH2 0x444 JUMPI DUP1 PUSH4 0xD81C513A EQ PUSH2 0x47B JUMPI DUP1 PUSH4 0xE1FA7638 EQ PUSH2 0x4DE JUMPI DUP1 PUSH4 0xF2FDE38B EQ PUSH2 0x50A JUMPI DUP1 PUSH4 0xF715EA68 EQ PUSH2 0x543 JUMPI JUMPDEST PUSH1 0x0 DUP1 REVERT JUMPDEST CALLVALUE ISZERO PUSH2 0xF6 JUMPI PUSH1 0x0 DUP1 REVERT JUMPDEST PUSH2 0xFE PUSH2 0x56C JUMP JUMPDEST STOP JUMPDEST CALLVALUE ISZERO PUSH2 0x10B JUMPI PUSH1 0x0 DUP1 REVERT JUMPDEST PUSH2 0x12A PUSH1 0x4 DUP1 DUP1 CALLDATALOAD SWAP1 PUSH1 0x20 ADD SWAP1 SWAP2 SWAP1 DUP1 CALLDATALOAD SWAP1 PUSH1 0x20 ADD SWAP1 SWAP2 SWAP1 POP POP PUSH2 0x641 JUMP JUMPDEST STOP JUMPDEST CALLVALUE ISZERO PUSH2 0x137 JUMPI PUSH1 0x0 DUP1 REVERT JUMPDEST PUSH2 0x156 PUSH1 0x4 DUP1 DUP1 CALLDATALOAD SWAP1 PUSH1 0x20 ADD SWAP1 SWAP2 SWAP1 DUP1 CALLDATALOAD SWAP1 PUSH1 0x20 ADD SWAP1 SWAP2 SWAP1 POP POP PUSH2 0x65D JUMP JUMPDEST STOP JUMPDEST CALLVALUE ISZERO PUSH2 0x163 JUMPI PUSH1 0x0 DUP1 REVERT JUMPDEST PUSH2 0x18F PUSH1 0x4 DUP1 DUP1 CALLDATALOAD PUSH20 0xFFFFFFFFFFFFFFFFFFFFFFFFFFFFFFFFFFFFFFFF AND SWAP1 PUSH1 0x20 ADD SWAP1 SWAP2 SWAP1 POP POP PUSH2 0x73D JUMP JUMPDEST PUSH1 0x40 MLOAD DUP1 DUP1 PUSH1 0x20 ADD DUP3 DUP2 SUB DUP3 MSTORE DUP4 DUP2 DUP2 MLOAD DUP2 MSTORE PUSH1 0x20 ADD SWAP2 POP DUP1 MLOAD SWAP1 PUSH1 0x20 ADD SWAP1 PUSH1 0x20 MUL DUP1 DUP4 DUP4 PUSH1 0x0 JUMPDEST DUP4 DUP2 LT ISZERO PUSH2 0x1D2 JUMPI DUP1 DUP3 ADD MLOAD DUP2 DUP5 ADD MSTORE PUSH1 0x20 DUP2 ADD SWAP1 POP PUSH2 0x1B7 JUMP JUMPDEST POP POP POP POP SWAP1 POP ADD SWAP3 POP POP POP PUSH1 0x40 MLOAD DUP1 SWAP2 SUB SWAP1 RETURN JUMPDEST CALLVALUE ISZERO PUSH2 0x1F1 JUMPI PUSH1 0x0 DUP1 REVERT JUMPDEST PUSH2 0x207 PUSH1 0x4 DUP1 DUP1 CALLDATALOAD SWAP1 PUSH1 0x20 ADD SWAP1 SWAP2 SWAP1 POP POP PUSH2 0x86B JUMP JUMPDEST PUSH1 0x40 MLOAD DUP1 DUP4 DUP2 MSTORE PUSH1 0x20 ADD DUP3 DUP2 MSTORE PUSH1 0x20 ADD SWAP3 POP POP POP PUSH1 0x40 MLOAD DUP1 SWAP2 SUB SWAP1 RETURN JUMPDEST CALLVALUE ISZERO PUSH2 0x22F JUMPI PUSH1 0x0 DUP1 REVERT JUMPDEST PUSH2 0x237 PUSH2 0x88F JUMP JUMPDEST PUSH1 0x40 MLOAD DUP1 DUP3 PUSH20 0xFFFFFFFFFFFFFFFFFFFFFFFFFFFFFFFFFFFFFFFF AND PUSH20 0xFFFFFFFFFFFFFFFFFFFFFFFFFFFFFFFFFFFFFFFF AND DUP2 MSTORE PUSH1 0x20 ADD SWAP2 POP POP PUSH1 0x40 MLOAD DUP1 SWAP2 SUB SWAP1 RETURN JUMPDEST CALLVALUE ISZERO PUSH2 0x284 JUMPI PUSH1 0x0 DUP1 REVERT JUMPDEST PUSH2 0x29A PUSH1 0x4 DUP1 DUP1 CALLDATALOAD SWAP1 PUSH1 0x20 ADD SWAP1 SWAP2 SWAP1 POP POP PUSH2 0x8B4 JUMP JUMPDEST STOP JUMPDEST CALLVALUE ISZERO PUSH2 0x2A7 JUMPI PUSH1 0x0 DUP1 REVERT JUMPDEST PUSH2 0x2BD PUSH1 0x4 DUP1 DUP1 CALLDATALOAD SWAP1 PUSH1 0x20 ADD SWAP1 SWAP2 SWAP1 POP POP PUSH2 0x919 JUMP JUMPDEST PUSH1 0x40 MLOAD DUP1 DUP1 PUSH1 0x20 ADD DUP6 DUP2 MSTORE PUSH1 0x20 ADD DUP5 PUSH4 0xFFFFFFFF AND PUSH4 0xFFFFFFFF AND DUP2 MSTORE PUSH1 0x20 ADD DUP4 PUSH4 0xFFFFFFFF AND PUSH4 0xFFFFFFFF AND DUP2 MSTORE PUSH1 0x20 ADD DUP3 DUP2 SUB DUP3 MSTORE DUP7 DUP2 DUP2 SLOAD PUSH1 0x1 DUP2 PUSH1 0x1 AND ISZERO PUSH2 0x100 MUL SUB AND PUSH1 0x2 SWAP1 DIV DUP2 MSTORE PUSH1 0x20 ADD SWAP2 POP DUP1 SLOAD PUSH1 0x1 DUP2 PUSH1 0x1 AND ISZERO PUSH2 0x100 MUL SUB AND PUSH1 0x2 SWAP1 DIV DUP1 ISZERO PUSH2 0x370 JUMPI DUP1 PUSH1 0x1F LT PUSH2 0x345 JUMPI PUSH2 0x100 DUP1 DUP4 SLOAD DIV MUL DUP4 MSTORE SWAP2 PUSH1 0x20 ADD SWAP2 PUSH2 0x370 JUMP JUMPDEST DUP3 ADD SWAP2 SWAP1 PUSH1 0x0 MSTORE PUSH1 0x20 PUSH1 0x0 KECCAK256 SWAP1 JUMPDEST DUP2 SLOAD DUP2 MSTORE SWAP1 PUSH1 0x1 ADD SWAP1 PUSH1 0x20 ADD DUP1 DUP4 GT PUSH2 0x353 JUMPI DUP3 SWAP1 SUB PUSH1 0x1F AND DUP3 ADD SWAP2 JUMPDEST POP POP SWAP6 POP POP POP POP POP POP PUSH1 0x40 MLOAD DUP1 SWAP2 SUB SWAP1 RETURN JUMPDEST PUSH2 0x398 PUSH1 0x4 DUP1 DUP1 CALLDATALOAD SWAP1 PUSH1 0x20 ADD SWAP1 SWAP2 SWAP1 POP POP PUSH2 0x977 JUMP JUMPDEST STOP JUMPDEST CALLVALUE ISZERO PUSH2 0x3A5 JUMPI PUSH1 0x0 DUP1 REVERT JUMPDEST PUSH2 0x3F5 PUSH1 0x4 DUP1 DUP1 CALLDATALOAD SWAP1 PUSH1 0x20 ADD SWAP1 DUP3 ADD DUP1 CALLDATALOAD SWAP1 PUSH1 0x20 ADD SWAP1 DUP1 DUP1 PUSH1 0x1F ADD PUSH1 0x20 DUP1 SWAP2 DIV MUL PUSH1 0x20 ADD PUSH1 0x40 MLOAD SWAP1 DUP2 ADD PUSH1 0x40 MSTORE DUP1 SWAP4 SWAP3 SWAP2 SWAP1 DUP2 DUP2 MSTORE PUSH1 0x20 ADD DUP4 DUP4 DUP1 DUP3 DUP5 CALLDATACOPY DUP3 ADD SWAP2 POP POP POP POP POP POP SWAP2 SWAP1 POP POP PUSH2 0xA50 JUMP JUMPDEST STOP JUMPDEST CALLVALUE ISZERO PUSH2 0x402 JUMPI PUSH1 0x0 DUP1 REVERT JUMPDEST PUSH2 0x42E PUSH1 0x4 DUP1 DUP1 CALLDATALOAD PUSH20 0xFFFFFFFFFFFFFFFFFFFFFFFFFFFFFFFFFFFFFFFF AND SWAP1 PUSH1 0x20 ADD SWAP1 SWAP2 SWAP1 POP POP PUSH2 0xA6B JUMP JUMPDEST PUSH1 0x40 MLOAD DUP1 DUP3 DUP2 MSTORE PUSH1 0x20 ADD SWAP2 POP POP PUSH1 0x40 MLOAD DUP1 SWAP2 SUB SWAP1 RETURN JUMPDEST CALLVALUE ISZERO PUSH2 0x44F JUMPI PUSH1 0x0 DUP1 REVERT JUMPDEST PUSH2 0x479 PUSH1 0x4 DUP1 DUP1 CALLDATALOAD SWAP1 PUSH1 0x20 ADD SWAP1 SWAP2 SWAP1 DUP1 CALLDATALOAD SWAP1 PUSH1 0x20 ADD SWAP1 DUP3 ADD DUP1 CALLDATALOAD SWAP1 PUSH1 0x20 ADD SWAP2 SWAP1 SWAP2 SWAP3 SWAP1 POP POP PUSH2 0xA83 JUMP JUMPDEST STOP JUMPDEST CALLVALUE ISZERO PUSH2 0x486 JUMPI PUSH1 0x0 DUP1 REVERT JUMPDEST PUSH2 0x49C PUSH1 0x4 DUP1 DUP1 CALLDATALOAD SWAP1 PUSH1 0x20 ADD SWAP1 SWAP2 SWAP1 POP POP PUSH2 0xB6F JUMP JUMPDEST PUSH1 0x40 MLOAD DUP1 DUP3 PUSH20 0xFFFFFFFFFFFFFFFFFFFFFFFFFFFFFFFFFFFFFFFF AND PUSH20 0xFFFFFFFFFFFFFFFFFFFFFFFFFFFFFFFFFFFFFFFF AND DUP2 MSTORE PUSH1 0x20 ADD SWAP2 POP POP PUSH1 0x40 MLOAD DUP1 SWAP2 SUB SWAP1 RETURN JUMPDEST CALLVALUE ISZERO PUSH2 0x4E9 JUMPI PUSH1 0x0 DUP1 REVERT JUMPDEST PUSH2 0x508 PUSH1 0x4 DUP1 DUP1 CALLDATALOAD SWAP1 PUSH1 0x20 ADD SWAP1 SWAP2 SWAP1 DUP1 CALLDATALOAD SWAP1 PUSH1 0x20 ADD SWAP1 SWAP2 SWAP1 POP POP PUSH2 0xBA2 JUMP JUMPDEST STOP JUMPDEST CALLVALUE ISZERO PUSH2 0x515 JUMPI PUSH1 0x0 DUP1 REVERT JUMPDEST PUSH2 0x541 PUSH1 0x4 DUP1 DUP1 CALLDATALOAD PUSH20 0xFFFFFFFFFFFFFFFFFFFFFFFFFFFFFFFFFFFFFFFF AND SWAP1 PUSH1 0x20 ADD SWAP1 SWAP2 SWAP1 POP POP PUSH2 0xD2F JUMP JUMPDEST STOP JUMPDEST CALLVALUE ISZERO PUSH2 0x54E JUMPI PUSH1 0x0 DUP1 REVERT JUMPDEST PUSH2 0x556 PUSH2 0xE84 JUMP JUMPDEST PUSH1 0x40 MLOAD DUP1 DUP3 DUP2 MSTORE PUSH1 0x20 ADD SWAP2 POP POP PUSH1 0x40 MLOAD DUP1 SWAP2 SUB SWAP1 RETURN JUMPDEST PUSH1 0x0 DUP1 SWAP1 SLOAD SWAP1 PUSH2 0x100 EXP SWAP1 DIV PUSH20 0xFFFFFFFFFFFFFFFFFFFFFFFFFFFFFFFFFFFFFFFF AND PUSH20 0xFFFFFFFFFFFFFFFFFFFFFFFFFFFFFFFFFFFFFFFF AND CALLER PUSH20 0xFFFFFFFFFFFFFFFFFFFFFFFFFFFFFFFFFFFFFFFF AND EQ ISZERO ISZERO PUSH2 0x5C7 JUMPI PUSH1 0x0 DUP1 REVERT JUMPDEST PUSH1 0x0 DUP1 SWAP1 SLOAD SWAP1 PUSH2 0x100 EXP SWAP1 DIV PUSH20 0xFFFFFFFFFFFFFFFFFFFFFFFFFFFFFFFFFFFFFFFF AND PUSH20 0xFFFFFFFFFFFFFFFFFFFFFFFFFFFFFFFFFFFFFFFF AND PUSH2 0x8FC ADDRESS PUSH20 0xFFFFFFFFFFFFFFFFFFFFFFFFFFFFFFFFFFFFFFFF AND BALANCE SWAP1 DUP2 ISZERO MUL SWAP1 PUSH1 0x40 MLOAD PUSH1 0x0 PUSH1 0x40 MLOAD DUP1 DUP4 SUB DUP2 DUP6 DUP9 DUP9 CALL SWAP4 POP POP POP POP ISZERO ISZERO PUSH2 0x63F JUMPI PUSH1 0x0 DUP1 REVERT JUMPDEST JUMP JUMPDEST PUSH1 0x0 PUSH2 0x64C DUP3 PUSH2 0xE8A JUMP JUMPDEST SWAP1 POP PUSH2 0x658 DUP4 DUP3 PUSH2 0xEB2 JUMP JUMPDEST POP POP POP JUMP JUMPDEST PUSH1 0x14 DUP3 DUP2 PUSH1 0x4 DUP3 DUP2 SLOAD DUP2 LT ISZERO ISZERO PUSH2 0x670 JUMPI INVALID JUMPDEST SWAP1 PUSH1 0x0 MSTORE PUSH1 0x20 PUSH1 0x0 KECCAK256 SWAP1 PUSH1 0x3 MUL ADD PUSH1 0x2 ADD PUSH1 0x0 SWAP1 SLOAD SWAP1 PUSH2 0x100 EXP SWAP1 DIV PUSH4 0xFFFFFFFF AND PUSH4 0xFFFFFFFF AND LT ISZERO ISZERO ISZERO PUSH2 0x6A5 JUMPI PUSH1 0x0 DUP1 REVERT JUMPDEST PUSH1 0x5 PUSH1 0x0 DUP6 DUP2 MSTORE PUSH1 0x20 ADD SWAP1 DUP2 MSTORE PUSH1 0x20 ADD PUSH1 0x0 KECCAK256 PUSH1 0x0 SWAP1 SLOAD SWAP1 PUSH2 0x100 EXP SWAP1 DIV PUSH20 0xFFFFFFFFFFFFFFFFFFFFFFFFFFFFFFFFFFFFFFFF AND PUSH20 0xFFFFFFFFFFFFFFFFFFFFFFFFFFFFFFFFFFFFFFFF AND CALLER PUSH20 0xFFFFFFFFFFFFFFFFFFFFFFFFFFFFFFFFFFFFFFFF AND EQ ISZERO ISZERO PUSH2 0x712 JUMPI PUSH1 0x0 DUP1 REVERT JUMPDEST DUP3 PUSH1 0x4 DUP6 DUP2 SLOAD DUP2 LT ISZERO ISZERO PUSH2 0x722 JUMPI INVALID JUMPDEST SWAP1 PUSH1 0x0 MSTORE PUSH1 0x20 PUSH1 0x0 KECCAK256 SWAP1 PUSH1 0x3 MUL ADD PUSH1 0x1 ADD DUP2 SWAP1 SSTORE POP POP POP POP POP JUMP JUMPDEST PUSH2 0x745 PUSH2 0x12FF JUMP JUMPDEST PUSH2 0x74D PUSH2 0x12FF JUMP JUMPDEST PUSH1 0x0 DUP1 PUSH1 0x6 PUSH1 0x0 DUP7 PUSH20 0xFFFFFFFFFFFFFFFFFFFFFFFFFFFFFFFFFFFFFFFF AND PUSH20 0xFFFFFFFFFFFFFFFFFFFFFFFFFFFFFFFFFFFFFFFF AND DUP2 MSTORE PUSH1 0x20 ADD SWAP1 DUP2 MSTORE PUSH1 0x20 ADD PUSH1 0x0 KECCAK256 SLOAD PUSH1 0x40 MLOAD DUP1 MSIZE LT PUSH2 0x79D JUMPI POP MSIZE JUMPDEST SWAP1 DUP1 DUP3 MSTORE DUP1 PUSH1 0x20 MUL PUSH1 0x20 ADD DUP3 ADD PUSH1 0x40 MSTORE POP SWAP3 POP PUSH1 0x0 SWAP2 POP PUSH1 0x0 SWAP1 POP JUMPDEST PUSH1 0x4 DUP1 SLOAD SWAP1 POP DUP2 LT ISZERO PUSH2 0x860 JUMPI DUP5 PUSH20 0xFFFFFFFFFFFFFFFFFFFFFFFFFFFFFFFFFFFFFFFF AND PUSH1 0x5 PUSH1 0x0 DUP4 DUP2 MSTORE PUSH1 0x20 ADD SWAP1 DUP2 MSTORE PUSH1 0x20 ADD PUSH1 0x0 KECCAK256 PUSH1 0x0 SWAP1 SLOAD SWAP1 PUSH2 0x100 EXP SWAP1 DIV PUSH20 0xFFFFFFFFFFFFFFFFFFFFFFFFFFFFFFFFFFFFFFFF AND PUSH20 0xFFFFFFFFFFFFFFFFFFFFFFFFFFFFFFFFFFFFFFFF AND EQ ISZERO PUSH2 0x853 JUMPI DUP1 DUP4 DUP4 DUP2 MLOAD DUP2 LT ISZERO ISZERO PUSH2 0x83C JUMPI INVALID JUMPDEST SWAP1 PUSH1 0x20 ADD SWAP1 PUSH1 0x20 MUL ADD DUP2 DUP2 MSTORE POP POP DUP2 DUP1 PUSH1 0x1 ADD SWAP3 POP POP JUMPDEST DUP1 DUP1 PUSH1 0x1 ADD SWAP2 POP POP PUSH2 0x7B9 JUMP JUMPDEST DUP3 SWAP4 POP POP POP POP SWAP2 SWAP1 POP JUMP JUMPDEST PUSH1 0x8 PUSH1 0x20 MSTORE DUP1 PUSH1 0x0 MSTORE PUSH1 0x40 PUSH1 0x0 KECCAK256 PUSH1 0x0 SWAP2 POP SWAP1 POP DUP1 PUSH1 0x0 ADD SLOAD SWAP1 DUP1 PUSH1 0x1 ADD SLOAD SWAP1 POP DUP3 JUMP JUMPDEST PUSH1 0x0 DUP1 SWAP1 SLOAD SWAP1 PUSH2 0x100 EXP SWAP1 DIV PUSH20 0xFFFFFFFFFFFFFFFFFFFFFFFFFFFFFFFFFFFFFFFF AND DUP2 JUMP JUMPDEST PUSH1 0x0 DUP1 SWAP1 SLOAD SWAP1 PUSH2 0x100 EXP SWAP1 DIV PUSH20 0xFFFFFFFFFFFFFFFFFFFFFFFFFFFFFFFFFFFFFFFF AND PUSH20 0xFFFFFFFFFFFFFFFFFFFFFFFFFFFFFFFFFFFFFFFF AND CALLER PUSH20 0xFFFFFFFFFFFFFFFFFFFFFFFFFFFFFFFFFFFFFFFF AND EQ ISZERO ISZERO PUSH2 0x90F JUMPI PUSH1 0x0 DUP1 REVERT JUMPDEST DUP1 PUSH1 0x7 DUP2 SWAP1 SSTORE POP POP JUMP JUMPDEST PUSH1 0x4 DUP2 DUP2 SLOAD DUP2 LT ISZERO ISZERO PUSH2 0x928 JUMPI INVALID JUMPDEST SWAP1 PUSH1 0x0 MSTORE PUSH1 0x20 PUSH1 0x0 KECCAK256 SWAP1 PUSH1 0x3 MUL ADD PUSH1 0x0 SWAP2 POP SWAP1 POP DUP1 PUSH1 0x0 ADD SWAP1 DUP1 PUSH1 0x1 ADD SLOAD SWAP1 DUP1 PUSH1 0x2 ADD PUSH1 0x0 SWAP1 SLOAD SWAP1 PUSH2 0x100 EXP SWAP1 DIV PUSH4 0xFFFFFFFF AND SWAP1 DUP1 PUSH1 0x2 ADD PUSH1 0x4 SWAP1 SLOAD SWAP1 PUSH2 0x100 EXP SWAP1 DIV PUSH4 0xFFFFFFFF AND SWAP1 POP DUP5 JUMP JUMPDEST PUSH1 0x7 SLOAD CALLVALUE EQ ISZERO ISZERO PUSH2 0x987 JUMPI PUSH1 0x0 DUP1 REVERT JUMPDEST PUSH1 0x5 PUSH1 0x0 DUP3 DUP2 MSTORE PUSH1 0x20 ADD SWAP1 DUP2 MSTORE PUSH1 0x20 ADD PUSH1 0x0 KECCAK256 PUSH1 0x0 SWAP1 SLOAD SWAP1 PUSH2 0x100 EXP SWAP1 DIV PUSH20 0xFFFFFFFFFFFFFFFFFFFFFFFFFFFFFFFFFFFFFFFF AND PUSH20 0xFFFFFFFFFFFFFFFFFFFFFFFFFFFFFFFFFFFFFFFF AND CALLER PUSH20 0xFFFFFFFFFFFFFFFFFFFFFFFFFFFFFFFFFFFFFFFF AND EQ ISZERO ISZERO PUSH2 0x9F4 JUMPI PUSH1 0x0 DUP1 REVERT JUMPDEST PUSH1 0x4 DUP2 DUP2 SLOAD DUP2 LT ISZERO ISZERO PUSH2 0xA03 JUMPI INVALID JUMPDEST SWAP1 PUSH1 0x0 MSTORE PUSH1 0x20 PUSH1 0x0 KECCAK256 SWAP1 PUSH1 0x3 MUL ADD PUSH1 0x2 ADD PUSH1 0x0 DUP2 DUP2 SWAP1 SLOAD SWAP1 PUSH2 0x100 EXP SWAP1 DIV PUSH4 0xFFFFFFFF AND DUP1 SWAP3 SWAP2 SWAP1 PUSH1 0x1 ADD SWAP2 SWAP1 PUSH2 0x100 EXP DUP2 SLOAD DUP2 PUSH4 0xFFFFFFFF MUL NOT AND SWAP1 DUP4 PUSH4 0xFFFFFFFF AND MUL OR SWAP1 SSTORE POP POP POP JUMP JUMPDEST PUSH1 0x0 PUSH2 0xA5B DUP3 PUSH2 0x1012 JUMP JUMPDEST SWAP1 POP PUSH2 0xA67 DUP3 DUP3 PUSH2 0x1094 JUMP JUMPDEST POP POP JUMP JUMPDEST PUSH1 0x6 PUSH1 0x20 MSTORE DUP1 PUSH1 0x0 MSTORE PUSH1 0x40 PUSH1 0x0 KECCAK256 PUSH1 0x0 SWAP2 POP SWAP1 POP SLOAD DUP2 JUMP JUMPDEST PUSH1 0x2 DUP4 DUP2 PUSH1 0x4 DUP3 DUP2 SLOAD DUP2 LT ISZERO ISZERO PUSH2 0xA96 JUMPI INVALID JUMPDEST SWAP1 PUSH1 0x0 MSTORE PUSH1 0x20 PUSH1 0x0 KECCAK256 SWAP1 PUSH1 0x3 MUL ADD PUSH1 0x2 ADD PUSH1 0x0 SWAP1 SLOAD SWAP1 PUSH2 0x100 EXP SWAP1 DIV PUSH4 0xFFFFFFFF AND PUSH4 0xFFFFFFFF AND LT ISZERO ISZERO ISZERO PUSH2 0xACB JUMPI PUSH1 0x0 DUP1 REVERT JUMPDEST PUSH1 0x5 PUSH1 0x0 DUP7 DUP2 MSTORE PUSH1 0x20 ADD SWAP1 DUP2 MSTORE PUSH1 0x20 ADD PUSH1 0x0 KECCAK256 PUSH1 0x0 SWAP1 SLOAD SWAP1 PUSH2 0x100 EXP SWAP1 DIV PUSH20 0xFFFFFFFFFFFFFFFFFFFFFFFFFFFFFFFFFFFFFFFF AND PUSH20 0xFFFFFFFFFFFFFFFFFFFFFFFFFFFFFFFFFFFFFFFF AND CALLER PUSH20 0xFFFFFFFFFFFFFFFFFFFFFFFFFFFFFFFFFFFFFFFF AND EQ ISZERO ISZERO PUSH2 0xB38 JUMPI PUSH1 0x0 DUP1 REVERT JUMPDEST DUP4 DUP4 PUSH1 0x4 DUP8 DUP2 SLOAD DUP2 LT ISZERO ISZERO PUSH2 0xB49 JUMPI INVALID JUMPDEST SWAP1 PUSH1 0x0 MSTORE PUSH1 0x20 PUSH1 0x0 KECCAK256 SWAP1 PUSH1 0x3 MUL ADD PUSH1 0x0 ADD SWAP2 SWAP1 PUSH2 0xB67 SWAP3 SWAP2 SWAP1 PUSH2 0x1313 JUMP JUMPDEST POP POP POP POP POP POP JUMP JUMPDEST PUSH1 0x5 PUSH1 0x20 MSTORE DUP1 PUSH1 0x0 MSTORE PUSH1 0x40 PUSH1 0x0 KECCAK256 PUSH1 0x0 SWAP2 POP SLOAD SWAP1 PUSH2 0x100 EXP SWAP1 DIV PUSH20 0xFFFFFFFFFFFFFFFFFFFFFFFFFFFFFFFFFFFFFFFF AND DUP2 JUMP JUMPDEST PUSH1 0x0 PUSH1 0x5 PUSH1 0x0 DUP5 DUP2 MSTORE PUSH1 0x20 ADD SWAP1 DUP2 MSTORE PUSH1 0x20 ADD PUSH1 0x0 KECCAK256 PUSH1 0x0 SWAP1 SLOAD SWAP1 PUSH2 0x100 EXP SWAP1 DIV PUSH20 0xFFFFFFFFFFFFFFFFFFFFFFFFFFFFFFFFFFFFFFFF AND PUSH20 0xFFFFFFFFFFFFFFFFFFFFFFFFFFFFFFFFFFFFFFFF AND CALLER PUSH20 0xFFFFFFFFFFFFFFFFFFFFFFFFFFFFFFFFFFFFFFFF AND EQ ISZERO ISZERO PUSH2 0xC11 JUMPI PUSH1 0x0 DUP1 REVERT JUMPDEST DUP2 DUP4 EQ ISZERO ISZERO ISZERO PUSH2 0xC20 JUMPI PUSH1 0x0 DUP1 REVERT JUMPDEST PUSH2 0xC28 PUSH2 0x12C5 JUMP JUMPDEST SWAP1 POP PUSH1 0x4B DUP2 LT ISZERO PUSH2 0xCDD JUMPI PUSH1 0x4 DUP4 DUP2 SLOAD DUP2 LT ISZERO ISZERO PUSH2 0xC42 JUMPI INVALID JUMPDEST SWAP1 PUSH1 0x0 MSTORE PUSH1 0x20 PUSH1 0x0 KECCAK256 SWAP1 PUSH1 0x3 MUL ADD PUSH1 0x2 ADD PUSH1 0x0 DUP2 DUP2 SWAP1 SLOAD SWAP1 PUSH2 0x100 EXP SWAP1 DIV PUSH4 0xFFFFFFFF AND DUP1 SWAP3 SWAP2 SWAP1 PUSH1 0x1 ADD SWAP2 SWAP1 PUSH2 0x100 EXP DUP2 SLOAD DUP2 PUSH4 0xFFFFFFFF MUL NOT AND SWAP1 DUP4 PUSH4 0xFFFFFFFF AND MUL OR SWAP1 SSTORE POP POP PUSH1 0x8 PUSH1 0x0 DUP5 DUP2 MSTORE PUSH1 0x20 ADD SWAP1 DUP2 MSTORE PUSH1 0x20 ADD PUSH1 0x0 KECCAK256 PUSH1 0x0 ADD PUSH1 0x0 DUP2 SLOAD DUP1 SWAP3 SWAP2 SWAP1 PUSH1 0x1 ADD SWAP2 SWAP1 POP SSTORE POP PUSH1 0x8 PUSH1 0x0 DUP4 DUP2 MSTORE PUSH1 0x20 ADD SWAP1 DUP2 MSTORE PUSH1 0x20 ADD PUSH1 0x0 KECCAK256 PUSH1 0x1 ADD PUSH1 0x0 DUP2 SLOAD DUP1 SWAP3 SWAP2 SWAP1 PUSH1 0x1 ADD SWAP2 SWAP1 POP SSTORE POP PUSH2 0xD2A JUMP JUMPDEST PUSH1 0x8 PUSH1 0x0 DUP5 DUP2 MSTORE PUSH1 0x20 ADD SWAP1 DUP2 MSTORE PUSH1 0x20 ADD PUSH1 0x0 KECCAK256 PUSH1 0x1 ADD PUSH1 0x0 DUP2 SLOAD DUP1 SWAP3 SWAP2 SWAP1 PUSH1 0x1 ADD SWAP2 SWAP1 POP SSTORE POP PUSH1 0x8 PUSH1 0x0 DUP4 DUP2 MSTORE PUSH1 0x20 ADD SWAP1 DUP2 MSTORE PUSH1 0x20 ADD PUSH1 0x0 KECCAK256 PUSH1 0x0 ADD PUSH1 0x0 DUP2 SLOAD DUP1 SWAP3 SWAP2 SWAP1 PUSH1 0x1 ADD SWAP2 SWAP1 POP SSTORE POP JUMPDEST POP POP POP JUMP JUMPDEST PUSH1 0x0 DUP1 SWAP1 SLOAD SWAP1 PUSH2 0x100 EXP SWAP1 DIV PUSH20 0xFFFFFFFFFFFFFFFFFFFFFFFFFFFFFFFFFFFFFFFF AND PUSH20 0xFFFFFFFFFFFFFFFFFFFFFFFFFFFFFFFFFFFFFFFF AND CALLER PUSH20 0xFFFFFFFFFFFFFFFFFFFFFFFFFFFFFFFFFFFFFFFF AND EQ ISZERO ISZERO PUSH2 0xD8A JUMPI PUSH1 0x0 DUP1 REVERT JUMPDEST PUSH1 0x0 PUSH20 0xFFFFFFFFFFFFFFFFFFFFFFFFFFFFFFFFFFFFFFFF AND DUP2 PUSH20 0xFFFFFFFFFFFFFFFFFFFFFFFFFFFFFFFFFFFFFFFF AND EQ ISZERO ISZERO ISZERO PUSH2 0xDC6 JUMPI PUSH1 0x0 DUP1 REVERT JUMPDEST DUP1 PUSH20 0xFFFFFFFFFFFFFFFFFFFFFFFFFFFFFFFFFFFFFFFF AND PUSH1 0x0 DUP1 SWAP1 SLOAD SWAP1 PUSH2 0x100 EXP SWAP1 DIV PUSH20 0xFFFFFFFFFFFFFFFFFFFFFFFFFFFFFFFFFFFFFFFF AND PUSH20 0xFFFFFFFFFFFFFFFFFFFFFFFFFFFFFFFFFFFFFFFF AND PUSH32 0x8BE0079C531659141344CD1FD0A4F28419497F9722A3DAAFE3B4186F6B6457E0 PUSH1 0x40 MLOAD PUSH1 0x40 MLOAD DUP1 SWAP2 SUB SWAP1 LOG3 DUP1 PUSH1 0x0 DUP1 PUSH2 0x100 EXP DUP2 SLOAD DUP2 PUSH20 0xFFFFFFFFFFFFFFFFFFFFFFFFFFFFFFFFFFFFFFFF MUL NOT AND SWAP1 DUP4 PUSH20 0xFFFFFFFFFFFFFFFFFFFFFFFFFFFFFFFFFFFFFFFF AND MUL OR SWAP1 SSTORE POP POP JUMP JUMPDEST PUSH1 0x7 SLOAD DUP2 JUMP JUMPDEST PUSH1 0x0 DUP1 DUP3 PUSH1 0x40 MLOAD DUP1 DUP3 DUP2 MSTORE PUSH1 0x20 ADD SWAP2 POP POP PUSH1 0x40 MLOAD DUP1 SWAP2 SUB SWAP1 KECCAK256 PUSH1 0x1 SWAP1 DIV SWAP1 POP DUP1 SWAP2 POP POP SWAP2 SWAP1 POP JUMP JUMPDEST PUSH1 0x0 DUP1 PUSH1 0x0 PUSH1 0x5 PUSH1 0x0 DUP7 DUP2 MSTORE PUSH1 0x20 ADD SWAP1 DUP2 MSTORE PUSH1 0x20 ADD PUSH1 0x0 KECCAK256 PUSH1 0x0 SWAP1 SLOAD SWAP1 PUSH2 0x100 EXP SWAP1 DIV PUSH20 0xFFFFFFFFFFFFFFFFFFFFFFFFFFFFFFFFFFFFFFFF AND PUSH20 0xFFFFFFFFFFFFFFFFFFFFFFFFFFFFFFFFFFFFFFFF AND CALLER PUSH20 0xFFFFFFFFFFFFFFFFFFFFFFFFFFFFFFFFFFFFFFFF AND EQ ISZERO ISZERO PUSH2 0xF24 JUMPI PUSH1 0x0 DUP1 REVERT JUMPDEST PUSH1 0x4 DUP6 DUP2 SLOAD DUP2 LT ISZERO ISZERO PUSH2 0xF33 JUMPI INVALID JUMPDEST SWAP1 PUSH1 0x0 MSTORE PUSH1 0x20 PUSH1 0x0 KECCAK256 SWAP1 PUSH1 0x3 MUL ADD SWAP3 POP DUP3 PUSH1 0x2 ADD PUSH1 0x4 SWAP1 SLOAD SWAP1 PUSH2 0x100 EXP SWAP1 DIV PUSH4 0xFFFFFFFF AND PUSH4 0xFFFFFFFF AND TIMESTAMP LT ISZERO ISZERO ISZERO PUSH2 0xF6C JUMPI PUSH1 0x0 DUP1 REVERT JUMPDEST PUSH1 0x2 SLOAD DUP5 DUP2 ISZERO ISZERO PUSH2 0xF79 JUMPI INVALID JUMPDEST MOD SWAP2 POP PUSH1 0x2 DUP3 DUP5 PUSH1 0x1 ADD SLOAD ADD DUP2 ISZERO ISZERO PUSH2 0xF8E JUMPI INVALID JUMPDEST DIV SWAP1 POP PUSH1 0x63 PUSH1 0x64 DUP1 DUP4 DUP2 ISZERO ISZERO PUSH2 0xFA0 JUMPI INVALID JUMPDEST DIV MUL ADD SWAP1 POP PUSH1 0x3 SLOAD TIMESTAMP ADD DUP4 PUSH1 0x2 ADD PUSH1 0x4 PUSH2 0x100 EXP DUP2 SLOAD DUP2 PUSH4 0xFFFFFFFF MUL NOT AND SWAP1 DUP4 PUSH4 0xFFFFFFFF AND MUL OR SWAP1 SSTORE POP PUSH2 0x100B PUSH1 0x40 DUP1 MLOAD SWAP1 DUP2 ADD PUSH1 0x40 MSTORE DUP1 PUSH1 0x6 DUP2 MSTORE PUSH1 0x20 ADD PUSH32 0x4E6F2D6F6E650000000000000000000000000000000000000000000000000000 DUP2 MSTORE POP DUP3 PUSH2 0x1094 JUMP JUMPDEST POP POP POP POP POP JUMP JUMPDEST PUSH1 0x0 DUP1 DUP3 PUSH1 0x40 MLOAD DUP1 DUP3 DUP1 MLOAD SWAP1 PUSH1 0x20 ADD SWAP1 DUP1 DUP4 DUP4 JUMPDEST PUSH1 0x20 DUP4 LT ISZERO ISZERO PUSH2 0x104B JUMPI DUP1 MLOAD DUP3 MSTORE PUSH1 0x20 DUP3 ADD SWAP2 POP PUSH1 0x20 DUP2 ADD SWAP1 POP PUSH1 0x20 DUP4 SUB SWAP3 POP PUSH2 0x1026 JUMP JUMPDEST PUSH1 0x1 DUP4 PUSH1 0x20 SUB PUSH2 0x100 EXP SUB DUP1 NOT DUP3 MLOAD AND DUP2 DUP5 MLOAD AND DUP1 DUP3 OR DUP6 MSTORE POP POP POP POP POP POP SWAP1 POP ADD SWAP2 POP POP PUSH1 0x40 MLOAD DUP1 SWAP2 SUB SWAP1 KECCAK256 PUSH1 0x1 SWAP1 DIV SWAP1 POP PUSH1 0x2 SLOAD DUP2 DUP2 ISZERO ISZERO PUSH2 0x108B JUMPI INVALID JUMPDEST MOD SWAP2 POP POP SWAP2 SWAP1 POP JUMP JUMPDEST PUSH1 0x0 DUP1 PUSH1 0x3 SLOAD TIMESTAMP ADD SWAP2 POP PUSH1 0x1 PUSH1 0x4 DUP1 SLOAD DUP1 PUSH1 0x1 ADD DUP3 DUP2 PUSH2 0x10B4 SWAP2 SWAP1 PUSH2 0x1393 JUMP JUMPDEST SWAP2 PUSH1 0x0 MSTORE PUSH1 0x20 PUSH1 0x0 KECCAK256 SWAP1 PUSH1 0x3 MUL ADD PUSH1 0x0 PUSH1 0x80 PUSH1 0x40 MLOAD SWAP1 DUP2 ADD PUSH1 0x40 MSTORE DUP1 DUP10 DUP2 MSTORE PUSH1 0x20 ADD DUP9 DUP2 MSTORE PUSH1 0x20 ADD PUSH1 0x0 PUSH4 0xFFFFFFFF AND DUP2 MSTORE PUSH1 0x20 ADD DUP8 PUSH4 0xFFFFFFFF AND DUP2 MSTORE POP SWAP1 SWAP2 SWAP1 SWAP2 POP PUSH1 0x0 DUP3 ADD MLOAD DUP2 PUSH1 0x0 ADD SWAP1 DUP1 MLOAD SWAP1 PUSH1 0x20 ADD SWAP1 PUSH2 0x1114 SWAP3 SWAP2 SWAP1 PUSH2 0x13C5 JUMP JUMPDEST POP PUSH1 0x20 DUP3 ADD MLOAD DUP2 PUSH1 0x1 ADD SSTORE PUSH1 0x40 DUP3 ADD MLOAD DUP2 PUSH1 0x2 ADD PUSH1 0x0 PUSH2 0x100 EXP DUP2 SLOAD DUP2 PUSH4 0xFFFFFFFF MUL NOT AND SWAP1 DUP4 PUSH4 0xFFFFFFFF AND MUL OR SWAP1 SSTORE POP PUSH1 0x60 DUP3 ADD MLOAD DUP2 PUSH1 0x2 ADD PUSH1 0x4 PUSH2 0x100 EXP DUP2 SLOAD DUP2 PUSH4 0xFFFFFFFF MUL NOT AND SWAP1 DUP4 PUSH4 0xFFFFFFFF AND MUL OR SWAP1 SSTORE POP POP POP SUB SWAP1 POP CALLER PUSH1 0x5 PUSH1 0x0 DUP4 DUP2 MSTORE PUSH1 0x20 ADD SWAP1 DUP2 MSTORE PUSH1 0x20 ADD PUSH1 0x0 KECCAK256 PUSH1 0x0 PUSH2 0x100 EXP DUP2 SLOAD DUP2 PUSH20 0xFFFFFFFFFFFFFFFFFFFFFFFFFFFFFFFFFFFFFFFF MUL NOT AND SWAP1 DUP4 PUSH20 0xFFFFFFFFFFFFFFFFFFFFFFFFFFFFFFFFFFFFFFFF AND MUL OR SWAP1 SSTORE POP PUSH1 0x6 PUSH1 0x0 CALLER PUSH20 0xFFFFFFFFFFFFFFFFFFFFFFFFFFFFFFFFFFFFFFFF AND PUSH20 0xFFFFFFFFFFFFFFFFFFFFFFFFFFFFFFFFFFFFFFFF AND DUP2 MSTORE PUSH1 0x20 ADD SWAP1 DUP2 MSTORE PUSH1 0x20 ADD PUSH1 0x0 KECCAK256 PUSH1 0x0 DUP2 SLOAD DUP1 SWAP3 SWAP2 SWAP1 PUSH1 0x1 ADD SWAP2 SWAP1 POP SSTORE POP PUSH32 0x7BE46EB2DBA0B4DD932CD8C8CF7A4471478B8E52413BB8E9E88580596866431 DUP2 DUP6 DUP6 PUSH1 0x40 MLOAD DUP1 DUP5 DUP2 MSTORE PUSH1 0x20 ADD DUP1 PUSH1 0x20 ADD DUP4 DUP2 MSTORE PUSH1 0x20 ADD DUP3 DUP2 SUB DUP3 MSTORE DUP5 DUP2 DUP2 MLOAD DUP2 MSTORE PUSH1 0x20 ADD SWAP2 POP DUP1 MLOAD SWAP1 PUSH1 0x20 ADD SWAP1 DUP1 DUP4 DUP4 PUSH1 0x0 JUMPDEST DUP4 DUP2 LT ISZERO PUSH2 0x1283 JUMPI DUP1 DUP3 ADD MLOAD DUP2 DUP5 ADD MSTORE PUSH1 0x20 DUP2 ADD SWAP1 POP PUSH2 0x1268 JUMP JUMPDEST POP POP POP POP SWAP1 POP SWAP1 DUP2 ADD SWAP1 PUSH1 0x1F AND DUP1 ISZERO PUSH2 0x12B0 JUMPI DUP1 DUP3 SUB DUP1 MLOAD PUSH1 0x1 DUP4 PUSH1 0x20 SUB PUSH2 0x100 EXP SUB NOT AND DUP2 MSTORE PUSH1 0x20 ADD SWAP2 POP JUMPDEST POP SWAP5 POP POP POP POP POP PUSH1 0x40 MLOAD DUP1 SWAP2 SUB SWAP1 LOG1 POP POP POP POP JUMP JUMPDEST PUSH1 0x0 DUP1 PUSH1 0x64 TIMESTAMP DIFFICULTY PUSH1 0x40 MLOAD DUP1 DUP4 DUP2 MSTORE PUSH1 0x20 ADD DUP3 DUP2 MSTORE PUSH1 0x20 ADD SWAP3 POP POP POP PUSH1 0x40 MLOAD DUP1 SWAP2 SUB SWAP1 KECCAK256 PUSH1 0x1 SWAP1 DIV DUP2 ISZERO ISZERO PUSH2 0x12F5 JUMPI INVALID JUMPDEST MOD SWAP1 POP DUP1 SWAP2 POP POP SWAP1 JUMP JUMPDEST PUSH1 0x20 PUSH1 0x40 MLOAD SWAP1 DUP2 ADD PUSH1 0x40 MSTORE DUP1 PUSH1 0x0 DUP2 MSTORE POP SWAP1 JUMP JUMPDEST DUP3 DUP1 SLOAD PUSH1 0x1 DUP2 PUSH1 0x1 AND ISZERO PUSH2 0x100 MUL SUB AND PUSH1 0x2 SWAP1 DIV SWAP1 PUSH1 0x0 MSTORE PUSH1 0x20 PUSH1 0x0 KECCAK256 SWAP1 PUSH1 0x1F ADD PUSH1 0x20 SWAP1 DIV DUP2 ADD SWAP3 DUP3 PUSH1 0x1F LT PUSH2 0x1354 JUMPI DUP1 CALLDATALOAD PUSH1 0xFF NOT AND DUP4 DUP1 ADD OR DUP6 SSTORE PUSH2 0x1382 JUMP JUMPDEST DUP3 DUP1 ADD PUSH1 0x1 ADD DUP6 SSTORE DUP3 ISZERO PUSH2 0x1382 JUMPI SWAP2 DUP3 ADD JUMPDEST DUP3 DUP2 GT ISZERO PUSH2 0x1381 JUMPI DUP3 CALLDATALOAD DUP3 SSTORE SWAP2 PUSH1 0x20 ADD SWAP2 SWAP1 PUSH1 0x1 ADD SWAP1 PUSH2 0x1366 JUMP JUMPDEST JUMPDEST POP SWAP1 POP PUSH2 0x138F SWAP2 SWAP1 PUSH2 0x1445 JUMP JUMPDEST POP SWAP1 JUMP JUMPDEST DUP2 SLOAD DUP2 DUP4 SSTORE DUP2 DUP2 ISZERO GT PUSH2 0x13C0 JUMPI PUSH1 0x3 MUL DUP2 PUSH1 0x3 MUL DUP4 PUSH1 0x0 MSTORE PUSH1 0x20 PUSH1 0x0 KECCAK256 SWAP2 DUP3 ADD SWAP2 ADD PUSH2 0x13BF SWAP2 SWAP1 PUSH2 0x146A JUMP JUMPDEST JUMPDEST POP POP POP JUMP JUMPDEST DUP3 DUP1 SLOAD PUSH1 0x1 DUP2 PUSH1 0x1 AND ISZERO PUSH2 0x100 MUL SUB AND PUSH1 0x2 SWAP1 DIV SWAP1 PUSH1 0x0 MSTORE PUSH1 0x20 PUSH1 0x0 KECCAK256 SWAP1 PUSH1 0x1F ADD PUSH1 0x20 SWAP1 DIV DUP2 ADD SWAP3 DUP3 PUSH1 0x1F LT PUSH2 0x1406 JUMPI DUP1 MLOAD PUSH1 0xFF NOT AND DUP4 DUP1 ADD OR DUP6 SSTORE PUSH2 0x1434 JUMP JUMPDEST DUP3 DUP1 ADD PUSH1 0x1 ADD DUP6 SSTORE DUP3 ISZERO PUSH2 0x1434 JUMPI SWAP2 DUP3 ADD JUMPDEST DUP3 DUP2 GT ISZERO PUSH2 0x1433 JUMPI DUP3 MLOAD DUP3 SSTORE SWAP2 PUSH1 0x20 ADD SWAP2 SWAP1 PUSH1 0x1 ADD SWAP1 PUSH2 0x1418 JUMP JUMPDEST JUMPDEST POP SWAP1 POP PUSH2 0x1441 SWAP2 SWAP1 PUSH2 0x1445 JUMP JUMPDEST POP SWAP1 JUMP JUMPDEST PUSH2 0x1467 SWAP2 SWAP1 JUMPDEST DUP1 DUP3 GT ISZERO PUSH2 0x1463 JUMPI PUSH1 0x0 DUP2 PUSH1 0x0 SWAP1 SSTORE POP PUSH1 0x1 ADD PUSH2 0x144B JUMP JUMPDEST POP SWAP1 JUMP JUMPDEST SWAP1 JUMP JUMPDEST PUSH2 0x14CC SWAP2 SWAP1 JUMPDEST DUP1 DUP3 GT ISZERO PUSH2 0x14C8 JUMPI PUSH1 0x0 DUP1 DUP3 ADD PUSH1 0x0 PUSH2 0x1489 SWAP2 SWAP1 PUSH2 0x14CF JUMP JUMPDEST PUSH1 0x1 DUP3 ADD PUSH1 0x0 SWAP1 SSTORE PUSH1 0x2 DUP3 ADD PUSH1 0x0 PUSH2 0x100 EXP DUP2 SLOAD SWAP1 PUSH4 0xFFFFFFFF MUL NOT AND SWAP1 SSTORE PUSH1 0x2 DUP3 ADD PUSH1 0x4 PUSH2 0x100 EXP DUP2 SLOAD SWAP1 PUSH4 0xFFFFFFFF MUL NOT AND SWAP1 SSTORE POP PUSH1 0x3 ADD PUSH2 0x1470 JUMP JUMPDEST POP SWAP1 JUMP JUMPDEST SWAP1 JUMP JUMPDEST POP DUP1 SLOAD PUSH1 0x1 DUP2 PUSH1 0x1 AND ISZERO PUSH2 0x100 MUL SUB AND PUSH1 0x2 SWAP1 DIV PUSH1 0x0 DUP3 SSTORE DUP1 PUSH1 0x1F LT PUSH2 0x14F5 JUMPI POP PUSH2 0x1514 JUMP JUMPDEST PUSH1 0x1F ADD PUSH1 0x20 SWAP1 DIV SWAP1 PUSH1 0x0 MSTORE PUSH1 0x20 PUSH1 0x0 KECCAK256 SWAP1 DUP2 ADD SWAP1 PUSH2 0x1513 SWAP2 SWAP1 PUSH2 0x1445 JUMP JUMPDEST JUMPDEST POP JUMP STOP LOG1 PUSH6 0x627A7A723058 KECCAK256 CREATE 0xc3 PUSH32 0x8878ECB3D5801DF6572ECFA6C938343066FB3FB4C038C134698A7BA27D002900 "
				},
				"gasEstimates": {
					"creation": {
						"codeDepositCost": "1088600",
						"executionCost": "101663",
						"totalCost": "1190263"
					},
					"external": {
						"animalToOwner(uint256)": "797",
						"animals(uint256)": "infinite",
						"attack(uint256,uint256)": "62591",
						"changeDna(uint256,uint256)": "21492",
						"changeName(uint256,string)": "infinite",
						"createRandomAnimal(string)": "infinite",
						"feedOnFood(uint256,uint256)": "infinite",
						"getAnimalsByOwner(address)": "infinite",
						"owner()": "544",
						"ownerAnimalCount(address)": "722",
						"petStates(uint256)": "830",
						"powerUp(uint256)": "21735",
						"powerUpFee()": "716",
						"setPowerUpFee(uint256)": "20586",
						"transferOwnership(address)": "22846",
						"withdraw()": "infinite"
					},
					"internal": {
						"random()": "infinite"
					}
				},
				"methodIdentifiers": {
					"animalToOwner(uint256)": "d81c513a",
					"animals(uint256)": "998dd3ca",
					"attack(uint256,uint256)": "e1fa7638",
					"changeDna(uint256,uint256)": "5faf2880",
					"changeName(uint256,string)": "c39cbef1",
					"createRandomAnimal(string)": "9abfb23e",
					"feedOnFood(uint256,uint256)": "5c8f191d",
					"getAnimalsByOwner(address)": "6485be27",
					"owner()": "8da5cb5b",
					"ownerAnimalCount(address)": "a936b8c9",
					"petStates(uint256)": "83ae8b47",
					"powerUp(uint256)": "9a6bd379",
					"powerUpFee()": "f715ea68",
					"setPowerUpFee(uint256)": "90b0722e",
					"transferOwnership(address)": "f2fde38b",
					"withdraw()": "3ccfd60b"
				}
			},
			"userdoc": {
				"methods": {}
			}
		}
	}
}