{
	"data": {
		"bytecode": {
			"linkReferences": {},
			"object": "60606040526010600055600054600a0a600155341561001d57600080fd5b61089f8061002c6000396000f300606060405260043610610078576000357c0100000000000000000000000000000000000000000000000000000000900463ffffffff1680630ed6722d1461007d5780635c8f191d146100a9578063998dd3ca146100d55780639abfb23e14610195578063a936b8c9146101f2578063d81c513a1461023f575b600080fd5b341561008857600080fd5b6100a760048080359060200190919080359060200190919050506102a2565b005b34156100b457600080fd5b6100d360048080359060200190919080359060200190919050506103b2565b005b34156100e057600080fd5b6100f660048080359060200190919050506103ce565b60405180806020018381526020018281038252848181546001816001161561010002031660029004815260200191508054600181600116156101000203166002900480156101855780601f1061015a57610100808354040283529160200191610185565b820191906000526020600020905b81548152906001019060200180831161016857829003601f168201915b5050935050505060405180910390f35b34156101a057600080fd5b6101f0600480803590602001908201803590602001908080601f01602080910402602001604051908101604052809392919081815260200183838082843782019150505050505091905050610400565b005b34156101fd57600080fd5b610229600480803573ffffffffffffffffffffffffffffffffffffffff16906020019091905050610468565b6040518082815260200191505060405180910390f35b341561024a57600080fd5b6102606004808035906020019091905050610480565b604051808273ffffffffffffffffffffffffffffffffffffffff1673ffffffffffffffffffffffffffffffffffffffff16815260200191505060405180910390f35b60008060006003600086815260200190815260200160002060009054906101000a900473ffffffffffffffffffffffffffffffffffffffff1673ffffffffffffffffffffffffffffffffffffffff163373ffffffffffffffffffffffffffffffffffffffff1614151561031457600080fd5b60028581548110151561032357fe5b906000526020600020906002020192506001548481151561034057fe5b06915060028284600101540181151561035557fe5b04905060636064808381151561036757fe5b04020190506103ab6040805190810160405280600681526020017f4e6f2d6f6e650000000000000000000000000000000000000000000000000000815250826104b3565b5050505050565b60006103bd82610673565b90506103c983826102a2565b505050565b6002818154811015156103dd57fe5b906000526020600020906002020160009150905080600001908060010154905082565b600080600460003373ffffffffffffffffffffffffffffffffffffffff1673ffffffffffffffffffffffffffffffffffffffff1681526020019081526020016000205414151561044f57600080fd5b6104588261069b565b905061046482826104b3565b5050565b60046020528060005260406000206000915090505481565b60036020528060005260406000206000915054906101000a900473ffffffffffffffffffffffffffffffffffffffff1681565b60006001600280548060010182816104cb919061071d565b916000526020600020906002020160006040805190810160405280888152602001878152509091909150600082015181600001908051906020019061051192919061074f565b50602082015181600101555050039050336003600083815260200190815260200160002060006101000a81548173ffffffffffffffffffffffffffffffffffffffff021916908373ffffffffffffffffffffffffffffffffffffffff160217905550600460003373ffffffffffffffffffffffffffffffffffffffff1673ffffffffffffffffffffffffffffffffffffffff168152602001908152602001600020600081548092919060010191905055507f07be46eb2dba0b4dd932cd8c8cf7a4471478b8e52413bb8e9e885805968664318184846040518084815260200180602001838152602001828103825284818151815260200191508051906020019080838360005b83811015610632578082015181840152602081019050610617565b50505050905090810190601f16801561065f5780820380516001836020036101000a031916815260200191505b5094505050505060405180910390a1505050565b6000808260405180828152602001915050604051809103902060019004905080915050919050565b600080826040518082805190602001908083835b6020831015156106d457805182526020820191506020810190506020830392506106af565b6001836020036101000a03801982511681845116808217855250505050505090500191505060405180910390206001900490506001548181151561071457fe5b06915050919050565b81548183558181151161074a5760020281600202836000526020600020918201910161074991906107cf565b5b505050565b828054600181600116156101000203166002900490600052602060002090601f016020900481019282601f1061079057805160ff19168380011785556107be565b828001600101855582156107be579182015b828111156107bd5782518255916020019190600101906107a2565b5b5090506107cb9190610806565b5090565b61080391905b808211156107ff57600080820160006107ee919061082b565b6001820160009055506002016107d5565b5090565b90565b61082891905b8082111561082457600081600090555060010161080c565b5090565b90565b50805460018160011615610100020316600290046000825580601f106108515750610870565b601f01602090049060005260206000209081019061086f9190610806565b5b505600a165627a7a72305820b054f39a178181e8b4a19e196ef0eddc8db224397ec8ae686090010d5eef2f210029",
			"opcodes": "PUSH1 0x60 PUSH1 0x40 MSTORE PUSH1 0x10 PUSH1 0x0 SSTORE PUSH1 0x0 SLOAD PUSH1 0xA EXP PUSH1 0x1 SSTORE CALLVALUE ISZERO PUSH2 0x1D JUMPI PUSH1 0x0 DUP1 REVERT JUMPDEST PUSH2 0x89F DUP1 PUSH2 0x2C PUSH1 0x0 CODECOPY PUSH1 0x0 RETURN STOP PUSH1 0x60 PUSH1 0x40 MSTORE PUSH1 0x4 CALLDATASIZE LT PUSH2 0x78 JUMPI PUSH1 0x0 CALLDATALOAD PUSH29 0x100000000000000000000000000000000000000000000000000000000 SWAP1 DIV PUSH4 0xFFFFFFFF AND DUP1 PUSH4 0xED6722D EQ PUSH2 0x7D JUMPI DUP1 PUSH4 0x5C8F191D EQ PUSH2 0xA9 JUMPI DUP1 PUSH4 0x998DD3CA EQ PUSH2 0xD5 JUMPI DUP1 PUSH4 0x9ABFB23E EQ PUSH2 0x195 JUMPI DUP1 PUSH4 0xA936B8C9 EQ PUSH2 0x1F2 JUMPI DUP1 PUSH4 0xD81C513A EQ PUSH2 0x23F JUMPI JUMPDEST PUSH1 0x0 DUP1 REVERT JUMPDEST CALLVALUE ISZERO PUSH2 0x88 JUMPI PUSH1 0x0 DUP1 REVERT JUMPDEST PUSH2 0xA7 PUSH1 0x4 DUP1 DUP1 CALLDATALOAD SWAP1 PUSH1 0x20 ADD SWAP1 SWAP2 SWAP1 DUP1 CALLDATALOAD SWAP1 PUSH1 0x20 ADD SWAP1 SWAP2 SWAP1 POP POP PUSH2 0x2A2 JUMP JUMPDEST STOP JUMPDEST CALLVALUE ISZERO PUSH2 0xB4 JUMPI PUSH1 0x0 DUP1 REVERT JUMPDEST PUSH2 0xD3 PUSH1 0x4 DUP1 DUP1 CALLDATALOAD SWAP1 PUSH1 0x20 ADD SWAP1 SWAP2 SWAP1 DUP1 CALLDATALOAD SWAP1 PUSH1 0x20 ADD SWAP1 SWAP2 SWAP1 POP POP PUSH2 0x3B2 JUMP JUMPDEST STOP JUMPDEST CALLVALUE ISZERO PUSH2 0xE0 JUMPI PUSH1 0x0 DUP1 REVERT JUMPDEST PUSH2 0xF6 PUSH1 0x4 DUP1 DUP1 CALLDATALOAD SWAP1 PUSH1 0x20 ADD SWAP1 SWAP2 SWAP1 POP POP PUSH2 0x3CE JUMP JUMPDEST PUSH1 0x40 MLOAD DUP1 DUP1 PUSH1 0x20 ADD DUP4 DUP2 MSTORE PUSH1 0x20 ADD DUP3 DUP2 SUB DUP3 MSTORE DUP5 DUP2 DUP2 SLOAD PUSH1 0x1 DUP2 PUSH1 0x1 AND ISZERO PUSH2 0x100 MUL SUB AND PUSH1 0x2 SWAP1 DIV DUP2 MSTORE PUSH1 0x20 ADD SWAP2 POP DUP1 SLOAD PUSH1 0x1 DUP2 PUSH1 0x1 AND ISZERO PUSH2 0x100 MUL SUB AND PUSH1 0x2 SWAP1 DIV DUP1 ISZERO PUSH2 0x185 JUMPI DUP1 PUSH1 0x1F LT PUSH2 0x15A JUMPI PUSH2 0x100 DUP1 DUP4 SLOAD DIV MUL DUP4 MSTORE SWAP2 PUSH1 0x20 ADD SWAP2 PUSH2 0x185 JUMP JUMPDEST DUP3 ADD SWAP2 SWAP1 PUSH1 0x0 MSTORE PUSH1 0x20 PUSH1 0x0 KECCAK256 SWAP1 JUMPDEST DUP2 SLOAD DUP2 MSTORE SWAP1 PUSH1 0x1 ADD SWAP1 PUSH1 0x20 ADD DUP1 DUP4 GT PUSH2 0x168 JUMPI DUP3 SWAP1 SUB PUSH1 0x1F AND DUP3 ADD SWAP2 JUMPDEST POP POP SWAP4 POP POP POP POP PUSH1 0x40 MLOAD DUP1 SWAP2 SUB SWAP1 RETURN JUMPDEST CALLVALUE ISZERO PUSH2 0x1A0 JUMPI PUSH1 0x0 DUP1 REVERT JUMPDEST PUSH2 0x1F0 PUSH1 0x4 DUP1 DUP1 CALLDATALOAD SWAP1 PUSH1 0x20 ADD SWAP1 DUP3 ADD DUP1 CALLDATALOAD SWAP1 PUSH1 0x20 ADD SWAP1 DUP1 DUP1 PUSH1 0x1F ADD PUSH1 0x20 DUP1 SWAP2 DIV MUL PUSH1 0x20 ADD PUSH1 0x40 MLOAD SWAP1 DUP2 ADD PUSH1 0x40 MSTORE DUP1 SWAP4 SWAP3 SWAP2 SWAP1 DUP2 DUP2 MSTORE PUSH1 0x20 ADD DUP4 DUP4 DUP1 DUP3 DUP5 CALLDATACOPY DUP3 ADD SWAP2 POP POP POP POP POP POP SWAP2 SWAP1 POP POP PUSH2 0x400 JUMP JUMPDEST STOP JUMPDEST CALLVALUE ISZERO PUSH2 0x1FD JUMPI PUSH1 0x0 DUP1 REVERT JUMPDEST PUSH2 0x229 PUSH1 0x4 DUP1 DUP1 CALLDATALOAD PUSH20 0xFFFFFFFFFFFFFFFFFFFFFFFFFFFFFFFFFFFFFFFF AND SWAP1 PUSH1 0x20 ADD SWAP1 SWAP2 SWAP1 POP POP PUSH2 0x468 JUMP JUMPDEST PUSH1 0x40 MLOAD DUP1 DUP3 DUP2 MSTORE PUSH1 0x20 ADD SWAP2 POP POP PUSH1 0x40 MLOAD DUP1 SWAP2 SUB SWAP1 RETURN JUMPDEST CALLVALUE ISZERO PUSH2 0x24A JUMPI PUSH1 0x0 DUP1 REVERT JUMPDEST PUSH2 0x260 PUSH1 0x4 DUP1 DUP1 CALLDATALOAD SWAP1 PUSH1 0x20 ADD SWAP1 SWAP2 SWAP1 POP POP PUSH2 0x480 JUMP JUMPDEST PUSH1 0x40 MLOAD DUP1 DUP3 PUSH20 0xFFFFFFFFFFFFFFFFFFFFFFFFFFFFFFFFFFFFFFFF AND PUSH20 0xFFFFFFFFFFFFFFFFFFFFFFFFFFFFFFFFFFFFFFFF AND DUP2 MSTORE PUSH1 0x20 ADD SWAP2 POP POP PUSH1 0x40 MLOAD DUP1 SWAP2 SUB SWAP1 RETURN JUMPDEST PUSH1 0x0 DUP1 PUSH1 0x0 PUSH1 0x3 PUSH1 0x0 DUP7 DUP2 MSTORE PUSH1 0x20 ADD SWAP1 DUP2 MSTORE PUSH1 0x20 ADD PUSH1 0x0 KECCAK256 PUSH1 0x0 SWAP1 SLOAD SWAP1 PUSH2 0x100 EXP SWAP1 DIV PUSH20 0xFFFFFFFFFFFFFFFFFFFFFFFFFFFFFFFFFFFFFFFF AND PUSH20 0xFFFFFFFFFFFFFFFFFFFFFFFFFFFFFFFFFFFFFFFF AND CALLER PUSH20 0xFFFFFFFFFFFFFFFFFFFFFFFFFFFFFFFFFFFFFFFF AND EQ ISZERO ISZERO PUSH2 0x314 JUMPI PUSH1 0x0 DUP1 REVERT JUMPDEST PUSH1 0x2 DUP6 DUP2 SLOAD DUP2 LT ISZERO ISZERO PUSH2 0x323 JUMPI INVALID JUMPDEST SWAP1 PUSH1 0x0 MSTORE PUSH1 0x20 PUSH1 0x0 KECCAK256 SWAP1 PUSH1 0x2 MUL ADD SWAP3 POP PUSH1 0x1 SLOAD DUP5 DUP2 ISZERO ISZERO PUSH2 0x340 JUMPI INVALID JUMPDEST MOD SWAP2 POP PUSH1 0x2 DUP3 DUP5 PUSH1 0x1 ADD SLOAD ADD DUP2 ISZERO ISZERO PUSH2 0x355 JUMPI INVALID JUMPDEST DIV SWAP1 POP PUSH1 0x63 PUSH1 0x64 DUP1 DUP4 DUP2 ISZERO ISZERO PUSH2 0x367 JUMPI INVALID JUMPDEST DIV MUL ADD SWAP1 POP PUSH2 0x3AB PUSH1 0x40 DUP1 MLOAD SWAP1 DUP2 ADD PUSH1 0x40 MSTORE DUP1 PUSH1 0x6 DUP2 MSTORE PUSH1 0x20 ADD PUSH32 0x4E6F2D6F6E650000000000000000000000000000000000000000000000000000 DUP2 MSTORE POP DUP3 PUSH2 0x4B3 JUMP JUMPDEST POP POP POP POP POP JUMP JUMPDEST PUSH1 0x0 PUSH2 0x3BD DUP3 PUSH2 0x673 JUMP JUMPDEST SWAP1 POP PUSH2 0x3C9 DUP4 DUP3 PUSH2 0x2A2 JUMP JUMPDEST POP POP POP JUMP JUMPDEST PUSH1 0x2 DUP2 DUP2 SLOAD DUP2 LT ISZERO ISZERO PUSH2 0x3DD JUMPI INVALID JUMPDEST SWAP1 PUSH1 0x0 MSTORE PUSH1 0x20 PUSH1 0x0 KECCAK256 SWAP1 PUSH1 0x2 MUL ADD PUSH1 0x0 SWAP2 POP SWAP1 POP DUP1 PUSH1 0x0 ADD SWAP1 DUP1 PUSH1 0x1 ADD SLOAD SWAP1 POP DUP3 JUMP JUMPDEST PUSH1 0x0 DUP1 PUSH1 0x4 PUSH1 0x0 CALLER PUSH20 0xFFFFFFFFFFFFFFFFFFFFFFFFFFFFFFFFFFFFFFFF AND PUSH20 0xFFFFFFFFFFFFFFFFFFFFFFFFFFFFFFFFFFFFFFFF AND DUP2 MSTORE PUSH1 0x20 ADD SWAP1 DUP2 MSTORE PUSH1 0x20 ADD PUSH1 0x0 KECCAK256 SLOAD EQ ISZERO ISZERO PUSH2 0x44F JUMPI PUSH1 0x0 DUP1 REVERT JUMPDEST PUSH2 0x458 DUP3 PUSH2 0x69B JUMP JUMPDEST SWAP1 POP PUSH2 0x464 DUP3 DUP3 PUSH2 0x4B3 JUMP JUMPDEST POP POP JUMP JUMPDEST PUSH1 0x4 PUSH1 0x20 MSTORE DUP1 PUSH1 0x0 MSTORE PUSH1 0x40 PUSH1 0x0 KECCAK256 PUSH1 0x0 SWAP2 POP SWAP1 POP SLOAD DUP2 JUMP JUMPDEST PUSH1 0x3 PUSH1 0x20 MSTORE DUP1 PUSH1 0x0 MSTORE PUSH1 0x40 PUSH1 0x0 KECCAK256 PUSH1 0x0 SWAP2 POP SLOAD SWAP1 PUSH2 0x100 EXP SWAP1 DIV PUSH20 0xFFFFFFFFFFFFFFFFFFFFFFFFFFFFFFFFFFFFFFFF AND DUP2 JUMP JUMPDEST PUSH1 0x0 PUSH1 0x1 PUSH1 0x2 DUP1 SLOAD DUP1 PUSH1 0x1 ADD DUP3 DUP2 PUSH2 0x4CB SWAP2 SWAP1 PUSH2 0x71D JUMP JUMPDEST SWAP2 PUSH1 0x0 MSTORE PUSH1 0x20 PUSH1 0x0 KECCAK256 SWAP1 PUSH1 0x2 MUL ADD PUSH1 0x0 PUSH1 0x40 DUP1 MLOAD SWAP1 DUP2 ADD PUSH1 0x40 MSTORE DUP1 DUP9 DUP2 MSTORE PUSH1 0x20 ADD DUP8 DUP2 MSTORE POP SWAP1 SWAP2 SWAP1 SWAP2 POP PUSH1 0x0 DUP3 ADD MLOAD DUP2 PUSH1 0x0 ADD SWAP1 DUP1 MLOAD SWAP1 PUSH1 0x20 ADD SWAP1 PUSH2 0x511 SWAP3 SWAP2 SWAP1 PUSH2 0x74F JUMP JUMPDEST POP PUSH1 0x20 DUP3 ADD MLOAD DUP2 PUSH1 0x1 ADD SSTORE POP POP SUB SWAP1 POP CALLER PUSH1 0x3 PUSH1 0x0 DUP4 DUP2 MSTORE PUSH1 0x20 ADD SWAP1 DUP2 MSTORE PUSH1 0x20 ADD PUSH1 0x0 KECCAK256 PUSH1 0x0 PUSH2 0x100 EXP DUP2 SLOAD DUP2 PUSH20 0xFFFFFFFFFFFFFFFFFFFFFFFFFFFFFFFFFFFFFFFF MUL NOT AND SWAP1 DUP4 PUSH20 0xFFFFFFFFFFFFFFFFFFFFFFFFFFFFFFFFFFFFFFFF AND MUL OR SWAP1 SSTORE POP PUSH1 0x4 PUSH1 0x0 CALLER PUSH20 0xFFFFFFFFFFFFFFFFFFFFFFFFFFFFFFFFFFFFFFFF AND PUSH20 0xFFFFFFFFFFFFFFFFFFFFFFFFFFFFFFFFFFFFFFFF AND DUP2 MSTORE PUSH1 0x20 ADD SWAP1 DUP2 MSTORE PUSH1 0x20 ADD PUSH1 0x0 KECCAK256 PUSH1 0x0 DUP2 SLOAD DUP1 SWAP3 SWAP2 SWAP1 PUSH1 0x1 ADD SWAP2 SWAP1 POP SSTORE POP PUSH32 0x7BE46EB2DBA0B4DD932CD8C8CF7A4471478B8E52413BB8E9E88580596866431 DUP2 DUP5 DUP5 PUSH1 0x40 MLOAD DUP1 DUP5 DUP2 MSTORE PUSH1 0x20 ADD DUP1 PUSH1 0x20 ADD DUP4 DUP2 MSTORE PUSH1 0x20 ADD DUP3 DUP2 SUB DUP3 MSTORE DUP5 DUP2 DUP2 MLOAD DUP2 MSTORE PUSH1 0x20 ADD SWAP2 POP DUP1 MLOAD SWAP1 PUSH1 0x20 ADD SWAP1 DUP1 DUP4 DUP4 PUSH1 0x0 JUMPDEST DUP4 DUP2 LT ISZERO PUSH2 0x632 JUMPI DUP1 DUP3 ADD MLOAD DUP2 DUP5 ADD MSTORE PUSH1 0x20 DUP2 ADD SWAP1 POP PUSH2 0x617 JUMP JUMPDEST POP POP POP POP SWAP1 POP SWAP1 DUP2 ADD SWAP1 PUSH1 0x1F AND DUP1 ISZERO PUSH2 0x65F JUMPI DUP1 DUP3 SUB DUP1 MLOAD PUSH1 0x1 DUP4 PUSH1 0x20 SUB PUSH2 0x100 EXP SUB NOT AND DUP2 MSTORE PUSH1 0x20 ADD SWAP2 POP JUMPDEST POP SWAP5 POP POP POP POP POP PUSH1 0x40 MLOAD DUP1 SWAP2 SUB SWAP1 LOG1 POP POP POP JUMP JUMPDEST PUSH1 0x0 DUP1 DUP3 PUSH1 0x40 MLOAD DUP1 DUP3 DUP2 MSTORE PUSH1 0x20 ADD SWAP2 POP POP PUSH1 0x40 MLOAD DUP1 SWAP2 SUB SWAP1 KECCAK256 PUSH1 0x1 SWAP1 DIV SWAP1 POP DUP1 SWAP2 POP POP SWAP2 SWAP1 POP JUMP JUMPDEST PUSH1 0x0 DUP1 DUP3 PUSH1 0x40 MLOAD DUP1 DUP3 DUP1 MLOAD SWAP1 PUSH1 0x20 ADD SWAP1 DUP1 DUP4 DUP4 JUMPDEST PUSH1 0x20 DUP4 LT ISZERO ISZERO PUSH2 0x6D4 JUMPI DUP1 MLOAD DUP3 MSTORE PUSH1 0x20 DUP3 ADD SWAP2 POP PUSH1 0x20 DUP2 ADD SWAP1 POP PUSH1 0x20 DUP4 SUB SWAP3 POP PUSH2 0x6AF JUMP JUMPDEST PUSH1 0x1 DUP4 PUSH1 0x20 SUB PUSH2 0x100 EXP SUB DUP1 NOT DUP3 MLOAD AND DUP2 DUP5 MLOAD AND DUP1 DUP3 OR DUP6 MSTORE POP POP POP POP POP POP SWAP1 POP ADD SWAP2 POP POP PUSH1 0x40 MLOAD DUP1 SWAP2 SUB SWAP1 KECCAK256 PUSH1 0x1 SWAP1 DIV SWAP1 POP PUSH1 0x1 SLOAD DUP2 DUP2 ISZERO ISZERO PUSH2 0x714 JUMPI INVALID JUMPDEST MOD SWAP2 POP POP SWAP2 SWAP1 POP JUMP JUMPDEST DUP2 SLOAD DUP2 DUP4 SSTORE DUP2 DUP2 ISZERO GT PUSH2 0x74A JUMPI PUSH1 0x2 MUL DUP2 PUSH1 0x2 MUL DUP4 PUSH1 0x0 MSTORE PUSH1 0x20 PUSH1 0x0 KECCAK256 SWAP2 DUP3 ADD SWAP2 ADD PUSH2 0x749 SWAP2 SWAP1 PUSH2 0x7CF JUMP JUMPDEST JUMPDEST POP POP POP JUMP JUMPDEST DUP3 DUP1 SLOAD PUSH1 0x1 DUP2 PUSH1 0x1 AND ISZERO PUSH2 0x100 MUL SUB AND PUSH1 0x2 SWAP1 DIV SWAP1 PUSH1 0x0 MSTORE PUSH1 0x20 PUSH1 0x0 KECCAK256 SWAP1 PUSH1 0x1F ADD PUSH1 0x20 SWAP1 DIV DUP2 ADD SWAP3 DUP3 PUSH1 0x1F LT PUSH2 0x790 JUMPI DUP1 MLOAD PUSH1 0xFF NOT AND DUP4 DUP1 ADD OR DUP6 SSTORE PUSH2 0x7BE JUMP JUMPDEST DUP3 DUP1 ADD PUSH1 0x1 ADD DUP6 SSTORE DUP3 ISZERO PUSH2 0x7BE JUMPI SWAP2 DUP3 ADD JUMPDEST DUP3 DUP2 GT ISZERO PUSH2 0x7BD JUMPI DUP3 MLOAD DUP3 SSTORE SWAP2 PUSH1 0x20 ADD SWAP2 SWAP1 PUSH1 0x1 ADD SWAP1 PUSH2 0x7A2 JUMP JUMPDEST JUMPDEST POP SWAP1 POP PUSH2 0x7CB SWAP2 SWAP1 PUSH2 0x806 JUMP JUMPDEST POP SWAP1 JUMP JUMPDEST PUSH2 0x803 SWAP2 SWAP1 JUMPDEST DUP1 DUP3 GT ISZERO PUSH2 0x7FF JUMPI PUSH1 0x0 DUP1 DUP3 ADD PUSH1 0x0 PUSH2 0x7EE SWAP2 SWAP1 PUSH2 0x82B JUMP JUMPDEST PUSH1 0x1 DUP3 ADD PUSH1 0x0 SWAP1 SSTORE POP PUSH1 0x2 ADD PUSH2 0x7D5 JUMP JUMPDEST POP SWAP1 JUMP JUMPDEST SWAP1 JUMP JUMPDEST PUSH2 0x828 SWAP2 SWAP1 JUMPDEST DUP1 DUP3 GT ISZERO PUSH2 0x824 JUMPI PUSH1 0x0 DUP2 PUSH1 0x0 SWAP1 SSTORE POP PUSH1 0x1 ADD PUSH2 0x80C JUMP JUMPDEST POP SWAP1 JUMP JUMPDEST SWAP1 JUMP JUMPDEST POP DUP1 SLOAD PUSH1 0x1 DUP2 PUSH1 0x1 AND ISZERO PUSH2 0x100 MUL SUB AND PUSH1 0x2 SWAP1 DIV PUSH1 0x0 DUP3 SSTORE DUP1 PUSH1 0x1F LT PUSH2 0x851 JUMPI POP PUSH2 0x870 JUMP JUMPDEST PUSH1 0x1F ADD PUSH1 0x20 SWAP1 DIV SWAP1 PUSH1 0x0 MSTORE PUSH1 0x20 PUSH1 0x0 KECCAK256 SWAP1 DUP2 ADD SWAP1 PUSH2 0x86F SWAP2 SWAP1 PUSH2 0x806 JUMP JUMPDEST JUMPDEST POP JUMP STOP LOG1 PUSH6 0x627A7A723058 KECCAK256 0xb0 SLOAD RETURN SWAP11 OR DUP2 DUP2 0xe8 0xb4 LOG1 SWAP15 NOT PUSH15 0xF0EDDC8DB224397EC8AE686090010D 0x5e 0xef 0x2f 0x21 STOP 0x29 "
		},
		"gasEstimates": {
			"creation": {
				"codeDepositCost": "441400",
				"executionCost": "40744",
				"totalCost": "482144"
			},
			"external": {
				"animalToOwner(uint256)": "643",
				"animals(uint256)": "infinite",
				"createRandomAnimal(string)": "infinite",
				"feedAndGrow(uint256,uint256)": "infinite",
				"feedOnFood(uint256,uint256)": "infinite",
				"ownerAnimalCount(address)": "590"
			},
			"internal": {
				"_catchFood(uint256)": "infinite"
			}
		},
		"methodIdentifiers": {
			"animalToOwner(uint256)": "d81c513a",
			"animals(uint256)": "998dd3ca",
			"createRandomAnimal(string)": "9abfb23e",
			"feedAndGrow(uint256,uint256)": "0ed6722d",
			"feedOnFood(uint256,uint256)": "5c8f191d",
			"ownerAnimalCount(address)": "a936b8c9"
		}
	},
	"abi": [
		{
			"constant": false,
			"inputs": [
				{
					"name": "_AnimalId",
					"type": "uint256"
				},
				{
					"name": "_targetDna",
					"type": "uint256"
				}
			],
			"name": "feedAndGrow",
			"outputs": [],
			"payable": false,
			"stateMutability": "nonpayable",
			"type": "function"
		},
		{
			"constant": false,
			"inputs": [
				{
					"name": "_AnimalId",
					"type": "uint256"
				},
				{
					"name": "_FoodId",
					"type": "uint256"
				}
			],
			"name": "feedOnFood",
			"outputs": [],
			"payable": false,
			"stateMutability": "nonpayable",
			"type": "function"
		},
		{
			"constant": true,
			"inputs": [
				{
					"name": "",
					"type": "uint256"
				}
			],
			"name": "animals",
			"outputs": [
				{
					"name": "name",
					"type": "string"
				},
				{
					"name": "dna",
					"type": "uint256"
				}
			],
			"payable": false,
			"stateMutability": "view",
			"type": "function"
		},
		{
			"constant": false,
			"inputs": [
				{
					"name": "_name",
					"type": "string"
				}
			],
			"name": "createRandomAnimal",
			"outputs": [],
			"payable": false,
			"stateMutability": "nonpayable",
			"type": "function"
		},
		{
			"constant": true,
			"inputs": [
				{
					"name": "",
					"type": "address"
				}
			],
			"name": "ownerAnimalCount",
			"outputs": [
				{
					"name": "",
					"type": "uint256"
				}
			],
			"payable": false,
			"stateMutability": "view",
			"type": "function"
		},
		{
			"constant": true,
			"inputs": [
				{
					"name": "",
					"type": "uint256"
				}
			],
			"name": "animalToOwner",
			"outputs": [
				{
					"name": "",
					"type": "address"
				}
			],
			"payable": false,
			"stateMutability": "view",
			"type": "function"
		},
		{
			"anonymous": false,
			"inputs": [
				{
					"indexed": false,
					"name": "AnimalId",
					"type": "uint256"
				},
				{
					"indexed": false,
					"name": "name",
					"type": "string"
				},
				{
					"indexed": false,
					"name": "dna",
					"type": "uint256"
				}
			],
			"name": "NewAnimal",
			"type": "event"
		}
	]
}